:02000002D0002C
:1040000000400D00147C0D00000006000C000501AE
:084010000401E80500000000B6
:044018001C6C0D000F
:10401C0009480A49884208B505D0094A824202D0AB
:10402C00121A02F0B1FD0748074A0021121A02F0D9
:10403C00B6FD014808BD00BFA4DE032074770D0057
:10404C001CE303201CE30320F0E7032070B501F010
:10405C007FFF074C074BE41AA40800251E46A54217
:10406C0004D056F8253098470135F8E770BD00BFED
:10407C0068770D0024770D0000F0F2B808B500F059
:10408C00A9F8BDE8084001F025BF01F021BC01F002
:10409C001FBC000008B5034A00210C2001F08CFB6A
:1040AC00FEE700BFA5550D000078B0FA80F040097E
:1040BC007047012303707047704710B504460068C1
:1040CC0008B101F005FC204610BD0A46002101F0A4
:1040DC0076BE000010B50446324800F047FE0121C0
:1040EC00304801F09DF901212E4801F09EF9002283
:1040FC0011462C4801F091F903212A4801F09DF951
:10410C0029492848FFF7E1FF28492648FFF7DDFF3A
:10411C0027492448FFF7D9FFDCB1012C37D12146C0
:10412C00204801F082F923491E48FFF7CEFF2249AF
:10413C001C48FFF7CAFF224600211A4801F078F903
:10414C001E491848FFF7C1FF2146164801F06DF9CA
:10415C0018E00121134801F068F919491148FFF7DB
:10416C00B4FF012221460F4801F062F915490D48B0
:10417C00FFF7ABFF01210B4801F057F91249094831
:10418C00FFF7A3FF11490748FFF79FFF04E0104B0F
:10419C000448196801F0E7FD0248BDE8104000F042
:1041AC0007BF00BF40E30320306C0D00386C0D00DE
:1041BC00446C0D006B6C0D004E6C0D00576C0D00BB
:1041CC004C6C0D00716C0D00536C0D005F6C0D0090
:1041DC0068E3032070B50A2002F0E8FA1B4C1C4D72
:1041EC00003018BF0120207001F0B2FF2378194A6B
:1041FC00002101F0E4FD237893B1287880F00100D0
:10420C002870FFF767FF2E7856B901F0A1FF3146F1
:10421C002B78114A01F0D3FD3146072002F0ADFA9C
:10422C002B78002626705BB101F092FF084B0B4AED
:10423C001B78314601F0C3FD0121072002F09DFAE5
:10424C004FF47A70BDE8704001F006BE78E30320AD
:10425C0030E30320766C0D00886C0D009C6C0D0017
:10426C0010B501F075FF4FF4165101F065FF3C22BB
:10427C000221314800F0CAFD2F4800F099FE4FF49E
:10428C007A7001F0E9FD01F063FF2C49FFF71DFF87
:10429C004FF47A7001F0E0FD01F05AFF284901F06B
:1042AC006CFD7621274800F07DFB274B187060BB16
:1042BC0001F04EFF254901F056FD01F049FF24495C
:1042CC0001F03EFD01F044FF04461E4800F0E4F806
:1042DC0010220146204601F052FD204601F037FD28
:1042EC0001F036FF1B4901F03EFD01F031FF1A4988
:1042FC0001F039FD01F02CFF184901F034FD01F0FB
:10430C0027FF174901F02FFDFEE701F021FF1549AA
:10431C0001F029FD03210A2002F01EFA03210B20D3
:10432C0002F01AFA0720012102F016FA0020BDE86B
:10433C001040FFF7CFBE00BF40E30320AE6C0D0072
:10434C00CC6C0D007CE3032064E30320D86C0D00DF
:10435C00206D0D00316D0D00776D0D00A06D0D0001
:10436C00C96D0D00F26D0D0010B52421044602F04C
:10437C00A1FA204610BD000070B5214E214D224CF3
:10438C0001F082F82149304601F085FC3046204E80
:10439C002A46214602F080FA1E49304601F07BFC89
:1043AC0030461D4E2A46214602F076FA1B4930460D
:1043BC0001F071FC21461A4C2A46304602F06CFA88
:1043CC000421204600F0BCFC2A461649204602F087
:1043DC0063FA154C154800F059F800232360A380AC
:1043EC00A37123814FF6FF736381022001F0ECF976
:1043FC002A4620460E49BDE8704002F04DBA00BF77
:10440C0068E303201CE30320155C0D00086E0D000F
:10441C0020E30320356E0D00C0E303205D6E0D001C
:10442C0040E30320C5400D0034E303207CE303206C
:10443C00C7400D007FB5024608461379956833B125
:10444C003DB90C4904B0BDE8704001F079BC0A4B91
:10445C0000E00A4B167B0A4C0A49527B0292012E51
:10446C0008BF214601910095074A002101F0A7FCE5
:10447C0004B070BD996E0D001F750D00886E0D0097
:10448C00916E0D00956E0D00AF6E0D00FF22027443
:10449C0042748274C27470478068704738B5094D95
:1044AC00296811F001040AD12846FFF7FDFD30B14F
:1044BC002146054801F068FA2846FFF7FAFD024844
:1044CC0038BD00BFD0E30320D4E303202DE9F04135
:1044DC0090F91330013305460F4606D1FFF7DEFF86
:1044EC003946BDE8F04101F06BBB072600244FF0C4
:1044FC00010895F91300002180B202F03EF995F9FC
:10450C00110008FA06F1394080B202F036F995F93B
:10451C001300012180B202F030F995F91200640009
:10452C0080B2E4B202F042F908B144F0010416F191
:10453C00FF36DED22046BDE8F08108B5FFF7AEFFAE
:10454C00BDE8084001F05DBA10B50446FFF7A6FFC0
:10455C002146BDE8104001F06DBA000030B590F96D
:10456C001030013385B004460D461DD10179006829
:10457C0001F00BFF2068036829469B689847206868
:10458C0001F00EFF02222179206801F0FBFE206869
:10459C0003685B6998470546206803685B69984720
:1045AC0040EA052085B235E090F9133001330ED185
:1045BC001A4B1B4A009302920023012268468DF885
:1045CC0004308DF80C208DF80D30FFF7BDFF94F9F9
:1045DC001000002180B202F0D0F845F08001204696
:1045EC00FFF774FF00212046FFF770FF00210546FE
:1045FC002046FFF76BFF40EA052085B294F91000C6
:10460C00012180B202F0B9F894F91330013301D1D1
:10461C00FFF793FF284605B030BD00BF846E0D0038
:10462C0020A1070008B5FFF799FF40BA80B208BD7A
:10463C0030B590F91030013385B004460D4616D1D3
:10464C000179006801F0A1FE2068036829469B6887
:10465C009847206801F0A4FE01222179206801F01E
:10466C0091FE206803685B699847C5B22EE090F90B
:10467C00133001330ED1174B174A009302920023CB
:10468C00012268468DF804308DF80C208DF80D3021
:10469C00FFF75AFF94F91000002180B202F06DF878
:1046AC0045F080012046FFF711FF00212046FFF75F
:1046BC000DFF054694F91000012180B202F05DF85F
:1046CC0094F91330013301D1FFF737FF284605B0B9
:1046DC0030BD00BF846E0D0020A1070008B5F3218A
:1046EC00FFF7A6FF00F0010008BD38B5882104468D
:1046FC00FFF798FF8A21A0822046FFF793FF8C21B9
:10470C00E0822046FFF78EFF8E2120832046FFF7A4
:10471C0089FF902160832046FFF784FF9221A083BC
:10472C002046FFF77FFF9421E0832046FFF77AFFB6
:10473C00962120842046FFF775FF9821608420463F
:10474C00FFF770FF9A21A0842046FFF76BFF9C2196
:10475C00E0842046FFF766FF9E2120852046FFF768
:10476C0061FFA12160852046FFF762FFE12184F8FB
:10477C002C002046FFF756FFE321E0852046FFF78B
:10478C0057FFE42184F830002046FFF751FFE52164
:10479C0005462046FFF74CFF00F00F0040EA0510DD
:1047AC006086E6212046FFF743FFE52105462046BB
:1047BC00FFF73EFF001140EA0510A086E7212046D6
:1047CC00FFF736FF84F8360038BD00007FB590F94E
:1047DC001030013304460E46154611D1017900689C
:1047EC0001F0D3FD2068036831469B689847206828
:1047FC00036829469B689847206801F0D1FD2DE09D
:10480C0090F9133001330ED1154B164A00930292D6
:10481C000023012268468DF804308DF80C208DF8A9
:10482C000D30FFF791FE94F91000002180B201F0D9
:10483C00A4FF06F07F012046FFF748FE29462046DC
:10484C00FFF744FE94F91000012180B201F095FFAE
:10485C0094F91330013301D1FFF76FFE04B070BD32
:10486C00846E0D0020A10700F8B590F83C509DF81F
:10487C0018609DF81CE09DF8207061F3871562F3B9
:10488C00020563F3C50590F8403080F83C5066F3A0
:10489C00471380F8403090F838306EF3C503044667
:1048AC0067F3020380F8383006F00702F221FFF7B5
:1048BC008DFF94F83820C2F3C20302F007019B006D
:1048CC0043EA411343EAD2122046F521FFF77EFF5B
:1048DC0094F83C20C2F3C20302F007019B0043EAA8
:1048EC00411343EA92122046F421BDE8F840FFF749
:1048FC006DBF30B5044690F91000421C85B003D151
:10490C00206801F00BFD22E0012180B201F035FF9F
:10491C0094F91000012180B201F01EFF94F91300EC
:10492C00431C04D1FFF7BAFD01F038F80FE0012168
:10493C0080B201F011FF94F91100012180B201F055
:10494C000BFF94F91200002180B201F005FFD02179
:10495C002046FFF76DFE6028A06020D12046B622CD
:10496C00E021FFF733FF4FF4967001F075FA204603
:10497C00FFF7B4FE054608B16420F6E72046FFF7C2
:10498C00B4FE052300931A46032120460295019597
:10499C00FFF76AFF642001F05FFA012000E00020BD
:1049AC0005B030BD10B50171044601F04FFF206019
:1049BC002046BDE81040FFF79CBF00F065BD00002D
:1049CC00F0B5447EBDF81450022C08D0032C0FD047
:1049DC00012C70D10489013CA21A12B20CE044895A
:1049EC00013CA21A0489E41A611A12B209B262E0FB
:1049FC004489E41A611A09B2002A5BDBB0F9084059
:104A0C00944240F390800029BEBF5B181BB200217A
:104A1C00B0F90A00CC188442C4BF431A1BB2002B55
:104A2C0040F38180C9B2C8083F4F02EBC01211F0AD
:104A3C000701DBB207EB020417D0C1F10801C8B2C1
:104A4C003A4983420E5C3FBFC3EB000EFF2141FA93
:104A5C000EF10E40B95C012D0CBF3143B1438342C2
:104A6C00B95460D3181AC3B28034072B17D9012D4F
:104A7C000CBFFF20002004F180011A46083AD2B284
:104A8C00072A01F8800C01F18001F7D8A3F1080284
:104A9C00C2F3C402013204EBC21403F00703002B6F
:104AAC0041D0234AD25C2378012D0CBF134393438E
:104ABC002370F0BDF0BD002A35DBB0F90A409442FA
:104ACC0031DD0029BCBFC9180BB2B0F90870B8BFF2
:104ADC000021CE18BE42C4BF631A1BB2002B22DDCC
:104AEC00D01001EBC011104802F007020144012064
:104AFC0000FA02F28542D2B209D1013B1BB25C1C16
:104B0C0011D011F8010B104301F8010CF5E7D24359
:104B1C00D2B2013B1BB2581C05D011F8010B10404E
:104B2C0001F8010CF5E7F0BDB4DE0320ACDE032088
:104B3C00A4DE0320F0B5447EBDF81450022C08D03E
:104B4C00032C0FD0012C12D10489E41AA21A12B230
:104B5C006DE00489013C611A4489E41AA21A09B275
:104B6C0012B204E04489013C611A09B25FE00029E9
:104B7C005CDBB0F908408C4240F39180002ABCBF4A
:104B8C00D21813B2B0F90A00B8BF0022D41884426C
:104B9C00C4BF831A1BB2002B40F38180D4B2404EA9
:104BAC00DAB2E30801EBC31114F0070406EB0103BE
:104BBC0017D0C4F10804E0B23A4C8242275C3FBFE4
:104BCC00C2EB000EFF2444FA0EF42740745C012D56
:104BDC000CBF3C43BC438242745460D3101AC2B223
:104BEC008033072A17D9012D0CBFFF24002403F1B1
:104BFC00800011460839C9B2072900F8804C00F131
:104C0C008000F7D8A2F10801C1F3C401013103EB14
:104C1C00C11302F00702002A41D02349895C1A789B
:104C2C00012D0CBF0A438A431A70F0BDF0BD002958
:104C3C0035DBB0F90A408C4231DD002ABCBFD218FA
:104C4C0013B2B0F90870B8BF0022D618BE42C4BF68
:104C5C00A31A1BB2002B22DDC81002EBC0121048A5
:104C6C0001F007011044012202FA01F19542C9B288
:104C7C0009D15A1E13B25C1C11D010F8012B0A4337
:104C8C0000F8012CF5E7C943C9B25A1E13B25A1CDD
:104C9C0005D010F8012B0A4000F8012CF5E7F0BD07
:104CAC00B4DE0320ACDE0320A4DE0320F8B50D1E19
:104CBC00064614461F463FDB00F0CEFB85423BDA2E
:104CCC00002C39DB304600F0CAFB844234DA304623
:104CDC0000F0B1FB022827D13189708901390138E4
:104CEC00491B001B0DB204B206E0012804D1338924
:104CFC00013B1B1B2C461DB20820012F94FBF0F02E
:104D0C0000B20E4B04F0070205EBC01104D1974022
:104D1C005A5C17435F54F8BD585C012707FA02F23E
:104D2C0020EA02025A54F8BD0328DED17389013BF4
:104D3C005B1B25461CB2DFE7F8BD00BFB4DE0320C9
:104D4C0038B5402204460D46802100F087FA064B08
:104D5C002360FF23637784F82130E377A37784F80B
:104D6C002050204638BD00BFD86E0D004FF4806235
:104D7C000021014801F013BFB4DE032038B590F9CF
:104D8C001D30013304460D4628D090F92100012135
:104D9C0080B201F0F2FC94F91F00002180B201F006
:104DAC00ECFC94F92100002180B201F0E6FC94F8AF
:104DBC0022302BB1FFF772FB294600F001FF05E012
:104DCC002B460122A17F607F01F003FD94F92100A5
:104DDC00012180B2BDE8384001F0CFBC01F036FDB6
:104DEC0094F91B1001F0D5FA01F030FD0368002195
:104DFC009B68984701F02AFD036829469B689847F1
:104E0C0001F024FDBDE8384001F0CABA38B50446BB
:104E1C000D46217790F91D30C276013337D090F9C9
:104E2C001F00012180B201F097FC94F921000121AF
:104E3C0080B201F091FC94F822305BB994F91D001A
:104E4C00012180B201F088FC94F91E00012180B28E
:104E5C0001F082FC94F82230EBB194F9210001218D
:104E6C0080B201F08AFCFFF719FB012100F0A7FDCD
:104E7C00FFF714FB102100F07FFEFFF70FFB002162
:104E8C0000F0AEFDFFF70AFB00F088FD03E001F037
:104E9C00DDFC01F043FA94F92000012180B201F00D
:104EAC005BFC94F92000012180B201F066FC01202A
:104EBC0000F0D2FF94F92000002180B201F05DFCDB
:104ECC000A2000F0C9FF94F92000012180B201F002
:104EDC0054FC2046AE21FFF751FF2046D521FFF7A9
:104EEC004DFF20468021FFF749FF2046A821FFF700
:104EFC0045FF20463F21FFF741FF2046D321FFF716
:104F0C003DFF20460021FFF739FF20464021FFF7E7
:104F1C0035FF8D212046FFF731FF012D0CBF1021ED
:104F2C0014212046FFF72AFF20462021FFF726FFF9
:104F3C0020460021FFF722FF2046A121FFF71EFF8C
:104F4C002046C821FFF71AFF2046DA21FFF716FF8B
:104F5C0020461221FFF712FF81212046FFF70EFF9A
:104F6C00012D0CBF9F21CF212046FFF707FFD92130
:104F7C002046FFF703FF012D0CBF2221F121204613
:104F8C00FFF7FCFE2046DB21FFF7F8FE2046402110
:104F9C00FFF7F4FE2046A421FFF7F0FE2046A621E1
:104FAC00FFF7ECFE2046AF21BDE83840FFF7E6BE28
:104FBC002DE9F04121210446FFF7E0FE00212046B7
:104FCC00FFF7DCFE7F212046FFF7D8FE222120468A
:104FDC00FFF7D4FE00212046FFF7D0FE0721204624
:104FEC00FFF7CCFE94F91D30DFF8BC80013335D0CF
:104FFC0094F92100012180B201F0BFFB94F91F004C
:10500C00012180B201F0B9FB94F92100002180B29A
:10501C0001F0B3FB012000F0BFFA002594F8223018
:10502C0018F805602BB1FFF739FA314600F0C8FDCE
:10503C0005E033460122A17F607F01F0CAFB0135F8
:10504C00B5F5806FEAD1012000F0A6FA94F92100A1
:10505C00012180B2BDE8F04101F08FBB002501F0C9
:10506C00F5FB94F91B1001F094F901F0EFFB0368C8
:10507C0040219B689847002601F0E8FBAF190368B4
:10508C00BFB29B6818F8071001369847102EF3D161
:10509C00103501F0DBFBADB201F082F9B5F5806F94
:1050AC00DDD1BDE8F08100BFB4DE032000F0ECB927
:1050BC002DE9F04F85B01E46BDF93830BDF83CA047
:1050CC0015469A1A002AB8BF52420092721A002A48
:1050DC00B8BF524201920C46009A01998A4281460D
:1050EC0005DD32461E46134622462C461546B44272
:1050FC0005DD2A461D4613462246344616465A1BE3
:10510C00002AB8BF5242C4EB06089D42B4BF01232B
:10511C004FF0FF331FFA88F8029303920FFA88F7C7
:10512C00022297FBF2F7B4421FDC019A009B9342D8
:10513C00D9F80030C8BF2246D3F810B0C8BF2946F2
:10514C005346DCBF2A4621464846D847039BFF1AE4
:10515C00BBB21FB2002F05DA029A08EB0307154405
:10516C002DB23FB2013424B2DDE705B0BDE8F08FBB
:10517C002DE9F347BDF82C600768BDF928A000960F
:10518C000446FF6991460D469846B8472368009639
:10519C000AF1FF324A44DF6929464346204612B2DF
:1051AC00B847236800969F694A46534629462046CD
:1051BC00B84723680A9608F1FF3129449D694A468D
:1051CC00534609B22046AC4602B0BDE8F0476047F2
:1051DC0037B5013B13440468BDF8185001951BB258
:1051EC00009364690B46A04703B030BD37B5BDF8DA
:1051FC00185004688DE82400013B0B4464691BB211
:10520C00A04703B030BD2DE9F347BDF92880BDF8A8
:10521C002C90054617460C4601EB030A54450BDA55
:10522C002B68CDF800909E69214643463A462846A5
:10523C000134B04724B2F1E702B0BDE8F08713B5F2
:10524C00B0F90E200468019100920022B0F90C30E4
:10525C00646A1146A04702B010BD704730B5018199
:10526C000024084D42818181C2814FF6FF710122D9
:10527C00446005604476048244820276C182818255
:10528C00827630BD106F0D002DE9F04F8FB00546C2
:10529C000691BDF860100791BDF864100891B0F943
:1052AC000C1006989DF8688081427CDDB5F90E10D3
:1052BC00914278DD062111FB0800002873DD02EB1A
:1052CC00C80000286FDD03EB830396B20C9306F144
:1052DC0008039BB2099100240D93052C1CBF334B82
:1052EC000C9A059616BF1B194FF0000913F8029083
:1052FC0004961FFA88F30393039ABDF8183004FB45
:10530C00023213FA84F312B21BB20A9237460FFA26
:10531C0088FA0B9319F0010F11D0B8F1010F2B681B
:10532C0003D1D3F810B0079B14E0079A0192CDF883
:10533C0000A0D3F824B0BDF91020534618E0079B09
:10534C00089A934217D0B8F1010F2B6807D1D3F804
:10535C0010B013463AB20B992846D8470BE0089A7E
:10536C000192CDF800A0BDF91420D3F824B0534617
:10537C000A992846D847049B039A13449BB204937A
:10538C00059B13449BB2013705930D9BBFB29F4203
:10539C004FEA5909BED1099B013B013413F0FF03BD
:1053AC0064B2099399D10FB0BDE8F08F406F0D0036
:1053BC0030B50A2985B004460B4604D1027E438AD7
:1053CC0003EBC20323E00D2924D0057EB0F9122093
:1053DC00B0F910100295C58A0195858A0095FFF7E2
:1053EC0053FF227E238A91B201EB410003EB400371
:1053FC00A07E1BB2238268B1B4F90C006FF00505D6
:10540C0005FB0202934205DD638A03EBC103638251
:10541C0000232382012005B030BD018242827047F7
:10542C00002908BF012101767047C1828182704733
:10543C008182C2827047407E704701F003010129CE
:10544C0041760389428904D0032902D08381C28129
:10545C0070478281C3817047B0F90C007047B0F976
:10546C000E00704700F010B808B5024B1B689B6823
:10547C00019308BD6802030008B5024B1B68DB688A
:10548C00019308BD6802030008B5024B1B681B683A
:10549C00019308BD2C02030008B5024B1B689B68E6
:1054AC00019308BD2C02030008B5024B1B68DB6896
:1054BC00019308BD2C02030008B5024B1B681B6945
:1054CC00019308BD2C02030008B5024B1B685B69F5
:1054DC00019308BD2C02030008B5024B1B681B6826
:1054EC00019308BD3002030008B5024B1B689B6892
:1054FC00019308BD3002030008B5024B1B68DB6842
:10550C00019308BD3002030008B5024B1B681B69F0
:10551C00019308BD3002030008B5024B1B685B69A0
:10552C00019308BD3002030008B5024B1B68DB6910
:10553C00019308BD3002030008B5024B1B681B6ABF
:10554C00019308BD3002030008B5024B1B685B6A6F
:10555C00019308BD3002030008B5024B1B68DB6BDE
:10556C00019308BD3002030008B5024B1B681B6C8D
:10557C00019308BD3002030008B5024B1B685B6C3D
:10558C00019308BD3002030008B5024B1B685B6831
:10559C00019308BD1802030008B5024B1B68DB68B9
:1055AC00019308BD1802030008B5024B1B685B6928
:1055BC00019308BD1802030008B5024B1B689B68D9
:1055CC00019308BD4802030008B5024B1B681B6918
:1055DC00019308BD4802030008B5024B1B685B69C8
:1055EC00019308BD4802030008B5024B1B685B6CB5
:1055FC00019308BD4802030008B5024B1B689B6C65
:10560C00019308BD4802030008B5024B1B685B6997
:10561C00019308BD6402030008B5024B1B681B68AC
:10562C00019308BD3C02030008B5024B1B68DB6804
:10563C00019308BD3C02030008B5024B1B681B69B3
:10564C00019308BD3C02030008B5024B1B685B6963
:10565C00019308BD3C02030008B5024B1B689B6913
:10566C00019308BD3C02030008B5024B1B68DB69C3
:10567C00019308BD3C02030008B5024B1B681B6A72
:10568C00019308BD3C02030008B5024B1B689B6AE2
:10569C00019308BD3C02030008B5024B1B68DB6894
:1056AC00019308BD2802030008B5024B1B689B69D7
:1056BC00019308BD2802030008B5024B1B68DB6987
:1056CC00019308BD2802030008B5024B1B681B6A36
:1056DC00019308BD2802030008B5024B1B685B6AE6
:1056EC00019308BD2802030008B5024B1B689B6A96
:1056FC00019308BD2802030008B5024B1B68DB6A46
:10570C00019308BD2802030008B5024B1B681B6BF4
:10571C00019308BD2802030008B5024B1B685B6BA4
:10572C00019308BD2802030008B5024B1B681B6CD3
:10573C00019308BD2802030008B5024B1B681B6DC2
:10574C00019308BD2802030008B5024B1B681B68B7
:10575C00019308BD4C02030008B5024B1B685B6843
:10576C00019308BD4C02030008B5024B1B681B6972
:10577C00019308BD4C02030008B5024B1B685B6922
:10578C00019308BD4C02030008B5024B1B689B69D2
:10579C00019308BD4C02030008B5024B1B68DB6982
:1057AC00019308BD4C02030008B5024B1B681B6A31
:1057BC00019308BD4C02030008B5024B1B685B6BE0
:1057CC00019308BD6002030008B5024B1B685B68BF
:1057DC00019308BD2002030008B5024B1B685B69EE
:1057EC00019308BD2002030008B5034B1B68D3F8D6
:1057FC008830019308BD00002002030008B5034B5C
:10580C001B68D3F89430019308BD000020020300FC
:10581C0008B5024B1B685B68019308BD400203008E
:10582C0008B5024B1B689B68019308BD400203003E
:10583C0008B5024B1B68DB68019308BD40020300EE
:10584C0008B5024B1B681B69019308BD400203009D
:10585C0008B5024B1B685B69019308BD400203004D
:10586C0008B5024B1B689B69019308BD40020300FD
:10587C0008B5024B1B68DB69019308BD40020300AD
:10588C0008B5024B1B681B6A019308BD400203005C
:10589C0008B5024B1B681B6B019308BD400203004B
:1058AC0008B5024B1B685B6B019308BD40020300FB
:1058BC0008B5024B1B68DB6B019308BD4402030067
:1058CC0008B5024B1B681B68019308BD1C02030042
:1058DC0008B5024B1B685B68019308BD1C020300F2
:1058EC0008B5024B1B689B68019308BD1C020300A2
:1058FC0008B5024B1B685B6A019308BD1C020300D0
:10590C00002211464068FFF7BBBF002211464068D9
:10591C00FFF7C6BF00224068FFF7BABF002281F034
:10592C0001014068FFF7A4BF00231A4619464068DE
:10593C00FFF796BF00231A4619464068FFF788BF49
:10594C00002211464068FFF77BBF002211464068D9
:10595C00FFF766BF002202214068FFF769BF0023F2
:10596C001A464068FFF754BF024B03225A60024AA2
:10597C001A607047DCE3032044740D000021FFF72C
:10598C00F3BD0021FFF7F8BD10B5044601700846C1
:10599C00FFF7CAFD00236360204610BD10B5044616
:1059AC000078FFF7EBFF48B920784FF6FF71FFF74F
:1059BC0093FD2078BDE81040FFF7E3BF10BD38B56C
:1059CC00044600780D46FFF7D9FF40B920782946E8
:1059DC00FFF78AFD2078BDE83840FFF7D2BF38BD0D
:1059EC0038B5044600780D46FFF7C8FF40B920785B
:1059FC002946FFF781FD2078BDE83840FFF7C1BF8D
:105A0C0038BD0078FFF7BDBF400830B518600024E2
:105A1C0018688842E5B206D90134082C02D0400837
:105A2C001860F5E70725024B5B5D137030BD00BFB6
:105A3C0070740D002DE9F04307468FB000780E46C8
:105A4C00FFF79CFF002862DB3C781422002109A898
:105A5C0001F0A5F80B232046002209A9ADF824304B
:105A6C00FFF772FD9DF82D4054B19DF82C5035B9BF
:105A7C00DDF830809DF834909DF8354003E000242B
:105A8C00A146A0460125337905B1BBB99D420BD186
:105A9C00B268424508D18DF820908DF82140BDF8B0
:105AAC002010B289914209D053B100243878019466
:105ABC000094234622460121FFF74EFD002026E0EC
:105ACC008DF80F30B1680A9804AB0DF10F02FFF797
:105ADC009BFF317905B1B1B9A94208D000243878BF
:105AEC000194747B337B9DF80F200094E4E7B3683A
:105AFC004345F3D38DF820908DF82140BDF820203C
:105B0C00B3899A42EAD1049B4345E7D1D6E70FB05B
:105B1C00BDE8F0832DE9F04188B0002304460078FD
:105B2C0002930E461746FFF729FF054600BB94F873
:105B3C0000800146142203A801F031F80B232A46F9
:105B4C0003A94046ADF80C30FFF7FEFC02AB0DF19B
:105B5C00070207FB06F104988DF80750FFF754FF76
:105B6C0020789DF80710FFF7CFFC2078FFF709FF8E
:105B7C00029808B0BDE8F08138B5044600780D46AF
:105B8C00FFF7FCFEC8B9616871B10C4BC25CAA424C
:105B9C0002D001300828F9D10130C0B2C140012235
:105BAC002046FFF7B7FF03E029462078FFF7ACFC4F
:105BBC002078BDE83840FFF7E4BE38BD70740D00A6
:105BCC0008B50078FFF7A8FCC0B208BD0078FFF755
:105BDC00B3BC000010B5094C00204FF6FF732060D9
:105BEC00A080A07120816381FFF7EEFD2046044A5E
:105BFC000449BDE8104000F04FBE00BFE4E30320B1
:105C0C001CE30320C7400D0010B504460068FFF7E5
:105C1C005FFE204610BD10B50446006808B1FFF7C2
:105C2C0057FE00232360A360636010BD38B50446A3
:105C3C000D4600680131FFF753FE10B184E82100D6
:105C4C00012038BD10B50368044613B143688B427C
:105C5C0007D22046FFF7EAFF20B1A3680BB92268F0
:105C6C001370012010BD70B50E4611460446154642
:105C7C00FFF7E8FF18B92046FFF7CDFF09E02A46E9
:105C8C003146A560206800F07FFF2268A3680021E0
:105C9C00D154204670BD38B50023044603604360E0
:105CAC00836003730D4639B1084600F0A9FF2946FD
:105CBC0002462046FFF7D7FF204638BD10B50446F4
:105CCC00006808B1FFF798FC204610BD10B5064CD3
:105CDC00002320462360FFF787FC2046034A044933
:105CEC00BDE8104000F0D8BDF0E303201CE3032016
:105CFC00C95C0D00F8B506460D468F180024BD4250
:105D0C000CD0336815F8011B9B6830469847002867
:105D1C0001DB0444F3E7002C08BF04462046F8BD21
:105D2C0070B505460C46084649B100F069FF2B6872
:105D3C00024621462846DB68BDE87040184770BD16
:105D4C0008B5FFF7EDFF08BD03689B68184738B529
:105D5C000D210546FFF7F8FF0A2104462846FFF7F8
:105D6C00F3FF204438BD38B50546FFF7D9FF04468C
:105D7C002846FFF7ECFF204438BDFFF7F4BF30B5E1
:105D8C008BB00B4600218DF82410012A98BF0A22F3
:105D9C000DF12304B3FBF2F505FB123303F0FF0303
:105DAC00092B94BF30333733DBB2214604F8013969
:105DBC002B46002DEED1FFF7B3FF0BB030BD0CB46A
:105DCC002DE9F04387B000AF07F13804054654F8CD
:105DDC00049B3C600E4623464A461421381DFFF7AF
:105DEC0087FD132805D8391D2846FFF799FF04466F
:105DFC0013E000F1080323F00703E846ADEB030DB5
:105E0C00411C23464A4668463C60FFF771FD6946D3
:105E1C002846FFF785FF0446C5461EB12846FFF706
:105E2C0096FF044420461C37BD46BDE8F04302B043
:105E3C0070470000014B024A1A607047F4E30320DC
:105E4C00EB740D00024B1A68024B1A60704700BFCE
:105E5C00B4E20320F8E303200021FFF7BDBC10B52A
:105E6C008368044613B1032201469847204610BDAF
:105E7C0010B50446FFF7F3FF204610BD0348044A53
:105E8C0004490023836000F007BD00BFFCE303203E
:105E9C001CE303207D5E0D0008B50C4B33B100F004
:105EAC0057F903681B699847002809DC084B63B154
:105EBC0000F0D0F903681B699847002803DC08BD83
:105ECC00AFF30080F2E7AFF3008008BD00000000E4
:105EDC000000000008B5FFF7DFFFFFF765FB014B83
:105EEC00186008BD30E703200248034A0349121A20
:105EFC0000F04ABE00F4032004F4032070770D0078
:105F0C0007B5002300931A466FF07701FFF776FC74
:105F1C0003B05DF804FB000007B543880A2B08D0DA
:105F2C00502B09D1094B1B683BB103B05DF804EB56
:105F3C001847FFF7E5FF06E0002300931A466FF0C1
:105F4C007701FFF75BFC03B05DF804FB0CE4032066
:105F5C0038B5104C104D2368AB42104B0CBF0122CE
:105F6C0000221A7002D0FFF7BFFF2560FFF70CFB71
:105F7C00044600F01DFE0A4B13B12046AFF300801F
:105F8C0000210748FFF794FC00210648BDE8384083
:105F9C00FFF72ABC00F403201E1C279A10E40320F0
:105FAC0000000000255F0D00704710B51821044655
:105FBC0000F080FC204610BDF0B5037D062B8DB0A3
:105FCC000E4600F104074FF0000402D000F1080562
:105FDC0018E00CAD394605F8304D2F232A460A201F
:105FEC00FFF712FB284600F00BFE33680246DB6815
:105FFC002946304698470FE024B12E213046FFF752
:10600C00A3FE044415F8011D0A223046FFF7B7FE23
:10601C00BD420444F0D120460DB0F0BD10B5054B87
:10602C000446112240F8043B002100F0B8FD204644
:10603C0010BD00BF8C750D000346074A10B543F820
:10604C00042B01F1100251F8044B43F8044B91421C
:10605C00F9D10A781A7010BD8C750D0010B59DF829
:10606C00084044EA032343EA024242EA0161042362
:10607C004160037510BD37B50D788B784A78C978B7
:10608C0000912946FFF7EAFF03B030BD4174704719
:10609C00704708B50021007CFFF776FB30EA200042
:1060AC0028BF4FF0FF3008BD08B50121007CFFF779
:1060BC006BFB30EA200028BF4FF0FF3008BD08B55D
:1060CC00007CFFF759FB20EAE07008BD08B5007CA6
:1060DC00FFF74AFB20EAE07008BD007CFFF764BBC9
:1060EC0010B51421044600F0E5FB204610BD38B570
:1060FC000446007C0D46FFF73FFB002801DC607C6A
:10610C0028B12946207CFFF747FB20EAE07038BD18
:10611C0010B50446002363604FF47A73A360054BFB
:10612C00236001230846217463741146FFF70CFBAE
:10613C00204610BDA0750D000022007CFFF70CBBA3
:10614C0010B514220446002100F029FD204610BD94
:10615C0030B50E4D87B001A8FFF7F2FF296811F09A
:10616C00010410D12846FDF79FFF60B101AA21461A
:10617C000748FFF7CDFF2846FDF79BFF054A064968
:10618C00034800F089FB024807B030BD14E403203B
:10619C0018E403201CE303209D600D00704741743C
:1061AC00704708B5007CFFF76FFA20EAE07008BD75
:1061BC0008B5007CFFF740FA20EAE07008BD08B58E
:1061CC00007CFFF749FA30EA200028BF4FF0FF307F
:1061DC0008BD08B5007CFFF737FA30EA200028BF6D
:1061EC004FF0FF3008BD007CFFF73EBA10B514210C
:1061FC00044600F05FFB204610BD70B5457C04469C
:10620C000E4625B9007CFFF73FFA002805DD314624
:10621C00207CBDE87040FFF707BA284670BD00002F
:10622C0010B5044608461146002262604FF47A729B
:10623C00A260054A22600122207462741A46FFF79C
:10624C00EBF9204610BD00BFD0750D00007CFFF7A8
:10625C0013BA000038B50C4D296811F0010411D1A6
:10626C002846FDF721FF68B1084A094B0948214629
:10627C00FFF7D6FF2846FDF71CFF074A07490548DC
:10628C0000F00AFB034838BDC4E40320C8E4032033
:10629C0040E403202CE403201CE30320A9610D003F
:1062AC007047F8B5064615460C468F18BC4206D00A
:1062BC00336814F8011B9B6830469847F6E728466C
:1062CC00F8BD0022007CFFF7FFB90021007CFFF72E
:1062DC0003BA0021007CFFF707BA0021007CFFF70E
:1062EC000BBA0021007CFFF70FBA10B5142104463D
:1062FC0000F0E0FA204610BD10B5044600236360A0
:10630C004FF47A73A360044B217408462360114642
:10631C00FFF70AFA204610BD00760D0000231A463E
:10632C001946007CFFF7B8B970B50C4686B0142539
:10633C0006462A46002101A800F031FC23788DF88E
:10634C00083063680393E36804930022237A307C5B
:10635C00ADF8045001A90593FFF7EEF906B070BD36
:10636C001FB500338DF800104FF06401039118BF76
:10637C000123694601928DF80830FFF7D5FF05B06F
:10638C005DF804FB0123FFF7EBBF0022007CFFF755
:10639C008BB9C9B2FFF7F9BF0022007CFFF78CB9AB
:1063AC000121FFF7F9BF0021007CFFF7B5B90022EE
:1063BC0011464068FFF764BA002211464068FFF7A7
:1063CC006FBA00224068FFF763BA002281F0010126
:1063DC004068FFF74DBA00231A4601214068FFF7C9
:1063EC003FBA00231A4619464068FFF731BA00221B
:1063FC0011464068FFF724BA002211464068FFF7A7
:10640C000FBA002202214068FFF712BA00231A4685
:10641C004068FFF7FDB938B5054688B104684CB142
:10642C00A3681BB103222146204698471021204621
:10643C0000F040FA28461421BDE8384000F03ABA82
:10644C0038BD10B103685B681847704710B5036816
:10645C000446BBB15868FFF7AFF878B923685A7C8B
:10646C0012B95868FFF7B0F823685868FFF7B4F80A
:10647C0020680023236028B1FFF7CDFF206808B106
:10648C00FFF7C9FF204610BD38B50446D0F8C4014B
:10649C0008B1FDF7FCFDD4F8C00108B1FFF7ACF86A
:1064AC00D4F8BC5135B12846FFF7D0FF042128465B
:1064BC0000F000FA206808B1FFF7C3FF204638BD92
:1064CC0010B5044B044640F8083BFFF7DDFF2046AF
:1064DC0010BD00BF28760D0038B50E4C0E4B236056
:1064EC000025022304F5E4706360A560C4F8C45170
:1064FC00C4F8C851FFF778F8084BC4F8CC5184F8AD
:10650C00D05123602046064A0649BDE8384000F0C9
:10651C00C3B900BF4CE5032090760D0028760D0022
:10652C001CE30320CD640D00002211464068FFF7E8
:10653C0087B9002211464068FFF7A2B90022114624
:10654C004068FFF7ADB900224068FFF7A1B90022FF
:10655C0081F001014068FFF78BB900231A461946F8
:10656C004068FFF77DB900231A4619464068FFF7CB
:10657C006FB9002211464068FFF752B90022022180
:10658C004068FFF755B900231A464068FFF740B939
:10659C00024B04225A60024A1A60704720E703201B
:1065AC005C760D0000231A464068FFF731B90022D3
:1065BC0002214068FFF73CB9002211464068FFF702
:1065CC002FB9002211464068FFF73AB900231A464A
:1065DC0019464068FFF73CB900231A461946406833
:1065EC00FFF73EB9002281F001014068FFF740B986
:1065FC0000224068FFF74CB9002211464068FFF7B3
:10660C004FB9002211464068FFF73AB92DE9F04323
:10661C00002495B016460D460746FFF7FFFC2146B1
:10662C0020220CA8009400F0BAFA40230C932146C7
:10663C006B460CAA3046FEF71FFF0446002844D1D7
:10664C00024601216868FFF7FBF8022180462246CA
:10665C006868FFF7F5F8009E81462146002E34D07D
:10666C00002932D17368022B02D00A2B09D02AE000
:10667C00B8F1000F27D0716938460431FFF7FBFCE5
:10668C0020E0B9F1000F1ED07469112201A800F0AE
:10669C0086FA06238DF8143001AD04F10803183482
:1066AC00186859682A4603C20833A3421546F7D125
:1066BC0001A906A807ADFFF7BFFC0FCD3C1D0FC409
:1066CC002B6823700121F669C8E70098FEF7CCFE11
:1066DC00384615B0BDE8F083024B034A1A6000221D
:1066EC005A60704728E7032090760D0070B5184E5D
:1066FC00316811F0010504460AD13046FDF7D4FC8F
:10670C0030B129461348FFF73FF93046FDF7D1FC6D
:10671C001048FFF75BFA28B1A4F10B03022B01D848
:10672C00002070BD00F092F8FFF73DFE08B1012C7F
:10673C00F6D9FFF78FFDFFF789FD18B1A4F1090316
:10674C00012BEDD9232C8CBF0020012070BD00BF84
:10675C00D0E30320D4E30320232838B504460D46A8
:10676C000AD8FF2908D0FFF7C1FF28B129462046D7
:10677C00BDE83840FEF790BE38BD38B504460D462E
:10678C00FEF792FEFF2810D0062804D84D2323FADA
:10679C0000F0C30709D42046FFF7A8FF28B129460B
:1067AC002046BDE83840FEF787BE38BD10B504461C
:1067BC00FEF77AFE0438C0B2012808D92046FFF74C
:1067CC0095FF20B12046BDE81040FEF77DBE0020AD
:1067DC0010BD2DE9F04190461E46072407460D4694
:1067EC00B8F1000F04D1C4F1070146FA01F101E040
:1067FC0046FA04F101F001013846FFF7BEFF012112
:10680C002846FFF7BAFF00212846FFF7B6FF14F120
:10681C00FF34E5D2BDE8F08170B5044614252A4654
:10682C00094E002100F0BBF9258020253146A560DA
:10683C002561284600F040F831466060284600F09B
:10684C003BF8E060204670BDBC760D0030B50E4DB7
:10685C00296811F0010487B013D12846FDF724FCF8
:10686C0078B101A8FFF7D8FF01AA21460748FFF726
:10687C0043FD2846FDF71DFC054A0649034800F078
:10688C000BF8024807B030BD34E7032038E703208B
:10689C001CE30320AD620D000B460146184600F0C8
:1068AC0065B90000024B1868BFF35F8F704700BFDB
:1068BC004CE70320FDF7E9BB00F000B810B5002849
:1068CC0014BF044601242046FEF7FAFF20B9FFF757
:1068DC00E9FF08B18047F6E710BD0000184B1A68B5
:1068EC00D1075CBF01221A60164B1A68D2075CBF35
:1068FC0001221A60144B1A68D0075CBF01221A607F
:10690C00124B1A68D1075CBF01221A60104B1A682F
:10691C00D2075CBF01221A600E4B1A68D0075CBF0D
:10692C0001221A600C4B1A68D1075CBF01221A6055
:10693C000A4B1A68D2075CBF01221A60704700BF6D
:10694C006CE7032068E7032064E7032060E703207B
:10695C005CE7032058E7032054E7032050E70320AB
:10696C00244B1A68D0075CBF01221A60224B1A68AC
:10697C00D1075CBF01221A60204B1A68D2075CBF9A
:10698C0001221A601E4B1A68D0075CBF01221A60E4
:10699C001C4B1A68D1075CBF01221A601A4B1A688B
:1069AC00D2075CBF01221A60184B1A68D0075CBF73
:1069BC0001221A60164B1A68D1075CBF01221A60BB
:1069CC00144B1A68D2075CBF01221A60124B1A686A
:1069DC00D0075CBF01221A60104B1A68D1075CBF4C
:1069EC0001221A600E4B1A68D2075CBF01221A6092
:1069FC00704700BF9CE7032098E7032094E703202F
:106A0C0090E703208CE7032088E7032084E703202A
:106A1C0080E703207CE7032078E7032074E703205A
:106A2C0070E70320244B1A68D0075CBF01221A6060
:106A3C00224B1A68D1075CBF01221A60204B1A68DE
:106A4C00D2075CBF01221A601E4B1A68D0075CBFCC
:106A5C0001221A601C4B1A68D1075CBF01221A6014
:106A6C001A4B1A68D2075CBF01221A60184B1A68BD
:106A7C00D0075CBF01221A60164B1A68D1075CBFA5
:106A8C0001221A60144B1A68D2075CBF01221A60EB
:106A9C00124B1A68D0075CBF01221A60104B1A689F
:106AAC00D1075CBF01221A600E4B1A68D2075CBF7B
:106ABC0001221A60704700BFCCE70320C8E703200F
:106ACC00C4E70320C0E70320BCE70320B8E703209A
:106ADC00B4E70320B0E70320ACE70320A8E70320CA
:106AEC00A4E70320A0E70320184B1A68D1075CBF6A
:106AFC0001221A60164B1A68D2075CBF01221A6079
:106B0C00144B1A68D0075CBF01221A60124B1A682A
:106B1C00D1075CBF01221A60104B1A68D2075CBF08
:106B2C0001221A600E4B1A68D0075CBF01221A6052
:106B3C000C4B1A68D1075CBF01221A600A4B1A6809
:106B4C00D2075CBF01221A60704700BFECE703203C
:106B5C00E8E70320E4E70320E0E70320DCE7032079
:106B6C00D8E70320D4E70320D0E7032010B5054C69
:106B7C0013462CB10A4601460220AFF3008010BD2B
:106B8C00204610BD0000000010B5431E0A4491427F
:106B9C0004D011F8014B03F8014FF8E710BD024483
:106BAC000346934202D003F8011BFAE7704700003A
:106BBC0038B5124B1C68A36B0546D3B91820FEF7E9
:106BCC007FFE43F20E33A06303804AF6CD3343803D
:106BDC0041F2342383804EF26D63C3804DF6EC6337
:106BEC000381052343810B23838101220023C0E908
:106BFC000423A36B00221D615A6138BD18E30320E6
:106C0C00034613F8012B002AFBD1181A01387047E0
:106C1C001D400D0059400D0085400D0089400D00B0
:106C2C0000000000425554544F4E0A0020202020F2
:106C3C0020204D4F44450A0059454C4C4F570A00F3
:106C4C0020202020202000202020204D414E554186
:106C5C004C0A005245442020204155544F0A002034
:106C6C0020202020204F46460A0062746E4D616E33
:106C7C0075616C5374203E2025690A006D616E4D60
:106C8C006F6465204F20462046203E2025690A006F
:106C9C006D616E4D6F6465204F204E203E2025693E
:106CAC000A0050524F4752414D2041747469635F42
:106CBC0046616E5F436F6E74726F6C6C65720A0026
:106CCC00424D45323830207465737400436F756CD7
:106CDC0064206E6F742066696E6420612076616C2E
:106CEC00696420424D453238302073656E736F7283
:106CFC002C20636865636B20776972696E672C2042
:106D0C00616464726573732C2073656E736F72208B
:106D1C004944210053656E736F7249442077617347
:106D2C003A203078002020202020202020494420A8
:106D3C006F6620307846462070726F6261626C79A3
:106D4C00206D65616E7320612062616420616464F2
:106D5C00726573732C206120424D502031383020E5
:106D6C006F7220424D50203038350020202049448D
:106D7C00206F6620307835362D30783538207265A6
:106D8C0070726573656E7473206120424D502032B1
:106D9C0038302C0020202020202020204944206F37
:106DAC0066203078363020726570726573656E744B
:106DBC0073206120424D45203238302E0020202097
:106DCC0020202020204944206F6620307836312046
:106DDC00726570726573656E7473206120424D45E7
:106DEC00203638302E00424D453238302055702038
:106DFC00616E642052756E6E696E67004F4C45442F
:106E0C0020444953504C415920535749544348202E
:106E1C004552524F522D2D4D2041204E2055204190
:106E2C00204C20204D4F4445004F4C4544204449B4
:106E3C0053504C41592053574954434820455252C2
:106E4C004F522D2D4120552054204F204D4F44455D
:106E5C00002A2A4F50454E2041434345535320446A
:106E6C004F4F5220262057494E444F57532A2A0041
:106E7C00000000000000000041440D0064656661E4
:106E8C00756C7420004D5342004C5342003C5350DF
:106E9C004953657474696E67732064656661756CBB
:106EAC00743E003C53504953657474696E6773208B
:106EBC002573256C75202573204D4F444525643E64
:106ECC00000000000000000000000000C5400D00A4
:106EDC0075430D00BD530D00015D0D00B94C0D0047
:106EEC00BD500D00414B0D00CD490D007D510D00E5
:106EFC0013520D004B520D0067520D0000000000A4
:106F0C00000000000000000000000000BD530D0058
:106F1C00015D0D00A1400D00BD500D00DD510D00B7
:106F2C00F9510D007D510D0013520D004B520D0007
:106F3C0067520D0000000000003E5B4F5B3E3E6B55
:106F4C004F6B3E1C3E7C3E1C183C7E3C181C577DF7
:106F5C00571C1C5E7F5E1C00183C1800FFE7C3E743
:106F6C00FF0018241800FFE7DBE7FF30483A060E55
:106F7C002629792926407F050507407F05253F5A9C
:106F8C003CE73C5A7F3E1C1C08081C1C3E7F14220C
:106F9C007F22145F5F005F5F06097F017F006689B7
:106FAC00956A606060606094A2FFA29408047E04FD
:106FBC000810207E201008082A1C08081C2A080823
:106FCC001E101010100C1E0C1E0C30383E383006E3
:106FDC000E3E0E06000000000000005F00000007DF
:106FEC00000700147F147F14242A7F2A122313080D
:106FFC00646236495620500008070300001C2241E9
:10700C00000041221C002A1C7F1C2A08083E08088C
:10701C00008070300008080808080000606000203C
:10702C00100804023E5149453E00427F400072491F
:10703C004949462141494D331814127F10274545C3
:10704C0045393C4A494931412111090736494949D9
:10705C0036464949291E0000140000004034000047
:10706C0000081422411414141414004122140802B0
:10707C00015909063E415D594E7C1211127C7F4923
:10708C004949363E414141227F4141413E7F494978
:10709C0049417F090909013E414151737F080808A4
:1070AC007F00417F41002040413F017F0814224175
:1070BC007F404040407F021C027F7F0408107F3ECF
:1070CC004141413E7F090909063E4151215E7F093C
:1070DC00192946264949493203017F01033F4040A3
:1070EC00403F1F2040201F3F4038403F631408148E
:1070FC006303047804036159494D43007F414141C6
:10710C000204081020004141417F040201020440A6
:10711C0040404040000307080020545478407F282A
:10712C004444383844444428384444287F38545420
:10713C00541800087E090218A4A49C787F08040443
:10714C007800447D40002040403D007F10284400E2
:10715C0000417F40007C047804787C080404783873
:10716C0044444438FC1824241818242418FC7C08A3
:10717C00040408485454542404043F44243C404020
:10718C00207C1C2040201C3C4030403C44281028D3
:10719C00444C9090907C4464544C4400083641001C
:1071AC000000770000004136080002010204023C96
:1071BC002623263C1EA1A161123A4040207A385465
:1071CC0054555921555579412154547841215554E0
:1071DC00784020545579400C1E5272123955555531
:1071EC0059395454545939555454580000457C411C
:1071FC000002457D420001457C40F0292429F0F035
:10720C00282528F07C545545002054547C547C0A85
:10721C00097F4932494949323248484832324A4852
:10722C0048303A4141217A3A42402078009DA0A052
:10723C007D39444444393D4040403D3C24FF2424A6
:10724C00487E4943662B2FFC2F2BFF0929F620C0C3
:10725C00887E090320545479410000447D41304814
:10726C00484A32384040227A007A0A0A727D0D1957
:10727C00317D2629292F28262929292630484D40B9
:10728C0020380808080808080808382F10C8ACBAB5
:10729C002F102834FA00007B000008142A14222234
:1072AC00142A1408AA005500AAAA55AA55AA000027
:1072BC0000FF00101010FF00141414FF001010FF3A
:1072CC0000FF1010F010F0141414FC001414F7004C
:1072DC00FF0000FF00FF1414F404FC141417101F1B
:1072EC0010101F101F1414141F00101010F00000A9
:1072FC0000001F101010101F10101010F0100000C4
:10730C0000FF101010101010101010FF10000000D3
:10731C00FF140000FF00FF00001F10170000FC040A
:10732C00F414141710171414F404F40000FF00F7ED
:10733C0014141414141414F700F714141417141050
:10734C00101F101F141414F4141010F010F000007F
:10735C001F101F0000001F14000000FC140000F0A0
:10736C0010F01010FF10FF141414FF141010101F45
:10737C0000000000F010FFFFFFFFFFF0F0F0F0F056
:10738C00FFFFFF0000000000FFFF0F0F0F0F0F3873
:10739C00444438447C2A2A3E147E02020606027EAD
:1073AC00027E0263554941633844443C04407E20CC
:1073BC001E2006027E020299A5E7A5991C2A492ADD
:1073CC001C4C7201724C304A4D4D3030487848306C
:1073DC00BC625A463D3E494949007E0101017E2A64
:1073EC002A2A2A2A44445F444440514A4440404497
:1073FC004A51400000FF0103E080FF000008086BC9
:10740C006B083612362436060F090F0600001818C2
:10741C000000001010003040FF0101001F01011E90
:10742C0000191D1712003C3C3C3C00000000000001
:10743C0000000000000000006B590D0061590D00A8
:10744C0057590D004D590D0041590D0035590D007E
:10745C0029590D0021590D0017590D000D590D001A
:10746C0019660D0000081018202830386261756408
:10747C000053657269616C0053657269616C31000F
:10748C007479706500706172616D00636D64006980
:10749C006400686E64007374726D0066696C7400CD
:1074AC006C766C0061646448616E646C6572007229
:1074BC00656D6F766548616E646C657200656E759E
:1074CC006D48616E646C657273004A534F4E537411
:1074DC007265616D4C6F6748616E646C65720061BA
:1074EC00707000253031307520005D20002564005F
:1074FC002C200028293A2000205B00636F64652053
:10750C003D200025690064657461696C73203D2021
:10751C00000D0A0066006C6E00666E00636F646599
:10752C000064657461696C006E6F6E6500747261E5
:10753C00636500696E666F007761726E00657272CA
:10754C006F720070616E696300616C6C005A00258B
:10755C002B3033643A253032750025592D256D2D8D
:10756C0025645425483A254D3A2553257A006173F4
:10757C006374696D650000000000000000000000ED
:10758C00C55F0D00B55F0D00B75F0D00000000007A
:10759C00000000009D600D00ED600D00FB600D0013
:1075AC00015D0D00D9600D009F600D00B5600D00F0
:1075BC00E7600D00CB600D0099600D00000000002D
:1075CC0000000000A9610D00F9610D0007620D00BB
:1075DC00015D0D00BD610D00DF610D00CB610D0083
:1075EC00F3610D00AB610D00AF610D0000000000F8
:1075FC0000000000AD620D00F7620D00CF620D00BF
:10760C00AF620D00D7620D00DF620D00E7620D0066
:10761C00EF620D00000000000000000019640D0076
:10762C000F640D0005640D00FB630D00EF630D008E
:10763C00E3630D00D7630D00CF630D00C5630D0030
:10764C00BB630D0019660D00000000000000000077
:10765C0093650D0089650D007F650D0035650D0086
:10766C0073650D0067650D005B650D0053650D00BE
:10767C0049650D003F650D0019660D000000000006
:10768C0000000000B1650D00BB650D00C5650D0067
:10769C00CF650D00D9650D00E5650D00F1650D0098
:1076AC00FD650D0005660D000F660D0019660D00D9
:1076BC0000000000000000000000000000000000BE
:1076CC0000000000000000000000000000000000AE
:1076DC00000000000000000000000000000000009E
:1076EC00000000000000000000000000000000008E
:1076FC00000000000000000000000000000000007E
:10770C00000000000000000000000000000000006D
:10771C00000000004300000085430D00C7490D0028
:10772C00B9500D0071540D0075590D00E15B0D0041
:10773C00D95C0D00415E0D00515E0D00895E0D009F
:10774C00E5640D009D650D00E5660D00E9680D0012
:10775C006D690D00316A0D00F56A0D000000000026
:04776C000000000019
:047770000000000015
:10777400000103070F1F3F7F0080C0E0F0F8FCFE0C
:1077840000000000000000000000000000000000F5
:1077940000000000000000000000000000000000E5
:1077A40000000000000000000000000000000000D5
:1077B4000000000000000000000000000000008045
:1077C40080800000000000000000000000000000B5
:1077D400008080C0C0000000000000000000000025
:1077E4000000000000000000000000000000000095
:1077F4000000000000000000000000000000000085
:107804000000000000000000000000000000000074
:107814000000000080C0E0F0F8FCF8E00000000088
:1078240000000000000000000000000000808080D4
:10783400808000808000000000808080808000FFC5
:10784400FFFF000000008080808000008080000036
:1078540080FFFF80800080800080808080008080A6
:107864000000000000808000008C8E84000080F8FE
:10787400F8F8800000000000000000000000000094
:10788400F0F0F0F0F0F0F0F0F0F0F0F0E0E0C080B4
:1078940000E0FCFEFFFFFF7FFFFFFFFFFF00000093
:1078A4000000000000000000000000FEFFC701010E
:1078B400010183FFFF00007CFEC70101010183FF7A
:1078C400FFFF0038FEC78301010183C7FFFF0000EB
:1078D40001FFFF010100FFFF0701010100007FFF1D
:1078E40080000000FFFF7F0000FFFFFF000001FF9A
:1078F400FFFF010000000000000000000000000085
:10790400030F3F7F7FFFFFFFFFFFFFFFE7C7C78F27
:107914008F9FBFFFFFC3C0F0FFFFFFFFFFFCFCFC16
:10792400FCFCFCFCFCF8F8F0F0E0C00001030303ED
:107934000303010303000000000103030303010127
:10794400030100000001030303030101030300001A
:107954000003030000000303000000000000000116
:1079640003030303030100000001030100000003FB
:1079740003010000000000000000000000000000FF
:1079840000000080C0E0F0F9FFFFFFFFFF3F1F0F82
:1079940087C7F7FFFF1F1F3DFCF8F8F8F87C7DFF51
:1079A400FFFFFFFFFFFFFF7F3F0F070030300000A6
:1079B40000000000000000000000000000000000C3
:1079C40000000000FEFEFC000000000000000000BB
:1079D40000000000000000000000000000E0C00003
:1079E4000000000000000000000030300000000033
:1079F4000000000000000000000000000000000083
:107A040000C0FEFFFFFFFFFFFFFFFFFF7F7F3F1F61
:107A14000F071F7FFFFFF8F8FFFFFFFFFFFEF8E0EF
:107A2400000000010000000000000000FEFE000055
:107A340000FCFEFC0C06060EFCF80000F0F81C0E20
:107A44000606060CFFFFFF0000FEFE00000000FC1F
:107A5400FEFC00183C7E66E6CE84000006FFFF06AE
:107A640006FCFEFC0C0606060000FEFE0000C0F844
:107A7400FC4E4646464E7C7840183C76E6CECC809A
:107A840000000000000000000000000000000000F2
:107A94000000000001070F1F1F3F3F3F3F1F0F0360
:107AA4000000000000000000000000000F0F0000B4
:107AB400000F0F0F000000000F0F000003070E0C53
:107AC40018180C060F0F0F0000010F0E0C180C0FE6
:107AD400070100040E0C180C0F070000000F0F0024
:107AE400000F0F0F0000000000000F0F0000000740
:107AF400070C0C181C0C060600040E0C180C0F07BF
:107B04000000000000000000000000000000000071
:107B14000000000000000000000000000000000061
:107B24000000000000000000000000000000000051
:107B34000000000000000000000000000000000041
:107B44000000000000000000000000000000000031
:107B54000000000000000000000000000000000021
:107B64000000000000000000000000000000000011
:107B74000000000000000000000000000000000001
:107B84007A750D0000000000C0760D00E0760D004F
:107B940000770D000000000000000000000000005D
:107BA4000000000020770D0000000000000000002D
:107BB40000000000000000000000000000000000C1
:107BC40000000000000000000000000000000000B1
:107BD40000000000000000000000000000000000A1
:087BE40000000000B8E20320DC
:107BEC00FFFFFFFF00000102030405060708090A56
:107BFC000B0C0D0E0F101112131415161718191A51
:087C0C001B1C1D1E1F20280097
:047C14007856341258
:04000003D000401CCD
:00000001FF
