:02000002D0002C
:1040000000400D00148A0D00000006000C000501A0
:084010000401E80500000000B6
:0440180064790D00BA
:1040200009480A49884208B505D0094A824202D0A7
:10403000121A03F053FC0748074A0021121A03F032
:1040400058FC014808BD00BF78DE032074850D00D0
:10405000F0E20320F0E20320F0E7032070B502F065
:1040600007FA074C074BE41AA40800251E46A54290
:1040700004D056F8253098470135F8E770BD00BFE9
:1040800070850D002C850D0000F0CAB808B500F051
:1040900099FABDE8084002F0ADB901F0A9BE01F0FF
:1040A000A7BE000008B5034A00210C2001F014FE51
:1040B000FEE700BFB95A0D000078B0FA80F0400961
:1040C0007047012303707047704710B504460068BD
:1040D00008B101F08DFE204610BD000070B5054608
:1040E00001F0F2FC094B0A4C186000232360094BD5
:1040F000284418601D46264622682B689A4203D23F
:1041000001F0E2FC3060F7E770BD00BF54E303202C
:10411000F8E2032068E303200A46002102F0DFB83A
:1041200010B50446324801F0B1F80121304801F0E1
:1041300007FC01212E4801F008FC002211462C4802
:1041400001F0FBFB03212A4801F007FC294928481C
:10415000FFF7E2FF28492648FFF7DEFF27492448FA
:10416000FFF7DAFFDCB1012C37D12146204801F0FE
:10417000ECFB23491E48FFF7CFFF22491C48FFF7FD
:10418000CBFF224600211A4801F0E2FB1E491848E5
:10419000FFF7C2FF2146164801F0D7FB18E00121C6
:1041A000134801F0D2FB19491148FFF7B5FF01226E
:1041B00021460F4801F0CCFB15490D48FFF7ACFF35
:1041C00001210B4801F0C1FB12490948FFF7A4FF88
:1041D00011490748FFF7A0FF04E0104B0448196895
:1041E00002F051F80248BDE8104001F071B900BF7B
:1041F00030E3032078790D0082790D008E790D006F
:10420000B7790D009A790D00A3790D0098790D000A
:10421000BD790D009F790D00AB790D0058E30320A7
:1042200010B502F025FA4FF4165102F015FA3C22AF
:104230000221314801F07AF82F4801F049F94FF492
:104240007A7002F099F802F013FA2C49FFF764FF34
:104250004FF47A7002F090F802F00AFA284902F05E
:104260001CF87621274800F02DFE274B187060BB04
:1042700002F0FEF9254902F006F802F0F9F92449A6
:1042800001F0EEFF02F0F4F904461E4800F0B0FA27
:1042900010220146204602F002F8204601F0E7FF16
:1042A00002F0E6F91B4901F0EEFF02F0E1F91A49CC
:1042B00001F0E9FF02F0DCF9184901F0E4FF02F037
:1042C000D7F9174901F0DFFFFEE702F0D1F91549F0
:1042D00001F0D9FF03210A2002F0CEFC03210B20BC
:1042E00002F0CAFC0720012102F0C6FC0020BDE854
:1042F0001040FFF715BF00BF30E30320C2790D0067
:10430000E0790D0074E303201CE30320EC790D0039
:10431000347A0D00457A0D008B7A0D00B47A0D00C9
:10432000DD7A0D00067B0D0037B5044610EE100A4D
:104330000D4603F00FF82A46CDE900010021204682
:1043400001F0CDFF03B030BD30B52F4C2F4D85B0FF
:104350000121204601F0F9FA204601F088FF2C499E
:104360002046FFF7D9FE2B492046FFF7D5FE24A3B0
:10437000D3E90023CDE90223274B0022CDE9002316
:104380000021264A204601F0AAFF25492046FFF7D2
:10439000C3FE01222046002101F0DAFA214B224916
:1043A00093ED000A2046FFF7BFFF2046012101F0F0
:1043B000CCFA1E492046FFF7AFFE0122204600211D
:1043C00001F0C6FA1A4B1B4993ED000A2046FFF78D
:1043D000ABFF2046012101F0B8FA2968204601F020
:1043E00052FF154B2046196801F04DFF2968204601
:1043F00005B0BDE8304001F046BF00BFAFF300801C
:104400000000000000C0584030E3032020E30320F8
:104410001C7B0D00277B0D0000805140327B0D007E
:10442000427B0D00B8E303204B7B0D009B790D0010
:1044300070E303203B7B0D00C0E3032010B504466E
:10444000294800F023FF0121274801F079FA0121D2
:10445000254801F07AFA00221146234801F06DFA4E
:104460000321214801F079FA20491F48FFF754FE43
:104470001F491D48FFF750FE9CB1012C29D122464F
:104480000021194801F064FA1A491748FFF744FE61
:104490002146154801F059FA17491348FFF73CFE29
:1044A00010E014491048FFF737FE012221460E485C
:1044B00001F04EFA10490C48FFF72EFE01210A4880
:1044C00001F043FA0D490848FFF726FEFFF73CFFCD
:1044D00004E00B4B0448196801F0D5FE0248BDE822
:1044E000104000F0F5BF00BF30E3032078790D00E5
:1044F00082790D00527B0D00BC790D008E790D0084
:10450000FCE203200000000038B52548254D264C6C
:1045100000F03CFA10EE100A02F01CFF1EA3D3E9D3
:10452000002302F06BFF214B002202F0B5FD03F0E7
:1045300077F928601A4800F0C1FA84ED000A02F009
:1045400097F895ED000A1A49FFF7EEFE02F090F891
:1045500094ED000A1749FFF7E7FE95ED007ADFEDCD
:10456000167A164BB4EEE77AF1EE10FA08DA94ED0B
:10457000007ADFED137AB4EEE77AF1EE10FA01DBA0
:10458000012100E0002119700720BDE8384002F049
:1045900084BB00BFAFF30080CDCCCCCCCCCCFC3FF7
:1045A00074E30320B8E3032070E3032000004040DD
:1045B000587B0D00767B0D0000008C42F4E2032056
:1045C0000000C64270B50A2002F080FB2D4C2E4D33
:1045D000003018BF012020700B2002F077FB2B4B1E
:1045E0002278003018BF012018701C4652B128787C
:1045F00080F001002870FFF793FD297821B907208A
:1046000002F04BFB2B781BB10121072002F045FB88
:1046100023781F4C13B3237883F00103237002F037
:1046200027F823781B4A002101F059FE2578BDB9EF
:10463000194E2846FFF702FF33787BB102F018F8D5
:104640002378164A294601F04AFE0720294635708C
:1046500002F023FB42F21070FFF740FD23785BB1BC
:1046600002F006F823780E4A002101F038FEFFF729
:104670004BFF2078FFF7E2FE4FF47A70BDE8704000
:10468000FFF72CBD6CE303200CE30320BCE3032005
:104690000DE30320917B0D00F4E20320A17B0D00CC
:1046A000C37B0D0010B52421044602F093FB204685
:1046B00010BD000070B5264E264D274C01F074F950
:1046C0002649304601F077FD3046254E2A462146E0
:1046D00002F072FB2349304601F06DFD3046224E58
:1046E0002A46214602F068FB2049304601F063FD6E
:1046F00030461F4E2A46214602F05EFB1D493046D9
:1047000001F059FD21461C4C2A46304602F054FB6C
:104710000421204600F0A4FD2A461849204602F054
:104720004BFB174C174800F05DF800232360A38073
:10473000A37123814FF6FF736381022001F0D4FA45
:104740002A4620461049BDE8704002F035BB00BF44
:1047500058E30320F0E2032029610D00FE7B0D00E9
:10476000FCE20320307C0D00C0E303205D7C0D00E3
:1047700020E303207B7C0D0030E30320C9400D00C3
:1047800010E3032074E30320CB400D007FB5024605
:1047900008461379956833B13DB90C4904B0BDE8BA
:1047A000704001F05DBD0A4B00E00A4B167B0A4CDD
:1047B0000A49527B0292012E08BF214601910095C1
:1047C000074A002101F08BFD04B070BDA57C0D00EF
:1047D0002B830D00947C0D009D7C0D00A17C0D00B1
:1047E000BB7C0D00FF22027442748274C274704755
:1047F0008068704738B5094D296811F001040AD165
:104800002846FFF759FC30B12146054801F04CFB22
:104810002846FFF756FC024838BD00BFD0E303200E
:10482000D4E303202DE9F04190F91330013305461C
:104830000F4606D1FFF7DEFF3946BDE8F04101F033
:104840004FBC072600244FF0010895F91300002102
:1048500080B202F022FA95F9110008FA06F1394007
:1048600080B202F01AFA95F91300012180B202F029
:1048700014FA95F91200640080B2E4B202F026FA4C
:1048800008B144F0010416F1FF36DED22046BDE83F
:10489000F08108B5FFF7AEFFBDE8084001F041BB6D
:1048A00010B50446FFF7A6FF2146BDE8104001F011
:1048B00051BB000030B590F91030013385B004468B
:1048C0000D4621D10179006801F0EFFF20680368EF
:1048D00029469B689847206801F0F2FF032221795E
:1048E000206801F0DFFF206803685B6998470502D4
:1048F000206803685B6998472843050220680368BD
:104900005B699847054339E090F9133001330ED1C4
:104910001C4B1D4A009302920023012268468DF829
:1049200004308DF80C208DF80D30FFF7B9FF94F9A5
:104930001000002180B202F0B0F945F0800120465D
:10494000FFF770FF00212046FFF76CFF00210502F2
:104950002046FFF767FF2843050200212046FFF7A6
:1049600061FF054394F91000012180B202F095F92E
:1049700094F91330013301D1FFF78BFF284605B0BE
:1049800030BD00BF907C0D0020A1070010B5FA21BA
:104990000446FFF78FFFB0F5000F1ED0A28A9FEDEF
:1049A000107AC2EB20235200C2EBE010B4F91620BB
:1049B0005B435043B4F918201B1353439B1303EB81
:1049C000E020E06000EB80008030001207EE900AEB
:1049D000F8EEE77A87EE870A10BD9FED020A10BD58
:1049E0000000C8420000C07F30B590F9103001339C
:1049F00085B004460D461DD10179006801F055FFD0
:104A00002068036829469B689847206801F058FF92
:104A100002222179206801F045FF206803685B6964
:104A200098470546206803685B69984740EA052077
:104A300085B235E090F9133001330ED11A4B1B4A81
:104A4000009302920023012268468DF804308DF80D
:104A50000C208DF80D30FFF723FF94F91000002192
:104A600080B202F01AF945F080012046FFF7DAFE25
:104A700000212046FFF7D6FE002105462046FFF71D
:104A8000D1FE40EA052085B294F91000012180B2E0
:104A900002F003F994F91330013301D1FFF7F9FE65
:104AA000284605B030BD00BF907C0D0020A1070056
:104AB00008B5FFF799FF40BA80B208BD10B50446AB
:104AC000FFF764FFFD212046FFF78EFFB0F5004F92
:104AD00038D0B4F93230E268B4F934101B05A2F5CD
:104AE0009632C3EB803302FB113303F58043D913B5
:104AF00094F8303094F936005343DB12424392125B
:104B000003F5004353439B12B4F92E2003F5001321
:104B1000534303F500539B134B43DA1394F82C10C3
:104B20005243D2114A43A3EB221323EAE373B3F1B6
:104B3000C85FA8BF4FF0C8531B1300EE103ABAEE7F
:104B4000CB0A10BD9FED010A10BD00BF0000C07F61
:104B500030B590F91030013385B004460D4616D1BA
:104B60000179006801F0A1FE2068036829469B686E
:104B70009847206801F0A4FE01222179206801F005
:104B800091FE206803685B699847C5B22EE090F9F2
:104B9000133001330ED1174B174A009302920023B2
:104BA000012268468DF804308DF80C208DF80D3008
:104BB000FFF776FE94F91000002180B202F06DF844
:104BC00045F080012046FFF72DFE00212046FFF72B
:104BD00029FE054694F91000012180B202F05DF82B
:104BE00094F91330013301D1FFF753FE284605B085
:104BF00030BD00BF907C0D0020A1070008B5F32157
:104C0000FFF7A6FF00F0010008BD38B58821044673
:104C1000FFF74EFF8A21A0822046FFF749FF8C2133
:104C2000E0822046FFF744FF8E2120832046FFF7D5
:104C30003FFF902160832046FFF73AFF9221A08337
:104C40002046FFF735FF9421E0832046FFF730FF31
:104C5000962120842046FFF72BFF98216084204670
:104C6000FFF726FF9A21A0842046FFF721FF9C2111
:104C7000E0842046FFF71CFF9E2120852046FFF799
:104C800017FFA12160852046FFF762FFE12184F82C
:104C90002C002046FFF70CFFE321E0852046FFF7BC
:104CA00057FFE42184F830002046FFF751FFE5214B
:104CB00005462046FFF74CFF00F00F0040EA0510C4
:104CC0006086E6212046FFF743FFE52105462046A2
:104CD000FFF73EFF001140EA0510A086E7212046BD
:104CE000FFF736FF84F8360038BD00007FB590F935
:104CF0001030013304460E46154611D10179006883
:104D000001F0D3FD2068036831469B68984720680E
:104D1000036829469B689847206801F0D1FD2DE083
:104D200090F9133001330ED1154B164A00930292BD
:104D30000023012268468DF804308DF80C208DF890
:104D40000D30FFF7ADFD94F91000002180B201F0A5
:104D5000A4FF06F07F012046FFF764FD29462046A8
:104D6000FFF760FD94F91000012180B201F095FF7A
:104D700094F91330013301D1FFF78BFD04B070BDFE
:104D8000907C0D0020A10700F8B590F83C509DF8EC
:104D900018609DF81CE09DF8207061F3871562F3A0
:104DA000020563F3C50590F8403080F83C5066F387
:104DB000471380F8403090F838306EF3C50304464E
:104DC00067F3020380F8383006F00702F221FFF79C
:104DD0008DFF94F83820C2F3C20302F007019B0054
:104DE00043EA411343EAD2122046F521FFF77EFF42
:104DF00094F83C20C2F3C20302F007019B0043EA8F
:104E0000411343EA92122046F421BDE8F840FFF72F
:104E10006DBF30B5044690F91000421C85B003D137
:104E2000206801F00BFD22E0012180B201F035FF86
:104E300094F91000012180B201F01EFF94F91300D3
:104E4000431C04D1FFF7D6FC01F038F80FE0012134
:104E500080B201F011FF94F91100012180B201F03C
:104E60000BFF94F91200002180B201F005FFD02160
:104E70002046FFF76DFE6028A06020D12046B622B4
:104E8000E021FFF733FF4FF4967001F075FA2046EA
:104E9000FFF7B4FE054608B16420F6E72046FFF7A9
:104EA000B4FE052300931A4603212046029501957E
:104EB000FFF76AFF642001F05FFA012000E00020A4
:104EC00005B030BD10B50171044601F04FFF206000
:104ED0002046BDE81040FFF79CBF00F065BD000014
:104EE000F0B5447EBDF81450022C08D0032C0FD02E
:104EF000012C70D10489013CA21A12B20CE0448941
:104F0000013CA21A0489E41A611A12B209B262E0E1
:104F10004489E41A611A09B2002A5BDBB0F908403F
:104F2000944240F390800029BEBF5B181BB2002161
:104F3000B0F90A00CC188442C4BF431A1BB2002B3C
:104F400040F38180C9B2C8083F4F02EBC01211F094
:104F50000701DBB207EB020417D0C1F10801C8B2A8
:104F60003A4983420E5C3FBFC3EB000EFF2141FA7A
:104F70000EF10E40B95C012D0CBF3143B1438342A9
:104F8000B95460D3181AC3B28034072B17D9012D36
:104F90000CBFFF20002004F180011A46083AD2B26B
:104FA000072A01F8800C01F18001F7D8A3F108026B
:104FB000C2F3C402013204EBC21403F00703002B56
:104FC00041D0234AD25C2378012D0CBF1343934375
:104FD0002370F0BDF0BD002A35DBB0F90A409442E1
:104FE00031DD0029BCBFC9180BB2B0F90870B8BFD9
:104FF0000021CE18BE42C4BF631A1BB2002B22DDB3
:10500000D01001EBC011104802F00702014401204A
:1050100000FA02F28542D2B209D1013B1BB25C1CFC
:1050200011D011F8010B104301F8010CF5E7D24340
:10503000D2B2013B1BB2581C05D011F8010B104035
:1050400001F8010CF5E7F0BD88DE032080DE0320C7
:1050500078DE0320F0B5447EBDF81450022C08D051
:10506000032C0FD0012C12D10489E41AA21A12B217
:105070006DE00489013C611A4489E41AA21A09B25C
:1050800012B204E04489013C611A09B25FE00029D0
:105090005CDBB0F908408C4240F39180002ABCBF31
:1050A000D21813B2B0F90A00B8BF0022D418844253
:1050B000C4BF831A1BB2002B40F38180D4B2404E90
:1050C000DAB2E30801EBC31114F0070406EB0103A5
:1050D00017D0C4F10804E0B23A4C8242275C3FBFCB
:1050E000C2EB000EFF2444FA0EF42740745C012D3D
:1050F0000CBF3C43BC438242745460D3101AC2B20A
:105100008033072A17D9012D0CBFFF24002403F197
:10511000800011460839C9B2072900F8804C00F117
:105120008000F7D8A2F10801C1F3C401013103EBFB
:10513000C11302F00702002A41D02349895C1A7882
:10514000012D0CBF0A438A431A70F0BDF0BD00293F
:1051500035DBB0F90A408C4231DD002ABCBFD218E1
:1051600013B2B0F90870B8BF0022D618BE42C4BF4F
:10517000A31A1BB2002B22DDC81002EBC01210488C
:1051800001F007011044012202FA01F19542C9B26F
:1051900009D15A1E13B25C1C11D010F8012B0A431E
:1051A00000F8012CF5E7C943C9B25A1E13B25A1CC4
:1051B00005D010F8012B0A4000F8012CF5E7F0BDEE
:1051C00088DE032080DE032078DE0320F8B50D1E84
:1051D000064614461F463FDB00F0CEFB85423BDA15
:1051E000002C39DB304600F0CAFB844234DA30460A
:1051F00000F0B1FB022827D13189708901390138CB
:10520000491B001B0DB204B206E0012804D133890A
:10521000013B1B1B2C461DB20820012F94FBF0F014
:1052200000B20E4B04F0070205EBC01104D1974009
:105230005A5C17435F54F8BD585C012707FA02F225
:1052400020EA02025A54F8BD0328DED17389013BDB
:105250005B1B25461CB2DFE7F8BD00BF88DE0320DC
:1052600038B5402204460D46802100F087FA064BEF
:105270002360FF23637784F82130E377A37784F8F2
:105280002050204638BD00BFE47C0D004FF4806202
:105290000021014802F02DBB88DE032038B590F9CB
:1052A0001D30013304460D4628D090F9210001211C
:1052B00080B201F0F2FC94F91F00002180B201F0ED
:1052C000ECFC94F92100002180B201F0E6FC94F896
:1052D00022302BB1FFF78EFA294600F001FF05E0DE
:1052E0002B460122A17F607F01F003FD94F921008C
:1052F000012180B2BDE8384001F0CFBC01F036FD9D
:1053000094F91B1001F0D5FA01F030FD036800217B
:105310009B68984701F02AFD036829469B689847D7
:1053200001F024FDBDE8384001F0CABA38B50446A2
:105330000D46217790F91D30C276013337D090F9B0
:105340001F00012180B201F097FC94F92100012196
:1053500080B201F091FC94F822305BB994F91D0001
:10536000012180B201F088FC94F91E00012180B275
:1053700001F082FC94F82230EBB194F92100012174
:1053800080B201F08AFCFFF735FA012100F0A7FD99
:10539000FFF730FA102100F07FFEFFF72BFA002113
:1053A00000F0AEFDFFF726FA00F088FD03E001F003
:1053B000DDFC01F043FA94F92000012180B201F0F4
:1053C0005BFC94F92000012180B201F066FC012011
:1053D00000F0D2FF94F92000002180B201F05DFCC2
:1053E0000A2000F0C9FF94F92000012180B201F0E9
:1053F00054FC2046AE21FFF751FF2046D521FFF790
:105400004DFF20468021FFF749FF2046A821FFF7E6
:1054100045FF20463F21FFF741FF2046D321FFF7FC
:105420003DFF20460021FFF739FF20464021FFF7CE
:1054300035FF8D212046FFF731FF012D0CBF1021D4
:1054400014212046FFF72AFF20462021FFF726FFE0
:1054500020460021FFF722FF2046A121FFF71EFF73
:105460002046C821FFF71AFF2046DA21FFF716FF72
:1054700020461221FFF712FF81212046FFF70EFF81
:10548000012D0CBF9F21CF212046FFF707FFD92117
:105490002046FFF703FF012D0CBF2221F1212046FA
:1054A000FFF7FCFE2046DB21FFF7F8FE20464021F7
:1054B000FFF7F4FE2046A421FFF7F0FE2046A621C8
:1054C000FFF7ECFE2046AF21BDE83840FFF7E6BE0F
:1054D0002DE9F04121210446FFF7E0FE002120469E
:1054E000FFF7DCFE7F212046FFF7D8FE2221204671
:1054F000FFF7D4FE00212046FFF7D0FE072120460B
:10550000FFF7CCFE94F91D30DFF8BC80013335D0B5
:1055100094F92100012180B201F0BFFB94F91F0032
:10552000012180B201F0B9FB94F92100002180B281
:1055300001F0B3FB012000F0BFFA002594F82230FF
:1055400018F805602BB1FFF755F9314600F0C8FD9A
:1055500005E033460122A17F607F01F0CAFB0135DF
:10556000B5F5806FEAD1012000F0A6FA94F9210088
:10557000012180B2BDE8F04101F08FBB002501F0B0
:10558000F5FB94F91B1001F094F901F0EFFB0368AF
:1055900040219B689847002601F0E8FBAF1903689B
:1055A000BFB29B6818F8071001369847102EF3D148
:1055B000103501F0DBFBADB201F082F9B5F5806F7B
:1055C000DDD1BDE8F08100BF88DE032000F0ECB93A
:1055D0002DE9F04F85B01E46BDF93830BDF83CA02E
:1055E00015469A1A002AB8BF52420092721A002A2F
:1055F000B8BF524201920C46009A01998A428146F4
:1056000005DD32461E46134622462C461546B44258
:1056100005DD2A461D4613462246344616465A1BC9
:10562000002AB8BF5242C4EB06089D42B4BF012312
:105630004FF0FF331FFA88F8029303920FFA88F7AE
:10564000022297FBF2F7B4421FDC019A009B9342BF
:10565000D9F80030C8BF2246D3F810B0C8BF2946D9
:105660005346DCBF2A4621464846D847039BFF1ACB
:10567000BBB21FB2002F05DA029A08EB03071544EC
:105680002DB23FB2013424B2DDE705B0BDE8F08FA2
:105690002DE9F347BDF82C600768BDF928A00096F6
:1056A0000446FF6991460D469846B8472368009620
:1056B0000AF1FF324A44DF6929464346204612B2C6
:1056C000B847236800969F694A46534629462046B4
:1056D000B84723680A9608F1FF3129449D694A4674
:1056E000534609B22046AC4602B0BDE8F0476047D9
:1056F00037B5013B13440468BDF8185001951BB23F
:10570000009364690B46A04703B030BD37B5BDF8C0
:10571000185004688DE82400013B0B4464691BB2F7
:10572000A04703B030BD2DE9F347BDF92880BDF88F
:105730002C90054617460C4601EB030A54450BDA3C
:105740002B68CDF800909E69214643463A4628468C
:105750000134B04724B2F1E702B0BDE8F08713B5D9
:10576000B0F90E200468019100920022B0F90C30CB
:10577000646A1146A04702B010BD704730B5018180
:105780000024084D42818181C2814FF6FF710122C0
:10579000446005604476048244820276C18281823C
:1057A000827630BD1C7D0D002DE9F04F8FB005468F
:1057B0000691BDF860100791BDF864100891B0F92A
:1057C0000C1006989DF8688081427CDDB5F90E10BA
:1057D000914278DD062111FB0800002873DD02EB01
:1057E000C80000286FDD03EB830396B20C9306F12B
:1057F00008039BB2099100240D93052C1CBF334B69
:105800000C9A059616BF1B194FF0000913F8029069
:1058100004961FFA88F30393039ABDF8183004FB2B
:10582000023213FA84F312B21BB20A9237460FFA0D
:1058300088FA0B9319F0010F11D0B8F1010F2B6802
:1058400003D1D3F810B0079B14E0079A0192CDF86A
:1058500000A0D3F824B0BDF91020534618E0079BF0
:10586000089A934217D0B8F1010F2B6807D1D3F8EB
:1058700010B013463AB20B992846D8470BE0089A65
:105880000192CDF800A0BDF91420D3F824B05346FE
:105890000A992846D847049B039A13449BB2049361
:1058A000059B13449BB2013705930D9BBFB29F42EA
:1058B0004FEA5909BED1099B013B013413F0FF03A4
:1058C00064B2099399D10FB0BDE8F08F4C7D0D0003
:1058D00030B50A2985B004460B4604D1027E438ABE
:1058E00003EBC20323E00D2924D0057EB0F912207A
:1058F000B0F910100295C58A0195858A0095FFF7C9
:1059000053FF227E238A91B201EB410003EB400357
:10591000A07E1BB2238268B1B4F90C006FF00505BC
:1059200005FB0202934205DD638A03EBC103638238
:1059300000232382012005B030BD018242827047DE
:10594000002908BF012101767047C182818270471A
:105950008182C2827047407E704701F003010129B5
:1059600041760389428904D0032902D08381C28110
:1059700070478281C3817047B0F90C007047B0F95D
:105980000E00704700F010B808B5024B1B689B680A
:10599000019308BD6802030008B5024B1B68DB6871
:1059A000019308BD6802030008B5024B1B681B6821
:1059B000019308BD2C02030008B5024B1B689B68CD
:1059C000019308BD2C02030008B5024B1B68DB687D
:1059D000019308BD2C02030008B5024B1B681B692C
:1059E000019308BD2C02030008B5024B1B685B69DC
:1059F000019308BD2C02030008B5024B1B681B680D
:105A0000019308BD3002030008B5024B1B689B6878
:105A1000019308BD3002030008B5024B1B68DB6828
:105A2000019308BD3002030008B5024B1B681B69D7
:105A3000019308BD3002030008B5024B1B685B6987
:105A4000019308BD3002030008B5024B1B68DB69F7
:105A5000019308BD3002030008B5024B1B681B6AA6
:105A6000019308BD3002030008B5024B1B685B6A56
:105A7000019308BD3002030008B5024B1B68DB6BC5
:105A8000019308BD3002030008B5024B1B681B6C74
:105A9000019308BD3002030008B5024B1B685B6C24
:105AA000019308BD3002030008B5024B1B685B6818
:105AB000019308BD1802030008B5024B1B68DB68A0
:105AC000019308BD1802030008B5024B1B685B690F
:105AD000019308BD1802030008B5024B1B689B68C0
:105AE000019308BD4802030008B5024B1B681B69FF
:105AF000019308BD4802030008B5024B1B685B69AF
:105B0000019308BD4802030008B5024B1B685B6C9B
:105B1000019308BD4802030008B5024B1B689B6C4B
:105B2000019308BD4802030008B5024B1B685B697E
:105B3000019308BD6402030008B5024B1B681B6893
:105B4000019308BD3C02030008B5024B1B68DB68EB
:105B5000019308BD3C02030008B5024B1B681B699A
:105B6000019308BD3C02030008B5024B1B685B694A
:105B7000019308BD3C02030008B5024B1B689B69FA
:105B8000019308BD3C02030008B5024B1B68DB69AA
:105B9000019308BD3C02030008B5024B1B681B6A59
:105BA000019308BD3C02030008B5024B1B689B6AC9
:105BB000019308BD3C02030008B5024B1B68DB687B
:105BC000019308BD2802030008B5024B1B689B69BE
:105BD000019308BD2802030008B5024B1B68DB696E
:105BE000019308BD2802030008B5024B1B681B6A1D
:105BF000019308BD2802030008B5024B1B685B6ACD
:105C0000019308BD2802030008B5024B1B689B6A7C
:105C1000019308BD2802030008B5024B1B68DB6A2C
:105C2000019308BD2802030008B5024B1B681B6BDB
:105C3000019308BD2802030008B5024B1B685B6B8B
:105C4000019308BD2802030008B5024B1B681B6CBA
:105C5000019308BD2802030008B5024B1B681B6DA9
:105C6000019308BD2802030008B5024B1B681B689E
:105C7000019308BD4C02030008B5024B1B685B682A
:105C8000019308BD4C02030008B5024B1B681B6959
:105C9000019308BD4C02030008B5024B1B685B6909
:105CA000019308BD4C02030008B5024B1B689B69B9
:105CB000019308BD4C02030008B5024B1B68DB6969
:105CC000019308BD4C02030008B5024B1B681B6A18
:105CD000019308BD4C02030008B5024B1B685B6BC7
:105CE000019308BD6002030008B5024B1B685B68A6
:105CF000019308BD2002030008B5024B1B685B69D5
:105D0000019308BD2002030008B5034B1B68D3F8BC
:105D10008830019308BD00002002030008B5034B42
:105D20001B68D3F89430019308BD000020020300E3
:105D300008B5024B1B685B68019308BD4002030075
:105D400008B5024B1B689B68019308BD4002030025
:105D500008B5024B1B68DB68019308BD40020300D5
:105D600008B5024B1B681B69019308BD4002030084
:105D700008B5024B1B685B69019308BD4002030034
:105D800008B5024B1B689B69019308BD40020300E4
:105D900008B5024B1B68DB69019308BD4002030094
:105DA00008B5024B1B681B6A019308BD4002030043
:105DB00008B5024B1B681B6B019308BD4002030032
:105DC00008B5024B1B685B6B019308BD40020300E2
:105DD00008B5024B1B68DB6B019308BD440203004E
:105DE00008B5024B1B681B68019308BD1C02030029
:105DF00008B5024B1B685B68019308BD1C020300D9
:105E000008B5024B1B689B68019308BD1C02030088
:105E100008B5024B1B685B6A019308BD1C020300B6
:105E2000002211464068FFF7BBBF002211464068C0
:105E3000FFF7C6BF00224068FFF7BABF002281F01B
:105E400001014068FFF7A4BF00231A4619464068C5
:105E5000FFF796BF00231A4619464068FFF788BF30
:105E6000002211464068FFF77BBF002211464068C0
:105E7000FFF766BF002202214068FFF769BF0023D9
:105E80001A464068FFF754BF024B03225A60024A89
:105E90001A607047DCE3032050820D000021FFF7F9
:105EA000F3BD0021FFF7F8BD10B5044601700846A8
:105EB000FFF7CAFD00236360204610BD10B50446FD
:105EC0000078FFF7EBFF48B920784FF6FF71FFF736
:105ED00093FD2078BDE81040FFF7E3BF10BD38B553
:105EE000044600780D46FFF7D9FF40B920782946CF
:105EF000FFF78AFD2078BDE83840FFF7D2BF38BDF4
:105F000038B5044600780D46FFF7C8FF40B9207841
:105F10002946FFF781FD2078BDE83840FFF7C1BF73
:105F200038BD0078FFF7BDBF400830B518600024C9
:105F300018688842E5B206D90134082C02D040081E
:105F40001860F5E70725024B5B5D137030BD00BF9D
:105F50007C820D002DE9F04307468FB000780E4695
:105F6000FFF79CFF002862DB3C781422002109A87F
:105F700001F0BFFC0B232046002209A9ADF8243014
:105F8000FFF772FD9DF82D4054B19DF82C5035B9A6
:105F9000DDF830809DF834909DF8354003E0002412
:105FA000A146A0460125337905B1BBB99D420BD16D
:105FB000B268424508D18DF820908DF82140BDF897
:105FC0002010B289914209D053B10024387801944D
:105FD0000094234622460121FFF74EFD002026E0D3
:105FE0008DF80F30B1680A9804AB0DF10F02FFF77E
:105FF0009BFF317905B1B1B9A94208D000243878A6
:106000000194747B337B9DF80F200094E4E7B36820
:106010004345F3D38DF820908DF82140BDF8202022
:10602000B3899A42EAD1049B4345E7D1D6E70FB042
:10603000BDE8F0832DE9F04188B0002304460078E4
:1060400002930E461746FFF729FF054600BB94F85A
:1060500000800146142203A801F04BFC0B232A46C2
:1060600003A94046ADF80C30FFF7FEFC02AB0DF182
:10607000070207FB06F104988DF80750FFF754FF5D
:1060800020789DF80710FFF7CFFC2078FFF709FF75
:10609000029808B0BDE8F08138B5044600780D4696
:1060A000FFF7FCFEC8B9616871B10C4BC25CAA4233
:1060B00002D001300828F9D10130C0B2C14001221C
:1060C0002046FFF7B7FF03E029462078FFF7ACFC36
:1060D0002078BDE83840FFF7E4BE38BD7C820D0073
:1060E00008B50078FFF7A8FCC0B208BD0078FFF73C
:1060F000B3BC000010B5094C00204FF6FF732060C0
:10610000A080A07120816381FFF7EEFD2046044A44
:106110000449BDE8104000F04FBE00BFE4E3032097
:10612000F0E20320CB400D0010B504460068FFF7F5
:106130005FFE204610BD10B50446006808B1FFF7A9
:1061400057FE00232360A360636010BD38B504468A
:106150000D4600680131FFF753FE10B184E82100BD
:10616000012038BD10B50368044613B143688B4263
:1061700007D22046FFF7EAFF20B1A3680BB92268D7
:106180001370012010BD70B50E4611460446154629
:10619000FFF7E8FF18B92046FFF7CDFF09E02A46D0
:1061A0003146A560206801F099FB2268A3680021B0
:1061B000D154204670BD38B50023044603604360C7
:1061C000836003730D4639B1084601F0C3FB2946CD
:1061D00002462046FFF7D7FF204638BD10B50446DB
:1061E000006808B1FFF798FC204610BD10B5064CBA
:1061F000002320462360FFF787FC2046034A04491A
:10620000BDE8104000F0D8BDF0E30320F0E2032029
:10621000DD610D00F8B506460D468F180024BD421D
:106220000CD0336815F8011B9B683046984700284E
:1062300001DB0444F3E7002C08BF04462046F8BD08
:1062400070B505460C46084649B101F083FB2B6842
:10625000024621462846DB68BDE87040184770BDFD
:1062600008B5FFF7EDFF08BD03689B68184738B510
:106270000D210546FFF7F8FF0A2104462846FFF7DF
:10628000F3FF204438BD38B50546FFF7D9FF044673
:106290002846FFF7ECFF204438BDFFF7F4BF30B5C8
:1062A0008BB00B4600218DF82410012A98BF0A22DA
:1062B0000DF12304B3FBF2F505FB123303F0FF03EA
:1062C000092B94BF30333733DBB2214604F8013950
:1062D0002B46002DEED1FFF7B3FF0BB030BD0CB451
:1062E0002DE9F04387B000AF07F13804054654F8B4
:1062F000049B3C600E4623464A461421381DFFF796
:1063000087FD132805D8391D2846FFF799FF044655
:1063100013E000F1080323F00703E846ADEB030D9B
:10632000411C23464A4668463C60FFF771FD6946BA
:106330002846FFF785FF0446C5461EB12846FFF7ED
:1063400096FF044420461C37BD46BDE8F04302B02A
:1063500070470000014B024A1A607047F4E30320C3
:10636000F7820D00024B1A68024B1A60704700BF9B
:1063700088E20320F8E303200021FFF7BDBC10B53D
:106380008368044613B1032201469847204610BD96
:1063900010B50446FFF7F3FF204610BD0348044A3A
:1063A00004490023836000F007BD00BFFCE3032025
:1063B000F0E2032091630D0008B50C4B33B100F0FF
:1063C00057F903681B699847002809DC084B63B13B
:1063D00000F0D0F903681B699847002803DC08BD6A
:1063E000AFF30080F2E7AFF3008008BD00000000CB
:1063F0000000000008B5FFF7DFFFFFF765FB014B6A
:10640000186008BD30E703200248034A0349121A06
:1064100001F064BA00F4032004F4032070850D0039
:1064200007B5002300931A466FF07701FFF776FC5B
:1064300003B05DF804FB000007B543880A2B08D0C1
:10644000502B09D1094B1B683BB103B05DF804EB3D
:106450001847FFF7E5FF06E0002300931A466FF0A8
:106460007701FFF75BFC03B05DF804FB0CE403204D
:1064700038B5104C104D2368AB42104B0CBF0122B5
:1064800000221A7002D0FFF7BFFF2560FFF70CFB58
:10649000044601F037FA0A4B13B12046AFF30080EF
:1064A00000210748FFF794FC00210648BDE838406A
:1064B000FFF72ABC00F403201E1C279A10E40320D7
:1064C0000000000039640D00704710B51821044623
:1064D00000F080FC204610BDF0B5037D062B8DB08A
:1064E0000E4600F104074FF0000402D000F1080549
:1064F00018E00CAD394605F8304D2F232A460A2006
:10650000FFF712FB284601F025FA33680246DB68E4
:106510002946304698470FE024B12E213046FFF738
:10652000A3FE044415F8011D0A223046FFF7B7FE0A
:10653000BD420444F0D120460DB0F0BD10B5054B6E
:106540000446112240F8043B002101F0D2F9204614
:1065500010BD00BF94830D000346074A10B543F8F1
:10656000042B01F1100251F8044B43F8044B914203
:10657000F9D10A781A7010BD94830D0010B59DF8FA
:10658000084044EA032343EA024242EA0161042349
:106590004160037510BD37B50D788B784A78C9789E
:1065A00000912946FFF7EAFF03B030BD4174704700
:1065B000704708B50021007CFFF776FB30EA200029
:1065C00028BF4FF0FF3008BD08B50121007CFFF760
:1065D0006BFB30EA200028BF4FF0FF3008BD08B544
:1065E000007CFFF759FB20EAE07008BD08B5007C8D
:1065F000FFF74AFB20EAE07008BD007CFFF764BBB0
:1066000010B51421044600F0E5FB204610BD38B556
:106610000446007C0D46FFF73FFB002801DC607C50
:1066200028B12946207CFFF747FB20EAE07038BDFF
:1066300010B50446002363604FF47A73A360054BE2
:10664000236001230846217463741146FFF70CFB95
:10665000204610BDA8830D000022007CFFF70CBB74
:1066600010B514220446002101F043F9204610BD64
:1066700030B50E4D87B001A8FFF7F2FF296811F081
:10668000010410D12846FDF717FD60B101AA21468B
:106690000748FFF7CDFF2846FDF713FD054A0649D9
:1066A000034800F089FB024807B030BD14E4032022
:1066B00018E40320F0E20320B1650D007047417437
:1066C000704708B5007CFFF76FFA20EAE07008BD5C
:1066D00008B5007CFFF740FA20EAE07008BD08B575
:1066E000007CFFF749FA30EA200028BF4FF0FF3066
:1066F00008BD08B5007CFFF737FA30EA200028BF54
:106700004FF0FF3008BD007CFFF73EBA10B51421F2
:10671000044600F05FFB204610BD70B5457C044682
:106720000E4625B9007CFFF73FFA002805DD31460B
:10673000207CBDE87040FFF707BA284670BD000016
:1067400010B5044608461146002262604FF47A7282
:10675000A260054A22600122207462741A46FFF783
:10676000EBF9204610BD00BFD8830D00007CFFF779
:1067700013BA000038B50C4D296811F0010411D18D
:106780002846FDF799FC68B1084A094B094821469B
:10679000FFF7D6FF2846FDF794FC074A074905484E
:1067A00000F00AFB034838BDC4E40320C8E403201A
:1067B00040E403202CE40320F0E20320BD660D003A
:1067C0007047F8B5064615460C468F18BC4206D0F1
:1067D000336814F8011B9B6830469847F6E7284653
:1067E000F8BD0022007CFFF7FFB90021007CFFF715
:1067F00003BA0021007CFFF707BA0021007CFFF7F5
:106800000BBA0021007CFFF70FBA10B51421044623
:1068100000F0E0FA204610BD10B504460023636086
:106820004FF47A73A360044B217408462360114629
:10683000FFF70AFA204610BD08840D0000231A460F
:106840001946007CFFF7B8B970B50C4686B0142520
:1068500006462A46002101A801F04BF823788DF85E
:10686000083063680393E36804930022237A307C42
:10687000ADF8045001A90593FFF7EEF906B070BD1D
:106880001FB500338DF800104FF06401039118BF5D
:106890000123694601928DF80830FFF7D5FF05B056
:1068A0005DF804FB0123FFF7EBBF0022007CFFF73C
:1068B0008BB9C9B2FFF7F9BF0022007CFFF78CB992
:1068C0000121FFF7F9BF0021007CFFF7B5B90022D5
:1068D00011464068FFF764BA002211464068FFF78E
:1068E0006FBA00224068FFF763BA002281F001010D
:1068F0004068FFF74DBA00231A4601214068FFF7B0
:106900003FBA00231A4619464068FFF731BA002201
:1069100011464068FFF724BA002211464068FFF78D
:106920000FBA002202214068FFF712BA00231A466C
:106930004068FFF7FDB938B5054688B104684CB129
:10694000A3681BB103222146204698471021204608
:1069500000F040FA28461421BDE8384000F03ABA69
:1069600038BD10B103685B681847704710B50368FD
:106970000446BBB15868FFF7AFF878B923685A7C72
:1069800012B95868FFF7B0F823685868FFF7B4F8F1
:1069900020680023236028B1FFF7CDFF206808B1ED
:1069A000FFF7C9FF204610BD38B50446D0F8C40132
:1069B00008B1FDF774FBD4F8C00108B1FFF7ACF8DB
:1069C000D4F8BC5135B12846FFF7D0FF0421284642
:1069D00000F000FA206808B1FFF7C3FF204638BD79
:1069E00010B5044B044640F8083BFFF7DDFF204696
:1069F00010BD00BF30840D0038B50E4C0E4B236027
:106A00000025022304F5E4706360A560C4F8C45156
:106A1000C4F8C851FFF778F8084BC4F8CC5184F893
:106A2000D05123602046064A0649BDE8384000F0B0
:106A3000C3B900BF4CE5032098840D0030840D00DD
:106A4000F0E20320E1690D00002211464068FFF7E3
:106A500087B9002211464068FFF7A2B9002211460B
:106A60004068FFF7ADB900224068FFF7A1B90022E6
:106A700081F001014068FFF78BB900231A461946DF
:106A80004068FFF77DB900231A4619464068FFF7B2
:106A90006FB9002211464068FFF752B90022022167
:106AA0004068FFF755B900231A464068FFF740B920
:106AB000024B04225A60024A1A60704720E7032002
:106AC00064840D0000231A464068FFF731B90022A4
:106AD00002214068FFF73CB9002211464068FFF7E9
:106AE0002FB9002211464068FFF73AB900231A4631
:106AF00019464068FFF73CB900231A46194640681A
:106B0000FFF73EB9002281F001014068FFF740B96C
:106B100000224068FFF74CB9002211464068FFF799
:106B20004FB9002211464068FFF73AB92DE9F0430A
:106B3000002495B016460D460746FFF7FFFC214698
:106B400020220CA8009400F0D4FE40230C93214690
:106B50006B460CAA3046FEF71FFF0446002844D1BE
:106B6000024601216868FFF7FBF8022180462246B1
:106B70006868FFF7F5F8009E81462146002E34D064
:106B8000002932D17368022B02D00A2B09D02AE0E7
:106B9000B8F1000F27D0716938460431FFF7FBFCCC
:106BA00020E0B9F1000F1ED07469112201A800F095
:106BB000A0FE06238DF8143001AD04F1080318344B
:106BC000186859682A4603C20833A3421546F7D10C
:106BD00001A906A807ADFFF7BFFC0FCD3C1D0FC4F0
:106BE0002B6823700121F669C8E70098FEF7CCFEF8
:106BF000384615B0BDE8F083024B034A1A60002204
:106C00005A60704728E7032098840D0070B5184E2D
:106C1000316811F0010504460AD13046FDF74CFAFF
:106C200030B129461348FFF73FF93046FDF749FADE
:106C30001048FFF75BFA28B1A4F10B03022B01D82F
:106C4000002070BD00F092F8FFF73DFE08B1012C66
:106C5000F6D9FFF78FFDFFF789FD18B1A4F10903FD
:106C6000012BEDD9232C8CBF0020012070BD00BF6B
:106C7000D0E30320D4E30320232838B504460D468F
:106C80000AD8FF2908D0FFF7C1FF28B129462046BE
:106C9000BDE83840FEF790BE38BD38B504460D4615
:106CA000FEF792FEFF2810D0062804D84D2323FAC1
:106CB00000F0C30709D42046FFF7A8FF28B12946F2
:106CC0002046BDE83840FEF787BE38BD10B5044603
:106CD000FEF77AFE0438C0B2012808D92046FFF733
:106CE00095FF20B12046BDE81040FEF77DBE002094
:106CF00010BD2DE9F04190461E46072407460D467B
:106D0000B8F1000F04D1C4F1070146FA01F101E026
:106D100046FA04F101F001013846FFF7BEFF0121F8
:106D20002846FFF7BAFF00212846FFF7B6FF14F107
:106D3000FF34E5D2BDE8F08170B5044614252A463B
:106D4000094E002100F0D5FD258020253146A560A3
:106D50002561284600F040F831466060284600F082
:106D60003BF8E060204670BDC4840D0030B50E4D88
:106D7000296811F0010487B013D12846FDF79CF96A
:106D800078B101A8FFF7D8FF01AA21460748FFF70D
:106D900043FD2846FDF795F9054A0649034800F0EA
:106DA0000BF8024807B030BD34E7032038E7032072
:106DB000F0E20320C1670D000B460146184600F0C3
:106DC0007FBD0000024B1868BFF35F8F704700BFA4
:106DD0004CE70320FDF761B900F000B810B50028BA
:106DE00014BF044601242046FEF7FAFF20B9FFF73E
:106DF000E9FF08B18047F6E710BD0000184B1A689C
:106E0000D1075CBF01221A60164B1A68D2075CBF1B
:106E100001221A60144B1A68D0075CBF01221A6065
:106E2000124B1A68D1075CBF01221A60104B1A6816
:106E3000D2075CBF01221A600E4B1A68D0075CBFF4
:106E400001221A600C4B1A68D1075CBF01221A603C
:106E50000A4B1A68D2075CBF01221A60704700BF54
:106E60006CE7032068E7032064E7032060E7032062
:106E70005CE7032058E7032054E7032050E7032092
:106E8000244B1A68D0075CBF01221A60224B1A6893
:106E9000D1075CBF01221A60204B1A68D2075CBF81
:106EA00001221A601E4B1A68D0075CBF01221A60CB
:106EB0001C4B1A68D1075CBF01221A601A4B1A6872
:106EC000D2075CBF01221A60184B1A68D0075CBF5A
:106ED00001221A60164B1A68D1075CBF01221A60A2
:106EE000144B1A68D2075CBF01221A60124B1A6851
:106EF000D0075CBF01221A60104B1A68D1075CBF33
:106F000001221A600E4B1A68D2075CBF01221A6078
:106F1000704700BF9CE7032098E7032094E7032015
:106F200090E703208CE7032088E7032084E7032011
:106F300080E703207CE7032078E7032074E7032041
:106F400070E70320244B1A68D0075CBF01221A6047
:106F5000224B1A68D1075CBF01221A60204B1A68C5
:106F6000D2075CBF01221A601E4B1A68D0075CBFB3
:106F700001221A601C4B1A68D1075CBF01221A60FB
:106F80001A4B1A68D2075CBF01221A60184B1A68A4
:106F9000D0075CBF01221A60164B1A68D1075CBF8C
:106FA00001221A60144B1A68D2075CBF01221A60D2
:106FB000124B1A68D0075CBF01221A60104B1A6886
:106FC000D1075CBF01221A600E4B1A68D2075CBF62
:106FD00001221A60704700BFCCE70320C8E70320F6
:106FE000C4E70320C0E70320BCE70320B8E7032081
:106FF000B4E70320B0E70320ACE70320A8E70320B1
:10700000A4E70320A0E70320184B1A68D1075CBF50
:1070100001221A60164B1A68D2075CBF01221A605F
:10702000144B1A68D0075CBF01221A60124B1A6811
:10703000D1075CBF01221A60104B1A68D2075CBFEF
:1070400001221A600E4B1A68D0075CBF01221A6039
:107050000C4B1A68D1075CBF01221A600A4B1A68F0
:10706000D2075CBF01221A60704700BFECE7032023
:10707000E8E70320E4E70320E0E70320DCE7032060
:10708000D8E70320D4E70320D0E7032081F00041B4
:1070900002E000BF83F0004330B54FEA41044FEAFD
:1070A000430594EA050F08BF90EA020F1FBF54EA98
:1070B000000C55EA020C7FEA645C7FEA655C00F034
:1070C000E2804FEA5454D4EB5555B8BF6D420CDD05
:1070D0002C4480EA020281EA030382EA000083EA88
:1070E000010180EA020281EA0303362D88BF30BD28
:1070F00011F0004F4FEA01314FF4801C4CEA11317E
:1071000002D0404261EB410113F0004F4FEA0333DC
:107110004CEA133302D0524263EB430394EA050F67
:1071200000F0A780A4F10104D5F1200E0DDB02FAD6
:107130000EFC22FA05F2801841F1000103FA0EF26A
:10714000801843FA05F359410EE0A5F120050EF130
:10715000200E012A03FA0EFC28BF4CF0020C43FA61
:1071600005F3C01851EBE37101F0004507D54FF06E
:10717000000EDCF1000C7EEB00006EEB0101B1F5BE
:10718000801F1BD3B1F5001F0CD349085FEA300004
:107190004FEA3C0C04F101044FEA445212F5800F0F
:1071A00080F09A80BCF1004F08BF5FEA500C50F1AC
:1071B000000041EB045141EA050130BD5FEA4C0C8F
:1071C000404141EB010111F4801FA4F10104E9D118
:1071D00091F0000F04BF01460020B1FA81F308BF0F
:1071E0002033A3F10B03B3F120020CDA0C3208DDDB
:1071F00002F1140CC2F10C0201FA0CF021FA02F1B6
:107200000CE002F11402D8BFC2F1200C01FA02F125
:1072100020FA0CFCDCBF41EA0C019040E41AA2BF4A
:1072200001EB0451294330BD6FEA04041F3C1CDA12
:107230000C340EDC04F11404C4F1200220FA04F032
:1072400001FA02F340EA030021FA04F345EA0301DC
:1072500030BDC4F10C04C4F1200220FA02F001FA9E
:1072600004F340EA0300294630BD21FA04F0294620
:1072700030BD94F0000F83F4801306BF81F48011B9
:107280000134013D4EE77FEA645C18BF7FEA655C2C
:1072900029D094EA050F08BF90EA020F05D054EAFE
:1072A000000C04BF1946104630BD91EA030F1EBF03
:1072B0000021002030BD5FEA545C05D14000494107
:1072C00028BF41F0004130BD14F580043CBF01F5FA
:1072D000801130BD01F0004545F0FE4141F47001E0
:1072E0004FF0000030BD7FEA645C1ABF19461046BB
:1072F0007FEA655C1CBF0B46024650EA013406BFBC
:1073000052EA033591EA030F41F4002130BD00BF7A
:1073100090F0000F04BF0021704730B54FF4806437
:1073200004F132044FF000054FF0000150E700BFB8
:1073300090F0000F04BF0021704730B54FF4806417
:1073400004F1320410F0004548BF40424FF0000104
:107350003EE700BF42004FEAE2014FEA31014FEA47
:1073600002701FBF12F07F4393F07F4F81F0605196
:10737000704792F0000F14BF93F07F4F704730B505
:107380004FF4607401F0004521F0004120E700BF98
:1073900050EA010208BF704730B54FF000050AE01F
:1073A00050EA010208BF704730B511F0004502D520
:1073B000404261EB41014FF4806404F132045FEA22
:1073C000915C3FF4DCAE4FF003025FEADC0C18BFC7
:1073D00003325FEADC0C18BF033202EBDC02C2F1BD
:1073E000200300FA03FC20FA02F001FA03FE40EA4F
:1073F0000E0021FA02F11444C1E600BF70B54FF04F
:10740000FF0C4CF4E06C1CEA11541DBF1CEA135530
:1074100094EA0C0F95EA0C0F00F0DEF82C4481EA98
:10742000030621EA4C5123EA4C5350EA013518BFB8
:1074300052EA033541F4801143F4801338D0A0FBA5
:1074400002CE4FF00005E1FB02E506F00042E0FB52
:1074500003E54FF00006E1FB03569CF0000F18BF58
:107460004EF0010EA4F1FF04B6F5007F64F5407400
:1074700004D25FEA4E0E6D4146EB060642EAC62193
:1074800041EA55514FEAC52040EA5E504FEACE2E00
:10749000B4F1FD0C88BFBCF5E06F1ED8BEF1004F03
:1074A00008BF5FEA500E50F1000041EB045170BD7F
:1074B00006F0004646EA010140EA020081EA0301C3
:1074C000B4EB5C04C2BFD4EB0C0541EA045170BDBF
:1074D00041F480114FF0000E013C00F3AB8014F139
:1074E000360FDEBF002001F0004170BDC4F1000482
:1074F000203C35DA0C341BDC04F11404C4F1200503
:1075000000FA05F320FA04F001FA05F240EA02005D
:1075100001F0004221F0004110EBD37021FA04F693
:1075200042EB06015EEA430E08BF20EAD37070BD4D
:10753000C4F10C04C4F1200500FA04F320FA05F0AC
:1075400001FA04F240EA020001F0004110EBD370AE
:1075500041F100015EEA430E08BF20EAD37070BD1E
:10756000C4F1200500FA05F24EEA020E20FA04F3F7
:1075700001FA05F243EA020321FA04F001F00041A6
:1075800021FA04F220EA020000EBD3705EEA430E17
:1075900008BF20EAD37070BD94F0000F0FD101F046
:1075A0000046400041EB010111F4801F08BF013C7F
:1075B000F7D041EA060195F0000F18BF704703F0BD
:1075C0000046520043EB030313F4801F08BF013D44
:1075D000F7D043EA0603704794EA0C0F0CEA135500
:1075E00018BF95EA0C0F0CD050EA410618BF52EABA
:1075F0004306D1D181EA030101F000414FF00000C0
:1076000070BD50EA410606BF1046194652EA4306CD
:1076100019D094EA0C0F02D150EA013613D195EA41
:107620000C0F05D152EA03361CBF104619460AD189
:1076300081EA030101F0004141F0FE4141F4700193
:107640004FF0000070BD41F0FE4141F4780170BD83
:1076500070B54FF0FF0C4CF4E06C1CEA11541DBFE8
:107660001CEA135594EA0C0F95EA0C0F00F0A7F8EA
:10767000A4EB050481EA030E52EA03354FEA013117
:1076800000F088804FEA03334FF0805545EA13132A
:1076900043EA12634FEA022245EA111545EA1065F2
:1076A0004FEA00260EF000419D4208BF964244F189
:1076B000FD0404F5407402D25B084FEA3202B61AA8
:1076C00065EB03055B084FEA32024FF480104FF47C
:1076D000002CB6EB020E75EB030E22BFB61A7546F0
:1076E00040EA0C005B084FEA3202B6EB020E75EB83
:1076F000030E22BFB61A754640EA5C005B084FEAEB
:107700003202B6EB020E75EB030E22BFB61A7546B7
:1077100040EA9C005B084FEA3202B6EB020E75EBC2
:10772000030E22BFB61A754640EADC0055EA060E83
:1077300018D04FEA051545EA16754FEA06164FEAC6
:10774000C30343EA52734FEAC2025FEA1C1CC0D172
:1077500011F4801F0BD141EA00014FF000004FF0FF
:10776000004CB6E711F4801F04BF01430020B4F1C0
:10777000FD0C88BFBCF5E06F3FF6AFAEB5EB030C78
:1077800004BFB6EB020C5FEA500C50F1000041EB75
:10779000045170BD0EF0004E4EEA113114EB5C0442
:1077A000C2BFD4EB0C0541EA045170BD41F4801115
:1077B0004FF0000E013C90E645EA060E8DE60CEA1D
:1077C000135594EA0C0F08BF95EA0C0F3FF43BAF3A
:1077D00094EA0C0F0AD150EA01347FF434AF95EAF1
:1077E0000C0F7FF425AF104619462CE795EA0C0FD5
:1077F00006D152EA03353FF4FDAE1046194622E7A2
:1078000050EA410618BF52EA43067FF4C5AE50EA7B
:1078100041047FF40DAF52EA43057FF4EBAE12E76B
:107820004FEA4102B2F1E04324BFB3F5001CDCF1A2
:10783000FE5C0DD901F0004C4FEAC0024CEA5070DA
:10784000B2F1004F40EB830008BF20F00100704709
:1078500011F0804F21D113F13872BCBF01F000400C
:10786000704741F480114FEA5252C2F11802C2F13E
:10787000200C10FA0CF320FA02F018BF40F00100BF
:107880004FEAC1234FEAD32303FA0CFC40EA0C0071
:1078900023FA02F34FEA4303CCE77FEA625307D1AE
:1078A00050EA01331EBF4FF0FE4040F440007047E5
:1078B00001F0004040F0FE4040F40000704700BF7F
:1078C00010B5054C13462CB10A4601460220AFF311
:1078D000008010BD204610BD0000000010B5431E02
:1078E0000A44914204D011F8014B03F8014FF8E724
:1078F00010BD02440346934202D003F8011BFAE78D
:107900007047000038B5124B1C68A36B0546D3B90D
:107910001820FEF765FA43F20E33A06303804AF69F
:10792000CD33438041F2342383804EF26D63C380B4
:107930004DF6EC630381052343810B2383810122F0
:107940000023C0E90423A36B00221D615A6138BDE6
:10795000ECE20320034613F8012B002AFBD1181A8E
:107960000138704721400D005D400D0089400D0039
:107970008D400D00000000003C425554544F4E3ED7
:107980000A002020202020204D4F44450A003C5969
:10799000454C4C4F573E0A0020202020202000203C
:1079A0002020204D414E55414C0A003C5245443E5A
:1079B000204155544F0A002020202020204F4646C9
:1079C0000A0050524F4752414D2041747469635F21
:1079D00046616E5F436F6E74726F6C6C65720A0005
:1079E000424D45323830207465737400436F756CB6
:1079F00064206E6F742066696E6420612076616C0D
:107A0000696420424D453238302073656E736F7261
:107A10002C20636865636B20776972696E672C2020
:107A2000616464726573732C2073656E736F72206A
:107A30004944210053656E736F7249442077617326
:107A40003A20307800202020202020202049442087
:107A50006F6620307846462070726F6261626C7982
:107A6000206D65616E7320612062616420616464D1
:107A7000726573732C206120424D502031383020C4
:107A80006F7220424D50203038350020202049446C
:107A9000206F6620307835362D3078353820726585
:107AA00070726573656E7473206120424D50203290
:107AB00038302C0020202020202020204944206F16
:107AC00066203078363020726570726573656E742A
:107AD00073206120424D45203238302E0020202076
:107AE00020202020204944206F6620307836312025
:107AF000726570726573656E7473206120424D45C6
:107B0000203638302E00424D453238302055702016
:107B1000616E642052756E6E696E67002054454D2B
:107B2000502048554D0A002053455454494E475360
:107B30000A002025322E306620202025322E306685
:107B40000A002053454E534F520A002025322E3052
:107B500066003C5245443E004155544F4D6F6465AC
:107B60002054454D5045524154555245203E202504
:107B7000322E30660A004155544F4D6F64652048DF
:107B8000554D4944495459203E2025322E30660A2D
:107B9000004155544F4D6F646520203E2025690AF1
:107BA000004D41494E204C4F4F503A4155544F4D96
:107BB0006F6465206973204F20462046203E2025B3
:107BC000690A004155544F4D6F6465206973204F19
:107BD000204E203E202569206578656375746520F8
:107BE0004D4C30335F434845434B5F4155544F5FE5
:107BF0005448524553484F4C445328290A004F4C8F
:107C0000454420444953504C41592053574954430B
:107C1000482043415345204552524F522D2D4D206F
:107C200041204E20552041204C20204D4F444500FE
:107C30004F4C454420444953504C415920535749D7
:107C40005443482043415345204552524F522D2D15
:107C50004120552054204F204D4F4445004F504562
:107C60004E205749444520415454494320444F4FE6
:107C700052262057494E444F5753002A2A2A2A2A6F
:107C80002A2A2A2A0000000000000000000000004C
:107C90008D470D0064656661756C7420004D53421C
:107CA000004C5342003C53504953657474696E67ED
:107CB000732064656661756C743E003C5350495393
:107CC000657474696E6773202573256C7520257340
:107CD000204D4F444525643E000000000000000098
:107CE00000000000C9400D00A5460D00D1580D0050
:107CF00015620D00CD510D00D1550D0055500D00F0
:107D0000E14E0D0091560D0027570D005F570D00F5
:107D10007B570D0000000000000000000000000084
:107D200000000000D1580D0015620D00A5400D00A7
:107D3000D1550D00F1560D000D570D0091560D0057
:107D400027570D005F570D007B570D000000000006
:107D5000003E5B4F5B3E3E6B4F6B3E1C3E7C3E1CD1
:107D6000183C7E3C181C577D571C1C5E7F5E1C0017
:107D7000183C1800FFE7C3E7FF0018241800FFE7CE
:107D8000DBE7FF30483A060E2629792926407F0591
:107D90000507407F05253F5A3CE73C5A7F3E1C1CA7
:107DA00008081C1C3E7F14227F22145F5F005F5F67
:107DB00006097F017F006689956A60606060609453
:107DC000A2FFA29408047E040810207E2010080858
:107DD0002A1C08081C2A08081E101010100C1E0C63
:107DE0001E0C30383E3830060E3E0E0600000000F5
:107DF0000000005F00000007000700147F147F14DC
:107E0000242A7F2A12231308646236495620500020
:107E100008070300001C2241000041221C002A1C0C
:107E20007F1C2A08083E08080080703000080808F7
:107E30000808000060600020100804023E51494517
:107E40003E00427F400072494949462141494D3335
:107E50001814127F1027454545393C4A494931419C
:107E6000211109073649494936464949291E00006A
:107E700014000000403400000008142241141414BF
:107E80001414004122140802015909063E415D59AB
:107E90004E7C1211127C7F494949363E41414122B4
:107EA0007F4141413E7F494949417F090909013EDE
:107EB000414151737F0808087F00417F4100204005
:107EC000413F017F081422417F404040407F021C17
:107ED000027F7F0408107F3E4141413E7F0909092E
:107EE000063E4151215E7F091929462649494932FA
:107EF00003017F01033F4040403F1F2040201F3FC0
:107F00004038403F63140814630304780403615944
:107F1000494D43007F414141020408102000414186
:107F2000417F040201020440404040400003070832
:107F30000020545478407F2844443838444444282E
:107F4000384444287F385454541800087E090218D5
:107F5000A4A49C787F0804047800447D400020405D
:107F6000403D007F1028440000417F40007C0478A1
:107F700004787C080404783844444438FC182424E9
:107F80001818242418FC7C08040408485454542469
:107F900004043F44243C4040207C1C2040201C3CE6
:107FA0004030403C44281028444C9090907C4464DD
:107FB000544C440008364100000077000000413670
:107FC000080002010204023C2623263C1EA1A161F6
:107FD000123A4040207A3854545559215555794128
:107FE0002154547841215554784020545579400CFF
:107FF0001E527212395555555939545454593955E0
:108000005454580000457C410002457D4200014522
:108010007C40F0292429F0F0282528F07C5455458F
:10802000002054547C547C0A097F49324949493222
:108030003248484832324A4848303A4141217A3A37
:1080400042402078009DA0A07D39444444393D4001
:1080500040403D3C24FF2424487E4943662B2FFCAE
:108060002F2BFF0929F620C0887E0903205454795C
:10807000410000447D413048484A32384040227A2D
:10808000007A0A0A727D0D19317D2629292F2826AA
:108090002929292630484D402038080808080808B2
:1080A0000808382F10C8ACBA2F102834FA00007B0B
:1080B000000008142A142222142A1408AA005500C9
:1080C000AAAA55AA55AA000000FF00101010FF0030
:1080D000141414FF001010FF00FF1010F010F01423
:1080E0001414FC001414F700FF0000FF00FF141428
:1080F000F404FC141417101F10101F101F14141474
:108100001F00101010F0000000001F101010101FB2
:1081100010101010F010000000FF101010101010C0
:10812000101010FF10000000FF140000FF00FF00FF
:10813000001F10170000FC04F41414171017141477
:10814000F404F40000FF00F714141414141414F7CA
:1081500000F7141414171410101F101F141414F423
:10816000141010F010F000001F101F0000001F146A
:10817000000000FC140000F010F01010FF10FF14BD
:108180001414FF141010101F00000000F010FFFF67
:10819000FFFFFFF0F0F0F0F0FFFFFF000000000035
:1081A000FFFF0F0F0F0F0F38444438447C2A2A3E3C
:1081B000147E02020606027E027E02635549416376
:1081C0003844443C04407E201E2006027E02029970
:1081D000A5E7A5991C2A492A1C4C7201724C304A09
:1081E0004D4D303048784830BC625A463D3E494992
:1081F00049007E0101017E2A2A2A2A2A44445F443A
:108200004440514A444040444A51400000FF010369
:10821000E080FF000008086B6B0836123624360633
:108220000F090F0600001818000000101000304061
:10823000FF0101001F01011E00191D1712003C3C27
:108240003C3C0000000000000000000000000000B6
:108250007F5E0D00755E0D006B5E0D00615E0D00B2
:10826000555E0D00495E0D003D5E0D00355E0D0052
:108270002B5E0D00215E0D002D6B0D000008101807
:1082800020283038626175640053657269616C0042
:1082900053657269616C3100747970650070617248
:1082A000616D00636D6400696400686E64007374DE
:1082B000726D0066696C74006C766C006164644871
:1082C000616E646C65720072656D6F766548616E93
:1082D000646C657200656E756D48616E646C657284
:1082E00073004A534F4E53747265616D4C6F67480B
:1082F000616E646C6572006170700025303130759C
:1083000020005D20002564002C200028293A200050
:10831000205B00636F6465203D2000256900646573
:108320007461696C73203D20000D0A006C6E00665C
:108330006E00636F64650064657461696C006E6FE4
:108340006E6500747261636500696E666F007761C7
:10835000726E006572726F720070616E69630061A7
:108360006C6C005A00252B3033643A25303275008E
:1083700025592D256D2D25645425483A254D3A253E
:1083800053257A0061736374696D65000000000015
:1083900000000000D9640D00C9640D00CB640D001D
:1083A0000000000000000000B1650D0001660D0036
:1083B0000F660D0015620D00ED650D00B3650D0033
:1083C000C9650D00FB650D00DF650D00AD650D0095
:1083D0000000000000000000BD660D000D670D00EC
:1083E0001B670D0015620D00D1660D00F3660D00D0
:1083F000DF660D0007670D00BF660D00C3660D0048
:108400000000000000000000C1670D000B680D00B7
:10841000E3670D00C3670D00EB670D00F3670D0008
:10842000FB670D0003680D00000000000000000065
:108430002D690D0023690D0019690D000F690D00EC
:1084400003690D00F7680D00EB680D00E3680D008F
:10845000D9680D00CF680D002D6B0D0000000000E5
:1084600000000000A76A0D009D6A0D00936A0D00D0
:10847000496A0D00876A0D007B6A0D006F6A0D0066
:10848000676A0D005D6A0D00536A0D002D6B0D00CB
:108490000000000000000000C56A0D00CF6A0D005A
:1084A000D96A0D00E36A0D00ED6A0D00F96A0D004E
:1084B000056B0D00116B0D00196B0D00236B0D008A
:1084C0002D6B0D0000000000000000000000000007
:1084D000000000000000000000000000000000009C
:1084E000000000000000000000000000000000008C
:1084F000000000000000000000000000000000007C
:10850000000000000000000000000000000000006B
:10851000000000000000000000000000000000005B
:10852000000000000000000043000000B5460D0000
:10853000DB4E0D00CD550D0085590D00895E0D00F7
:10854000F5600D00ED610D0055630D0065630D00D4
:108550009D630D00F9690D00B16A0D00F96B0D0006
:10856000FD6D0D00816E0D00456F0D0009700D0051
:048570000000000007
:10857400000103070F1F3F7F0080C0E0F0F8FCFEFE
:1085840000000000000000000000000000000000E7
:1085940000000000000000000000000000000000D7
:1085A40000000000000000000000000000000000C7
:1085B4000000000000000000000000000000008037
:1085C40080800000000000000000000000000000A7
:1085D400008080C0C0000000000000000000000017
:1085E4000000000000000000000000000000000087
:1085F4000000000000000000000000000000000077
:108604000000000000000000000000000000000066
:108614000000000080C0E0F0F8FCF8E0000000007A
:1086240000000000000000000000000000808080C6
:10863400808000808000000000808080808000FFB7
:10864400FFFF000000008080808000008080000028
:1086540080FFFF8080008080008080808000808098
:108664000000000000808000008C8E84000080F8F0
:10867400F8F8800000000000000000000000000086
:10868400F0F0F0F0F0F0F0F0F0F0F0F0E0E0C080A6
:1086940000E0FCFEFFFFFF7FFFFFFFFFFF00000085
:1086A4000000000000000000000000FEFFC7010100
:1086B400010183FFFF00007CFEC70101010183FF6C
:1086C400FFFF0038FEC78301010183C7FFFF0000DD
:1086D40001FFFF010100FFFF0701010100007FFF0F
:1086E40080000000FFFF7F0000FFFFFF000001FF8C
:1086F400FFFF010000000000000000000000000077
:10870400030F3F7F7FFFFFFFFFFFFFFFE7C7C78F19
:108714008F9FBFFFFFC3C0F0FFFFFFFFFFFCFCFC08
:10872400FCFCFCFCFCF8F8F0F0E0C00001030303DF
:108734000303010303000000000103030303010119
:10874400030100000001030303030101030300000C
:108754000003030000000303000000000000000108
:1087640003030303030100000001030100000003ED
:1087740003010000000000000000000000000000F1
:1087840000000080C0E0F0F9FFFFFFFFFF3F1F0F74
:1087940087C7F7FFFF1F1F3DFCF8F8F8F87C7DFF43
:1087A400FFFFFFFFFFFFFF7F3F0F07003030000098
:1087B40000000000000000000000000000000000B5
:1087C40000000000FEFEFC000000000000000000AD
:1087D40000000000000000000000000000E0C000F5
:1087E4000000000000000000000030300000000025
:1087F4000000000000000000000000000000000075
:1088040000C0FEFFFFFFFFFFFFFFFFFF7F7F3F1F53
:108814000F071F7FFFFFF8F8FFFFFFFFFFFEF8E0E1
:10882400000000010000000000000000FEFE000047
:1088340000FCFEFC0C06060EFCF80000F0F81C0E12
:108844000606060CFFFFFF0000FEFE00000000FC11
:10885400FEFC00183C7E66E6CE84000006FFFF06A0
:1088640006FCFEFC0C0606060000FEFE0000C0F836
:10887400FC4E4646464E7C7840183C76E6CECC808C
:1088840000000000000000000000000000000000E4
:108894000000000001070F1F1F3F3F3F3F1F0F0352
:1088A4000000000000000000000000000F0F0000A6
:1088B400000F0F0F000000000F0F000003070E0C45
:1088C40018180C060F0F0F0000010F0E0C180C0FD8
:1088D400070100040E0C180C0F070000000F0F0016
:1088E400000F0F0F0000000000000F0F0000000732
:1088F400070C0C181C0C060600040E0C180C0F07B1
:108904000000000000000000000000000000000063
:108914000000000000000000000000000000000053
:108924000000000000000000000000000000000043
:108934000000000000000000000000000000000033
:108944000000000000000000000000000000000023
:108954000000000000000000000000000000000013
:108964000000000000000000000000000000000003
:1089740000000000000000000000000000000000F3
:1089840084830D0000000000C8840D00E8840D00FD
:1089940008850D0000000000000000000000000039
:1089A4000000000028850D00000000000000000009
:1089B40000000000000000000000000000000000B3
:1089C40000000000000000000000000000000000A3
:1089D4000000000000000000000000000000000093
:0889E400000000008CE20320FA
:1089EC00FFFFFFFF00000102030405060708090A48
:1089FC000B0C0D0E0F101112131415161718191A43
:088A0C001B1C1D1E1F20280089
:048A1400785634124A
:04000003D0004020C9
:00000001FF
