:02000002D0002C
:1040000000400D00748C0D00000006000C0005013E
:084010000401E80500000000B6
:044018003C7B0D00E0
:1040200009480A49884208B505D0094A824202D0A7
:10403000121A03F03FFD0748074A0021121A03F045
:1040400044FD014808BD00BF68DE0320D4870D0091
:10405000E0E20320E0E20320F0E7032070B502F085
:10406000F3FA074C074BE41AA40800251E46A542A4
:1040700004D056F8253098470135F8E770BD00BFE9
:10408000D0870D008C870D0000F0D2B808B500F085
:104090005FFBBDE8084002F099BA01F095BF01F05E
:1040A00093BF000008B5034A00210C2001F000FF77
:1040B000FEE700BF915C0D000078B0FA80F0400987
:1040C0007047012303707047704710B504460068BD
:1040D00008B101F079FF204610BD000070B505461B
:1040E00001F0DEFD094B0A4C186000232360094BE8
:1040F000284418601D46264622682B689A4203D23F
:1041000001F0CEFD3060F7E770BD00BF54E303203F
:10411000E8E2032068E303200A46002102F0CBB95D
:1041200010B50446354801F09DF90121334801F0EE
:10413000F3FC0121314801F0F4FC002211462F4824
:1041400001F0E7FC03212D4801F0F3FC2C492B483A
:1041500002F072F9294802F076F92A492748FFF758
:10416000DBFF29492548FFF7D7FF28492348FFF7F8
:10417000D3FFDCB1012C37D12146204801F0D1FC1E
:1041800023491E48FFF7C8FF22491C48FFF7C4FF18
:1041900022460021194801F0C7FC1F491748FFF7C4
:1041A000BBFF2146154801F0BCFC18E00121134873
:1041B00001F0B7FC19491148FFF7AEFF0122214673
:1041C0000E4801F0B1FC16490C48FFF7A5FF01218C
:1041D0000A4801F0A6FC13490848FFF79DFF124961
:1041E0000648FFF799FF04E0104B0448196802F0F5
:1041F00036F90248BDE8104001F056BA30E303201A
:10420000787B0D00837B0D008D7B0D00997B0D006D
:10421000C27B0D00A57B0D00AE7B0D00A37B0D00C6
:10422000C87B0D00AA7B0D00B67B0D0058E3032070
:1042300010B502F009FB4FF4165102F0F9FA3C22D6
:104240000221314801F05EF92F4801F02DFA4FF4B8
:104250007A7002F07DF902F0F7FA2C49FFF75CFF63
:104260004FF47A7002F074F902F0EEFA284902F085
:1042700000F97621274800F011FF274B187060BB2A
:1042800002F0E2FA254902F0EAF802F0DDFA2449E8
:1042900002F0D2F802F0D8FA04461E4800F094FB6F
:1042A00010220146204602F0E6F8204602F0CBF844
:1042B00002F0CAFA1B4902F0D2F802F0C5FA1A4914
:1042C00002F0CDF802F0C0FA184902F0C8F802F086
:1042D000BBFA174902F0C3F8FEE702F0B5FA154938
:1042E00002F0BDF803210A2002F0B2FD03210B20E9
:1042F00002F0AEFD0720012102F0AAFD0020BDE87A
:104300001040FFF70DBF00BF30E30320CD7B0D0051
:10431000EF7B0D0074E303201CE30320FB7B0D0007
:10432000437C0D00547C0D009A7C0D00C37C0D0075
:10433000EC7C0D00157D0D0037B5044610EE100A1B
:104340000D4603F0F3F82A46CDE90001002120468E
:1043500002F0B1F803B030BD1FB52F4C012120464B
:1043600001F0DFFB204602F06EF82C492046FFF7F3
:10437000D3FE2B492046FFF7CFFE23A3D3E900232A
:10438000CDE9022322A3D3E900230021CDE90023B4
:104390002046244A02F08FF823492046FFF7BCFE4E
:1043A00001222046002101F0BFFB204B204993ED64
:1043B000000A2046FFF7C0FF2046012101F0B1FBB3
:1043C0001C492046FFF7A8FE01222046002101F0EB
:1043D000ABFB194B194993ED000A2046FFF7ACFFE0
:1043E0002046012101F09DFB154B2046196802F083
:1043F00023F8144B1968204604B0BDE8104002F0C1
:104400002EB800BFAFF300800000000000C058408D
:104410000000000000C0534030E303202B7D0D005E
:10442000367D0D00417D0D00517D0D00B8E3032068
:104430005A7D0D00A67B0D0070E303204A7D0D0020
:1044400020E30320C0E3032010B504462B4801F00D
:1044500009F80121294801F05FFB0121274801F0FB
:1044600060FB00221146254801F053FB032123483D
:1044700001F05FFB2249214801F0DEFF21491F487E
:10448000FFF74AFE20491D48FFF746FE9CB1012C6C
:1044900029D122460021194801F046FB1B49174843
:1044A000FFF73AFE2146154801F03BFB1849134837
:1044B000FFF732FE10E015491048FFF72DFE0122EC
:1044C00021460E4801F030FB11490C48FFF724FE4D
:1044D00001210A4801F025FB0E490848FFF71CFEA0
:1044E000FFF73AFF04E00C4B0448196801F0B7FFEE
:1044F0000248BDE8104001F0D7B800BF30E3032008
:10450000617D0D00837B0D008D7B0D006C7D0D00AA
:10451000C77B0D00997B0D00ECE20320000000003A
:1045200038B52548254D264C00F01CFB10EE100A2E
:1045300002F0FCFF1EA3D3E9002303F04BF8214B4C
:10454000002202F095FE03F057FA28601A4800F0A6
:10455000A1FB84ED000A02F077F995ED000A1A49F3
:10456000FFF7EAFE02F070F994ED000A1749FFF731
:10457000E3FE95ED007ADFED167A164BB4EEE77A9E
:10458000F1EE10FA08DA94ED007ADFED137AB4EE6A
:10459000E77AF1EE10FA01DB012100E00021197049
:1045A0000720BDE8384002F064BC00BFAFF30080D4
:1045B000CDCCCCCCCCCCFC3F74E30320B8E30320BF
:1045C00070E3032000004040727D0D00907D0D00DF
:1045D00000009E42E4E203200000C64213460A4661
:1045E000002101F068BF000030B54E4B8DB0186857
:1045F00059681D466A4603C255F80A0F197A1170A8
:10460000696803AA03C2297A11701D4606AA55F8E3
:10461000140F696803C253F81E0F297A1170596884
:104620001B7A414D09AA03C20024404813708DF83B
:1046300009408DF815408DF821408DF82D4000F08F
:1046400011FF0121394801F067FA0121374801F0D3
:1046500068FA22462146354801F05BFA03213348C7
:1046600001F067FA2968314801F0E6FE30492F4829
:1046700001F0E2FE2F492D48FFF74EFD01222146B1
:104680002A4801F051FA2C4B1A781C461AB1012A1B
:1046900006D103AA00E06A4628492448FFF79EFF96
:1046A0000121224801F03DFA2249204801F0C4FED0
:1046B00023491E4801F0C0FE22491C4801F0BCFEFF
:1046C00021491A4801F0B8FE1E49184801F0B4FE0D
:1046D0001849164801F0B0FE01220021134801F0EC
:1046E00023FA23781BB1012B06D109AA00E006AA00
:1046F00012490E48FFF772FF01210C4801F011FA30
:104700000C490A4801F098FE1049084801F094FE4F
:104710002968064801F090FE044800F0C5FF0DB07E
:1047200030BD00BF507B0D0000E3032030E30320C9
:10473000AB7D0D00CD7D0D006DE30320B67D0D003A
:10474000B97D0D00C47D0D00CF7D0D00DA7D0D001B
:1047500070B50A2002F0A6FB384C003018BF0120CB
:1047600020700B2002F09EFB354B2278003018BFE2
:10477000012018701D46A2B1324B1A782AB10022CE
:104780001A70314B01221A701BE0304C207880F0F7
:1047900001002070FFF7C4FC217829B9072002F03E
:1047A00068FB2A4B1B781BB10121072002F061FB3B
:1047B0002B7863B3254A157835B100231370224A4C
:1047C0001370FFF711FF32E01E4C207880F00100DB
:1047D0002070FFF739FE02F037F8294623781C4A8B
:1047E00001F069FE2578ADB91A4E3378FBB102F0BD
:1047F0002BF82378184A294601F05DFE0720294648
:10480000357002F036FB42F21070FFF767FC0D4B7B
:104810001B7863B10B4C02F017F823780F4A002184
:1048200001F049FEFFF77CFE2078FFF70DFE4FF404
:104830007A70BDE87040FFF751BC00BF6CE3032005
:10484000BCE30320FDE203206DE30320FCE2032030
:10485000E57D0D00E4E20320F57D0D00177E0D00DF
:1048600010B52421044602F0A1FB204610BD000033
:1048700070B52B4E2B4C2C4D01F082F92B49304654
:1048800001F085FD30462A4E2246294602F080FB83
:104890002849304601F07BFD3046274E2246294606
:1048A00002F076FB2549304601F071FD3046244E7A
:1048B0002246294602F06CFB2249304601F067FD92
:1048C0003046214E2246294602F062FB1F493046FF
:1048D00001F05DFD29461E4D2246304602F058FB90
:1048E0000421284600F0A8FD22461A49284602F075
:1048F0004FFB194D194800F061F800232B60AB8085
:10490000AB712B814FF6FF736B81022001F0D8FA57
:10491000224628461249BDE8704002F039BB00BF6C
:1049200058E30320E0E2032001630D00527E0D00F6
:10493000ECE20320847E0D00C0E30320B17E0D0075
:1049400020E30320CF7E0D0000E30320DA7E0D007C
:1049500030E30320C9400D0010E3032074E303207B
:10496000CB400D007FB5024608461379956833B1F8
:104970003DB90C4904B0BDE8704001F05DBD0A4B83
:1049800000E00A4B167B0A4C0A49527B0292012E28
:1049900008BF214601910095074A002101F08BFDD7
:1049A00004B070BD057F0D008B850D00F47E0D00F9
:1049B000FD7E0D00017F0D001B7F0D00FF220274A4
:1049C00042748274C27470478068704738B5094D6C
:1049D000296811F001040AD12846FFF76DFB30B1B8
:1049E0002146054801F04CFB2846FFF76AFB0248C8
:1049F00038BD00BFD0E30320D4E303202DE9F0410C
:104A000090F91330013305460F4606D1FFF7DEFF5C
:104A10003946BDE8F04101F04FBC072600244FF0B5
:104A2000010895F91300002180B202F022FA95F9ED
:104A3000110008FA06F1394080B202F01AFA95F92D
:104A40001300012180B202F014FA95F912006400FB
:104A500080B2E4B202F026FA08B144F0010416F183
:104A6000FF36DED22046BDE8F08108B5FFF7AEFF85
:104A7000BDE8084001F041BB10B50446FFF7A6FFB2
:104A80002146BDE8104001F051BB000030B590F95F
:104A90001030013385B004460D4621D101790068FC
:104AA00001F0EFFF2068036829469B68984720685B
:104AB00001F0F2FF03222179206801F0DFFF206876
:104AC00003685B6998470502206803685B6998473B
:104AD00028430502206803685B699847054339E06D
:104AE00090F9133001330ED11C4B1D4A00930292F2
:104AF0000023012268468DF804308DF80C208DF8D3
:104B00000D30FFF7B9FF94F91000002180B202F0D8
:104B1000B0F945F080012046FFF770FF00212046E4
:104B2000FFF76CFF002105022046FFF767FF2843CF
:104B3000050200212046FFF761FF054394F91000AC
:104B4000012180B202F095F994F91330013301D1BB
:104B5000FFF78BFF284605B030BD00BFF07E0D008B
:104B600020A1070010B5FA210446FFF78FFFB0F52A
:104B7000000F1ED0A28A9FED107AC2EB20235200B4
:104B8000C2EBE010B4F916205B435043B4F918208F
:104B90001B1353439B1303EBE020E06000EB80000A
:104BA0008030001207EE900AF8EEE77A87EE870A67
:104BB00010BD9FED020A10BD0000C8420000C07F7A
:104BC00030B590F91030013385B004460D461DD143
:104BD0000179006801F055FF2068036829469B6849
:104BE0009847206801F058FF02222179206801F0DF
:104BF00045FF206803685B6998470546206803689D
:104C00005B69984740EA052085B235E090F913309A
:104C100001330ED11A4B1B4A00930292002301224A
:104C200068468DF804308DF80C208DF80D30FFF7B4
:104C300023FF94F91000002180B202F01AF945F028
:104C400080012046FFF7DAFE00212046FFF7D6FE5E
:104C5000002105462046FFF7D1FE40EA052085B237
:104C600094F91000012180B202F003F994F9133095
:104C7000013301D1FFF7F9FE284605B030BD00BF72
:104C8000F07E0D0020A1070008B5FFF799FF40BA9C
:104C900080B208BD10B50446FFF764FFFD21204631
:104CA000FFF78EFFB0F5004F38D0B4F93230E2682C
:104CB000B4F934101B05A2F59632C3EB803302FB26
:104CC000113303F58043D91394F8303094F936004A
:104CD0005343DB124243921203F5004353439B12AA
:104CE000B4F92E2003F50013534303F500539B132F
:104CF0004B43DA1394F82C105243D2114A43A3EBDE
:104D0000221323EAE373B3F1C85FA8BF4FF0C8537F
:104D10001B1300EE103ABAEECB0A10BD9FED010A4C
:104D200010BD00BF0000C07F30B590F910300133D6
:104D300085B004460D4616D10179006801F0A1FE48
:104D40002068036829469B689847206801F0A4FE04
:104D500001222179206801F091FE206803685B69D7
:104D60009847C5B22EE090F9133001330ED1174B9E
:104D7000174A009302920023012268468DF80430FE
:104D80008DF80C208DF80D30FFF776FE94F91000A9
:104D9000002180B202F06DF845F080012046FFF757
:104DA0002DFE00212046FFF729FE054694F910004C
:104DB000012180B202F05DF894F91330013301D182
:104DC000FFF753FE284605B030BD00BFF07E0D0052
:104DD00020A1070008B5F321FFF7A6FF00F00100AE
:104DE00008BD38B588210446FFF74EFF8A21A0820E
:104DF0002046FFF749FF8C21E0822046FFF744FF61
:104E00008E2120832046FFF73FFF902160832046BC
:104E1000FFF73AFF9221A0832046FFF735FF942148
:104E2000E0832046FFF730FF962120842046FFF7DD
:104E30002BFF982160842046FFF726FF9A21A0844B
:104E40002046FFF721FF9C21E0842046FFF71CFF4E
:104E50009E2120852046FFF717FFA121608520466F
:104E6000FFF762FFE12184F82C002046FFF70CFFDA
:104E7000E321E0852046FFF757FFE42184F8300066
:104E80002046FFF751FFE52105462046FFF74CFF7E
:104E900000F00F0040EA05106086E6212046FFF78B
:104EA00043FFE52105462046FFF73EFF001140EA9B
:104EB0000510A086E7212046FFF736FF84F836006C
:104EC00038BD00007FB590F91030013304460E461E
:104ED000154611D10179006801F0D3FD20680368FF
:104EE00031469B6898472068036829469B68984725
:104EF000206801F0D1FD2DE090F9133001330ED17F
:104F0000154B164A009302920023012268468DF841
:104F100004308DF80C208DF80D30FFF7ADFD94F9BD
:104F20001000002180B201F0A4FF06F07F012046AE
:104F3000FFF764FD29462046FFF760FD94F9100055
:104F4000012180B201F095FF94F91330013301D1B2
:104F5000FFF78BFD04B070BDF07E0D0020A10700AF
:104F6000F8B590F83C509DF818609DF81CE09DF84D
:104F7000207061F3871562F3020563F3C50590F8AD
:104F8000403080F83C5066F3471380F8403090F88A
:104F900038306EF3C503044667F3020380F83830F7
:104FA00006F00702F221FFF78DFF94F83820C2F3D4
:104FB000C20302F007019B0043EA411343EAD21205
:104FC0002046F521FFF77EFF94F83C20C2F3C20390
:104FD00002F007019B0043EA411343EA9212204684
:104FE000F421BDE8F840FFF76DBF30B5044690F9F5
:104FF0001000421C85B003D1206801F00BFD22E0B7
:10500000012180B201F035FF94F91000012180B236
:1050100001F01EFF94F91300431C04D1FFF7D6FCE6
:1050200001F038F80FE0012180B201F011FF94F98E
:105030001100012180B201F00BFF94F91200002150
:1050400080B201F005FFD0212046FFF76DFE6028F9
:10505000A06020D12046B622E021FFF733FF4FF4B5
:10506000967001F075FA2046FFF7B4FE054608B1C8
:105070006420F6E72046FFF7B4FE052300931A46A6
:105080000321204602950195FFF76AFF642001F095
:105090005FFA012000E0002005B030BD10B50171BD
:1050A000044601F04FFF20602046BDE81040FFF7A6
:1050B0009CBF00F065BD0000F0B5447EBDF8145003
:1050C000022C08D0032C0FD0012C70D10489013C94
:1050D000A21A12B20CE04489013CA21A0489E41A13
:1050E000611A12B209B262E04489E41A611A09B283
:1050F000002A5BDBB0F90840944240F3908000291D
:10510000BEBF5B181BB20021B0F90A00CC18844264
:10511000C4BF431A1BB2002B40F38180C9B2C80838
:105120003F4F02EBC01211F00701DBB207EB0204A4
:1051300017D0C1F10801C8B23A4983420E5C3FBFA3
:10514000C3EB000EFF2141FA0EF10E40B95C012DB8
:105150000CBF3143B1438342B95460D3181AC3B270
:105160008034072B17D9012D0CBFFF20002004F13C
:1051700080011A46083AD2B2072A01F8800C01F1E0
:105180008001F7D8A3F10802C2F3C402013204EB94
:10519000C21403F00703002B41D0234AD25C2378CA
:1051A000012D0CBF134393432370F0BDF0BD002AC3
:1051B00035DBB0F90A40944231DD0029BCBFC91883
:1051C0000BB2B0F90870B8BF0021CE18BE42C4BF00
:1051D000631A1BB2002B22DDD01001EBC011104866
:1051E00002F007020144012000FA02F28542D2B225
:1051F00009D1013B1BB25C1C11D011F8010B10430B
:1052000001F8010CF5E7D243D2B2013B1BB2581CA6
:1052100005D011F8010B104001F8010CF5E7F0BDC5
:1052200078DE032070DE032068DE0320F0B5447EC4
:10523000BDF81450022C08D0032C0FD0012C12D131
:105240000489E41AA21A12B26DE00489013C611AC1
:105250004489E41AA21A09B212B204E04489013C5A
:10526000611A09B25FE000295CDBB0F908408C42AA
:1052700040F39180002ABCBFD21813B2B0F90A00E3
:10528000B8BF0022D4188442C4BF831A1BB2002BBB
:1052900040F38180D4B2404EDAB2E30801EBC3118F
:1052A00014F0070406EB010317D0C4F10804E0B2C0
:1052B0003A4C8242275C3FBFC2EB000EFF2444FA07
:1052C0000EF42740745C012D0CBF3C43BC4382426A
:1052D000745460D3101AC2B28033072A17D9012D33
:1052E0000CBFFF24002403F1800011460839C9B225
:1052F000072900F8804C00F18000F7D8A2F10801DE
:10530000C1F3C401013103EBC11302F00702002A0B
:1053100041D02349895C1A78012D0CBF0A438A4386
:105320001A70F0BDF0BD002935DBB0F90A408C429F
:1053300031DD002ABCBFD21813B2B0F90870B8BF73
:105340000022D618BE42C4BFA31A1BB2002B22DD16
:10535000C81002EBC012104801F0070110440122EE
:1053600002FA01F19542C9B209D15A1E13B25C1C6E
:1053700011D010F8012B0A4300F8012CF5E7C943BE
:10538000C9B25A1E13B25A1C05D010F8012B0A409C
:1053900000F8012CF5E7F0BD78DE032070DE032075
:1053A00068DE0320F8B50D1E064614461F463FDB97
:1053B00000F0CEFB85423BDA002C39DB304600F0B2
:1053C000CAFB844234DA304600F0B1FB022827D110
:1053D0003189708901390138491B001B0DB204B2B3
:1053E00006E0012804D13389013B1B1B2C461DB26A
:1053F0000820012F94FBF0F000B20E4B04F00702DE
:1054000005EBC01104D197405A5C17435F54F8BDB7
:10541000585C012707FA02F220EA02025A54F8BD4A
:105420000328DED17389013B5B1B25461CB2DFE7F5
:10543000F8BD00BF78DE032038B5402204460D4693
:10544000802100F087FA064B2360FF23637784F8FE
:105450002130E377A37784F82050204638BD00BF81
:10546000447F0D004FF480620021014802F02DBB03
:1054700078DE032038B590F91D30013304460D461F
:1054800028D090F92100012180B201F0F2FC94F9BA
:105490001F00002180B201F0ECFC94F921000021F2
:1054A00080B201F0E6FC94F822302BB1FFF78EFABF
:1054B000294600F001FF05E02B460122A17F607F15
:1054C00001F003FD94F92100012180B2BDE83840CC
:1054D00001F0CFBC01F036FD94F91B1001F0D5FAB4
:1054E00001F030FD036800219B68984701F02AFD18
:1054F000036829469B68984701F024FDBDE83840C1
:1055000001F0CABA38B504460D46217790F91D302E
:10551000C276013337D090F91F00012180B201F02B
:1055200097FC94F92100012180B201F091FC94F8DC
:1055300022305BB994F91D00012180B201F088FC92
:1055400094F91E00012180B201F082FC94F822300F
:10555000EBB194F92100012180B201F08AFCFFF740
:1055600035FA012100F0A7FDFFF730FA102100F015
:105570007FFEFFF72BFA002100F0AEFDFFF726FAC1
:1055800000F088FD03E001F0DDFC01F043FA94F93E
:105590002000012180B201F05BFC94F92000012180
:1055A00080B201F066FC012000F0D2FF94F92000E7
:1055B000002180B201F05DFC0A2000F0C9FF94F9DF
:1055C0002000012180B201F054FC2046AE21FFF7FB
:1055D00051FF2046D521FFF74DFF20468021FFF7E0
:1055E00049FF2046A821FFF745FF20463F21FFF74E
:1055F00041FF2046D321FFF73DFF20460021FFF762
:1056000039FF20464021FFF735FF8D212046FFF767
:1056100031FF012D0CBF102114212046FFF72AFF76
:1056200020462021FFF726FF20460021FFF722FF1A
:105630002046A121FFF71EFF2046C821FFF71AFFD1
:105640002046DA21FFF716FF20461221FFF712FF4E
:1056500081212046FFF70EFF012D0CBF9F21CF2196
:105660002046FFF707FFD9212046FFF703FF012D52
:105670000CBF2221F1212046FFF7FCFE2046DB2152
:10568000FFF7F8FE20464021FFF7F4FE2046A42154
:10569000FFF7F0FE2046A621FFF7ECFE2046AF21E3
:1056A000BDE83840FFF7E6BE2DE9F0412121044670
:1056B000FFF7E0FE00212046FFF7DCFE7F212046B9
:1056C000FFF7D8FE22212046FFF7D4FE0021204616
:1056D000FFF7D0FE07212046FFF7CCFE94F91D30DE
:1056E000DFF8BC80013335D094F92100012180B26C
:1056F00001F0BFFB94F91F00012180B201F0B9FB5A
:1057000094F92100002180B201F0B3FB012000F0E8
:10571000BFFA002594F8223018F805602BB1FFF786
:1057200055F9314600F0C8FD05E033460122A17F5E
:10573000607F01F0CAFB0135B5F5806FEAD1012029
:1057400000F0A6FA94F92100012180B2BDE8F041F1
:1057500001F08FBB002501F0F5FB94F91B1001F05F
:1057600094F901F0EFFB036840219B6898470026FD
:1057700001F0E8FBAF190368BFB29B6818F8071087
:1057800001369847102EF3D1103501F0DBFBADB296
:1057900001F082F9B5F5806FDDD1BDE8F08100BF81
:1057A00078DE032000F0ECB92DE9F04F85B01E46FD
:1057B000BDF93830BDF83CA015469A1A002AB8BF8A
:1057C00052420092721A002AB8BF524201920C460D
:1057D000009A01998A42814605DD32461E461346EB
:1057E00022462C461546B44205DD2A461D46134680
:1057F0002246344616465A1B002AB8BF5242C4EB12
:1058000006089D42B4BF01234FF0FF331FFA88F80A
:10581000029303920FFA88F7022297FBF2F7B44241
:105820001FDC019A009B9342D9F80030C8BF224682
:10583000D3F810B0C8BF29465346DCBF2A462146DC
:105840004846D847039BFF1ABBB21FB2002F05DAA8
:10585000029A08EB030715442DB23FB2013424B27B
:10586000DDE705B0BDE8F08F2DE9F347BDF82C600A
:105870000768BDF928A000960446FF6991460D46C9
:105880009846B847236800960AF1FF324A44DF6918
:1058900029464346204612B2B847236800969F69BE
:1058A0004A46534629462046B84723680A9608F1D7
:1058B000FF3129449D694A46534609B22046AC4609
:1058C00002B0BDE8F047604737B5013B13440468B8
:1058D000BDF8185001951BB2009364690B46A047B0
:1058E00003B030BD37B5BDF8185004688DE824000A
:1058F000013B0B4464691BB2A04703B030BD2DE9E6
:10590000F347BDF92880BDF82C90054617460C4694
:1059100001EB030A54450BDA2B68CDF800909E6921
:10592000214643463A4628460134B04724B2F1E7BF
:1059300002B0BDE8F08713B5B0F90E2004680191FC
:1059400000920022B0F90C30646A1146A04702B000
:1059500010BD704730B501810024084D428181811E
:10596000C2814FF6FF7101224460056044760482D3
:1059700044820276C1828182827630BD7C7F0D00B6
:105980002DE9F04F8FB005460691BDF860100791E4
:10599000BDF864100891B0F90C1006989DF8688065
:1059A00081427CDDB5F90E10914278DD062111FBB4
:1059B0000800002873DD02EBC80000286FDD03EB50
:1059C000830396B20C9306F108039BB2099100245D
:1059D0000D93052C1CBF334B0C9A059616BF1B1953
:1059E0004FF0000913F8029004961FFA88F303930E
:1059F000039ABDF8183004FB023213FA84F312B292
:105A00001BB20A9237460FFA88FA0B9319F0010F6E
:105A100011D0B8F1010F2B6803D1D3F810B0079B58
:105A200014E0079A0192CDF800A0D3F824B0BDF994
:105A30001020534618E0079B089A934217D0B8F1FC
:105A4000010F2B6807D1D3F810B013463AB20B9967
:105A50002846D8470BE0089A0192CDF800A0BDF97E
:105A60001420D3F824B053460A992846D847049BFB
:105A7000039A13449BB20493059B13449BB20137D2
:105A800005930D9BBFB29F424FEA5909BED1099BB6
:105A9000013B013413F0FF0364B2099399D10FB0B5
:105AA000BDE8F08FAC7F0D0030B50A2985B0044603
:105AB0000B4604D1027E438A03EBC20323E00D2987
:105AC00024D0057EB0F91220B0F910100295C58AD5
:105AD0000195858A0095FFF753FF227E238A91B2B4
:105AE00001EB410003EB4003A07E1BB2238268B1AF
:105AF000B4F90C006FF0050505FB0202934205DDC9
:105B0000638A03EBC103638200232382012005B073
:105B100030BD018242827047002908BF0121017611
:105B20007047C182818270478182C2827047407E05
:105B3000704701F00301012941760389428904D0AD
:105B4000032902D08381C28170478281C38170475B
:105B5000B0F90C007047B0F90E00704700F010B8B3
:105B600008B5024B1B689B68019308BD68020300DF
:105B700008B5024B1B68DB68019308BD680203008F
:105B800008B5024B1B681B68019308BD2C0203007B
:105B900008B5024B1B689B68019308BD2C020300EB
:105BA00008B5024B1B68DB68019308BD2C0203009B
:105BB00008B5024B1B681B69019308BD2C0203004A
:105BC00008B5024B1B685B69019308BD2C020300FA
:105BD00008B5024B1B681B68019308BD3002030027
:105BE00008B5024B1B689B68019308BD3002030097
:105BF00008B5024B1B68DB68019308BD3002030047
:105C000008B5024B1B681B69019308BD30020300F5
:105C100008B5024B1B685B69019308BD30020300A5
:105C200008B5024B1B68DB69019308BD3002030015
:105C300008B5024B1B681B6A019308BD30020300C4
:105C400008B5024B1B685B6A019308BD3002030074
:105C500008B5024B1B68DB6B019308BD30020300E3
:105C600008B5024B1B681B6C019308BD3002030092
:105C700008B5024B1B685B6C019308BD3002030042
:105C800008B5024B1B685B68019308BD180203004E
:105C900008B5024B1B68DB68019308BD18020300BE
:105CA00008B5024B1B685B69019308BD180203002D
:105CB00008B5024B1B689B68019308BD48020300AE
:105CC00008B5024B1B681B69019308BD480203001D
:105CD00008B5024B1B685B69019308BD48020300CD
:105CE00008B5024B1B685B6C019308BD48020300BA
:105CF00008B5024B1B689B6C019308BD480203006A
:105D000008B5024B1B685B69019308BD6402030080
:105D100008B5024B1B681B68019308BD3C020300D9
:105D200008B5024B1B68DB68019308BD3C02030009
:105D300008B5024B1B681B69019308BD3C020300B8
:105D400008B5024B1B685B69019308BD3C02030068
:105D500008B5024B1B689B69019308BD3C02030018
:105D600008B5024B1B68DB69019308BD3C020300C8
:105D700008B5024B1B681B6A019308BD3C02030077
:105D800008B5024B1B689B6A019308BD3C020300E7
:105D900008B5024B1B68DB68019308BD28020300AD
:105DA00008B5024B1B689B69019308BD28020300DC
:105DB00008B5024B1B68DB69019308BD280203008C
:105DC00008B5024B1B681B6A019308BD280203003B
:105DD00008B5024B1B685B6A019308BD28020300EB
:105DE00008B5024B1B689B6A019308BD280203009B
:105DF00008B5024B1B68DB6A019308BD280203004B
:105E000008B5024B1B681B6B019308BD28020300F9
:105E100008B5024B1B685B6B019308BD28020300A9
:105E200008B5024B1B681B6C019308BD28020300D8
:105E300008B5024B1B681B6D019308BD28020300C7
:105E400008B5024B1B681B68019308BD4C02030098
:105E500008B5024B1B685B68019308BD4C02030048
:105E600008B5024B1B681B69019308BD4C02030077
:105E700008B5024B1B685B69019308BD4C02030027
:105E800008B5024B1B689B69019308BD4C020300D7
:105E900008B5024B1B68DB69019308BD4C02030087
:105EA00008B5024B1B681B6A019308BD4C02030036
:105EB00008B5024B1B685B6B019308BD60020300D1
:105EC00008B5024B1B685B68019308BD2002030004
:105ED00008B5024B1B685B69019308BD20020300F3
:105EE00008B5034B1B68D3F88830019308BD000048
:105EF0002002030008B5034B1B68D3F894300193CC
:105F000008BD00002002030008B5024B1B685B6857
:105F1000019308BD4002030008B5024B1B689B6853
:105F2000019308BD4002030008B5024B1B68DB6803
:105F3000019308BD4002030008B5024B1B681B69B2
:105F4000019308BD4002030008B5024B1B685B6962
:105F5000019308BD4002030008B5024B1B689B6912
:105F6000019308BD4002030008B5024B1B68DB69C2
:105F7000019308BD4002030008B5024B1B681B6A71
:105F8000019308BD4002030008B5024B1B681B6B60
:105F9000019308BD4002030008B5024B1B685B6B10
:105FA000019308BD4002030008B5024B1B68DB6B80
:105FB000019308BD4402030008B5024B1B681B682F
:105FC000019308BD1C02030008B5024B1B685B6807
:105FD000019308BD1C02030008B5024B1B689B68B7
:105FE000019308BD1C02030008B5024B1B685B6AE5
:105FF000019308BD1C020300002211464068FFF710
:10600000BBBF002211464068FFF7C6BF00224068B0
:10601000FFF7BABF002281F001014068FFF7A4BF7B
:1060200000231A4619464068FFF796BF00231A4618
:1060300019464068FFF788BF002211464068FFF705
:106040007BBF002211464068FFF766BF0022022195
:106050004068FFF769BF00231A464068FFF754BF46
:10606000024B03225A60024A1A607047DCE30320A5
:10607000B0840D000021FFF7F3BD0021FFF7F8BD4C
:1060800010B5044601700846FFF7CAFD002363609F
:10609000204610BD10B504460078FFF7EBFF48B965
:1060A00020784FF6FF71FFF793FD2078BDE8104090
:1060B000FFF7E3BF10BD38B5044600780D46FFF783
:1060C000D9FF40B920782946FFF78AFD2078BDE83E
:1060D0003840FFF7D2BF38BD38B5044600780D46CA
:1060E000FFF7C8FF40B920782946FFF781FD2078E7
:1060F000BDE83840FFF7C1BF38BD0078FFF7BDBF2E
:10610000400830B51860002418688842E5B206D906
:106110000134082C02D040081860F5E70725024B2F
:106120005B5D137030BD00BFDC840D002DE9F043D2
:1061300007468FB000780E46FFF79CFF002862DB11
:106140003C781422002109A801F0BFFC0B23204653
:10615000002209A9ADF82430FFF772FD9DF82D400B
:1061600054B19DF82C5035B9DDF830809DF834904D
:106170009DF8354003E00024A146A046012533796F
:1061800005B1BBB99D420BD1B268424508D18DF82B
:1061900020908DF82140BDF82010B289914209D09D
:1061A00053B10024387801940094234622460121FB
:1061B000FFF74EFD002026E08DF80F30B1680A98F9
:1061C00004AB0DF10F02FFF79BFF317905B1B1B9B7
:1061D000A94208D0002438780194747B337B9DF861
:1061E0000F200094E4E7B3684345F3D38DF8209083
:1061F0008DF82140BDF82020B3899A42EAD1049B52
:106200004345E7D1D6E70FB0BDE8F0832DE9F04173
:1062100088B000230446007802930E461746FFF725
:1062200029FF054600BB94F800800146142203A80C
:1062300001F04BFC0B232A4603A94046ADF80C3075
:10624000FFF7FEFC02AB0DF1070207FB06F1049815
:106250008DF80750FFF754FF20789DF80710FFF7DF
:10626000CFFC2078FFF709FF029808B0BDE8F08165
:1062700038B5044600780D46FFF7FCFEC8B96168E2
:1062800071B10C4BC25CAA4202D001300828F9D18E
:106290000130C0B2C14001222046FFF7B7FF03E042
:1062A00029462078FFF7ACFC2078BDE83840FFF79E
:1062B000E4BE38BDDC840D0008B50078FFF7A8FC0B
:1062C000C0B208BD0078FFF7B3BC000010B5094CA0
:1062D00000204FF6FF732060A080A07120816381B1
:1062E000FFF7EEFD2046044A0449BDE8104000F0E7
:1062F0004FBE00BFE4E30320E0E20320CB400D00EB
:1063000010B504460068FFF75FFE204610BD10B5CB
:106310000446006808B1FFF757FE00232360A3601E
:10632000636010BD38B504460D4600680131FFF7C3
:1063300053FE10B184E82100012038BD10B5036878
:10634000044613B143688B4207D22046FFF7EAFFA9
:1063500020B1A3680BB922681370012010BD70B57D
:106360000E46114604461546FFF7E8FF18B92046C9
:10637000FFF7CDFF09E02A463146A560206801F00D
:1063800099FB2268A3680021D154204670BD38B51E
:106390000023044603604360836003730D4639B1F4
:1063A000084601F0C3FB294602462046FFF7D7FF07
:1063B000204638BD10B50446006808B1FFF798FCC8
:1063C000204610BD10B5064C002320462360FFF781
:1063D00087FC2046034A0449BDE8104000F0D8BDC0
:1063E000F0E30320E0E20320B5630D00F8B50646B4
:1063F0000D468F180024BD420CD0336815F8011BE0
:106400009B6830469847002801DB0444F3E7002CE2
:1064100008BF04462046F8BD70B505460C46084640
:1064200049B101F083FB2B68024621462846DB6810
:10643000BDE87040184770BD08B5FFF7EDFF08BD17
:1064400003689B68184738B50D210546FFF7F8FF2C
:106450000A2104462846FFF7F3FF204438BD38B52B
:106460000546FFF7D9FF04462846FFF7ECFF204416
:1064700038BDFFF7F4BF30B58BB00B4600218DF867
:106480002410012A98BF0A220DF12304B3FBF2F570
:1064900005FB123303F0FF03092B94BF303337336E
:1064A000DBB2214604F801392B46002DEED1FFF76F
:1064B000B3FF0BB030BD0CB42DE9F04387B000AF93
:1064C00007F13804054654F8049B3C600E46234609
:1064D0004A461421381DFFF787FD132805D8391DBA
:1064E0002846FFF799FF044613E000F1080323F064
:1064F0000703E846ADEB030D411C23464A466846B8
:106500003C60FFF771FD69462846FFF785FF0446AA
:10651000C5461EB12846FFF796FF044420461C37A7
:10652000BD46BDE8F04302B070470000014B024A8F
:106530001A607047F4E3032057850D00024B1A6878
:10654000024B1A60704700BF78E20320F8E3032093
:106550000021FFF7BDBC10B58368044613B10322C8
:1065600001469847204610BD10B50446FFF7F3FFDB
:10657000204610BD0348044A04490023836000F00C
:1065800007BD00BFFCE30320E0E2032069650D00C6
:1065900008B50C4B33B100F057F903681B699847F5
:1065A000002809DC084B63B100F0D0F903681B69CF
:1065B0009847002803DC08BDAFF30080F2E7AFF393
:1065C000008008BD000000000000000008B5FFF7D3
:1065D000DFFFFFF765FB014B186008BD30E70320C4
:1065E0000248034A0349121A01F064BA00F4032076
:1065F00004F40320D0870D0007B5002300931A464A
:106600006FF07701FFF776FC03B05DF804FB000044
:1066100007B543880A2B08D0502B09D1094B1B68BA
:106620003BB103B05DF804EB1847FFF7E5FF06E068
:10663000002300931A466FF07701FFF75BFC03B06D
:106640005DF804FB0CE4032038B5104C104D2368B2
:10665000AB42104B0CBF012200221A7002D0FFF790
:10666000BFFF2560FFF70CFB044601F037FA0A4B29
:1066700013B12046AFF3008000210748FFF794FCD8
:1066800000210648BDE83840FFF72ABC00F403208B
:106690001E1C279A10E403200000000011660D0064
:1066A000704710B51821044600F080FC204610BD4C
:1066B000F0B5037D062B8DB00E4600F104074FF0B8
:1066C000000402D000F1080518E00CAD394605F8C9
:1066D000304D2F232A460A20FFF712FB284601F0EF
:1066E00025FA33680246DB682946304698470FE0B2
:1066F00024B12E213046FFF7A3FE044415F8011DF6
:106700000A223046FFF7B7FEBD420444F0D12046CE
:106710000DB0F0BD10B5054B0446112240F8043B06
:10672000002101F0D2F9204610BD00BFF4850D0014
:106730000346074A10B543F8042B01F1100251F843
:10674000044B43F8044B9142F9D10A781A7010BDFA
:10675000F4850D0010B59DF8084044EA032343EA90
:10676000024242EA016104234160037510BD37B55E
:106770000D788B784A78C97800912946FFF7EAFFAF
:1067800003B030BD41747047704708B50021007CEC
:10679000FFF776FB30EA200028BF4FF0FF3008BD3E
:1067A00008B50121007CFFF76BFB30EA200028BF11
:1067B0004FF0FF3008BD08B5007CFFF759FB20EA19
:1067C000E07008BD08B5007CFFF74AFB20EAE070E6
:1067D00008BD007CFFF764BB10B51421044600F02F
:1067E000E5FB204610BD38B50446007C0D46FFF79A
:1067F0003FFB002801DC607C28B12946207CFFF7A4
:1068000047FB20EAE07038BD10B504460023636002
:106810004FF47A73A360054B23600123084621746B
:1068200063741146FFF70CFB204610BD08860D006F
:106830000022007CFFF70CBB10B514220446002197
:1068400001F043F9204610BD30B50E4D87B001A8C8
:10685000FFF7F2FF296811F0010410D12846FDF777
:106860002BFC60B101AA21460748FFF7CDFF28465F
:10687000FDF727FC054A0649034800F089FB02485A
:1068800007B030BD14E4032018E40320E0E2032045
:1068900089670D0070474174704708B5007CFFF7A9
:1068A0006FFA20EAE07008BD08B5007CFFF740FAF7
:1068B00020EAE07008BD08B5007CFFF749FA30EA2D
:1068C000200028BF4FF0FF3008BD08B5007CFFF75F
:1068D00037FA30EA200028BF4FF0FF3008BD007CB7
:1068E000FFF73EBA10B51421044600F05FFB2046C6
:1068F00010BD70B5457C04460E4625B9007CFFF7F7
:106900003FFA002805DD3146207CBDE87040FFF7E6
:1069100007BA284670BD000010B504460846114667
:10692000002262604FF47A72A260054A226001225E
:10693000207462741A46FFF7EBF9204610BD00BFC1
:1069400038860D00007CFFF713BA000038B50C4DF7
:10695000296811F0010411D12846FDF7ADFB68B19B
:10696000084A094B09482146FFF7D6FF2846FDF79C
:10697000A8FB074A0749054800F00AFB034838BD51
:10698000C4E40320C8E4032040E403202CE40320F3
:10699000E0E2032095680D007047F8B506461546FD
:1069A0000C468F18BC4206D0336814F8011B9B6854
:1069B00030469847F6E72846F8BD0022007CFFF7EE
:1069C000FFB90021007CFFF703BA0021007CFFF72C
:1069D00007BA0021007CFFF70BBA0021007CFFF70B
:1069E0000FBA10B51421044600F0E0FA204610BD9D
:1069F00010B50446002363604FF47A73A360044B20
:106A00002174084623601146FFF70AFA204610BD9C
:106A100068860D0000231A461946007CFFF7B8B9B6
:106A200070B50C4686B0142506462A46002101A8FA
:106A300001F04BF823788DF8083063680393E3681E
:106A400004930022237A307CADF8045001A9059309
:106A5000FFF7EEF906B070BD1FB500338DF80010DA
:106A60004FF06401039118BF0123694601928DF82C
:106A70000830FFF7D5FF05B05DF804FB0123FFF7F1
:106A8000EBBF0022007CFFF78BB9C9B2FFF7F9BF5B
:106A90000022007CFFF78CB90121FFF7F9BF00212C
:106AA000007CFFF7B5B9002211464068FFF764BAD1
:106AB000002211464068FFF76FBA00224068FFF7D6
:106AC00063BA002281F001014068FFF74DBA00234C
:106AD0001A4601214068FFF73FBA00231A461946BB
:106AE0004068FFF731BA002211464068FFF724BA28
:106AF000002211464068FFF70FBA002202214068C9
:106B0000FFF712BA00231A464068FFF7FDB938B5FF
:106B1000054688B104684CB1A3681BB10322214625
:106B2000204698471021204600F040FA28461421BC
:106B3000BDE8384000F03ABA38BD10B103685B6870
:106B40001847704710B503680446BBB15868FFF793
:106B5000AFF878B923685A7C12B95868FFF7B0F8D3
:106B600023685868FFF7B4F820680023236028B131
:106B7000FFF7CDFF206808B1FFF7C9FF204610BD21
:106B800038B50446D0F8C40108B1FDF788FAD4F846
:106B9000C00108B1FFF7ACF8D4F8BC5135B12846B4
:106BA000FFF7D0FF0421284600F000FA206808B162
:106BB000FFF7C3FF204638BD10B5044B044640F82C
:106BC000083BFFF7DDFF204610BD00BF90860D009B
:106BD00038B50E4C0E4B23600025022304F5E470FB
:106BE0006360A560C4F8C451C4F8C851FFF778F8D1
:106BF000084BC4F8CC5184F8D05123602046064A93
:106C00000649BDE8384000F0C3B900BF4CE5032099
:106C1000F8860D0090860D00E0E20320B96B0D00B0
:106C2000002211464068FFF787B9002211464068EC
:106C3000FFF7A2B9002211464068FFF7ADB9002264
:106C40004068FFF7A1B9002281F001014068FFF719
:106C50008BB900231A4619464068FFF77DB9002317
:106C60001A4619464068FFF76FB90022114640687E
:106C7000FFF752B9002202214068FFF755B90023FF
:106C80001A464068FFF740B9024B04225A60024A94
:106C90001A60704720E70320C4860D0000231A46BF
:106CA0004068FFF731B9002202214068FFF73CB984
:106CB000002211464068FFF72FB9002211464068B4
:106CC000FFF73AB900231A4619464068FFF73CB966
:106CD00000231A4619464068FFF73EB9002281F0AA
:106CE00001014068FFF740B900224068FFF74CB946
:106CF000002211464068FFF74FB900221146406854
:106D0000FFF73AB92DE9F043002495B016460D4639
:106D10000746FFF7FFFC214620220CA8009400F054
:106D2000D4FE40230C9321466B460CAA3046FEF756
:106D30001FFF0446002844D1024601216868FFF77E
:106D4000FBF80221804622466868FFF7F5F8009EAE
:106D500081462146002E34D0002932D17368022B9F
:106D600002D00A2B09D02AE0B8F1000F27D07169B0
:106D700038460431FFF7FBFC20E0B9F1000F1ED0CC
:106D80007469112201A800F0A0FE06238DF81430CA
:106D900001AD04F108031834186859682A4603C283
:106DA0000833A3421546F7D101A906A807ADFFF79E
:106DB000BFFC0FCD3C1D0FC42B6823700121F66969
:106DC000C8E70098FEF7CCFE384615B0BDE8F08362
:106DD000024B034A1A6000225A60704728E70320DA
:106DE000F8860D0070B5184E316811F001050446A3
:106DF0000AD13046FDF760F930B129461348FFF754
:106E00003FF93046FDF75DF91048FFF75BFA28B10E
:106E1000A4F10B03022B01D8002070BD00F092F802
:106E2000FFF73DFE08B1012CF6D9FFF78FFDFFF704
:106E300089FD18B1A4F10903012BEDD9232C8CBFD6
:106E40000020012070BD00BFD0E30320D4E3032065
:106E5000232838B504460D460AD8FF2908D0FFF785
:106E6000C1FF28B129462046BDE83840FEF790BE54
:106E700038BD38B504460D46FEF792FEFF2810D007
:106E8000062804D84D2323FA00F0C30709D420466E
:106E9000FFF7A8FF28B129462046BDE83840FEF795
:106EA00087BE38BD10B50446FEF77AFE0438C0B27E
:106EB000012808D92046FFF795FF20B12046BDE8FC
:106EC0001040FEF77DBE002010BD2DE9F041904638
:106ED0001E46072407460D46B8F1000F04D1C4F141
:106EE000070146FA01F101E046FA04F101F001015F
:106EF0003846FFF7BEFF01212846FFF7BAFF002101
:106F00002846FFF7B6FF14F1FF34E5D2BDE8F08163
:106F100070B5044614252A46094E002100F0D5FD1F
:106F2000258020253146A5602561284600F040F8DF
:106F300031466060284600F03BF8E060204670BDB6
:106F400024870D0030B50E4D296811F0010487B07B
:106F500013D12846FDF7B0F878B101A8FFF7D8FFA4
:106F600001AA21460748FFF743FD2846FDF7A9F887
:106F7000054A0649034800F00BF8024807B030BD47
:106F800034E7032038E70320E0E2032099690D008D
:106F90000B460146184600F07FBD0000024B186802
:106FA000BFF35F8F704700BF4CE70320FDF775B854
:106FB00000F000B810B5002814BF04460124204694
:106FC000FEF7FAFF20B9FFF7E9FF08B18047F6E7BF
:106FD00010BD0000184B1A68D1075CBF01221A606F
:106FE000164B1A68D2075CBF01221A60144B1A684C
:106FF000D0075CBF01221A60124B1A68D1075CBF30
:1070000001221A60104B1A68D2075CBF01221A6075
:107010000E4B1A68D0075CBF01221A600C4B1A682D
:10702000D1075CBF01221A600A4B1A68D2075CBF05
:1070300001221A60704700BF6CE7032068E7032055
:1070400064E7032060E703205CE7032058E70320A0
:1070500054E7032050E70320244B1A68D0075CBF95
:1070600001221A60224B1A68D1075CBF01221A6004
:10707000204B1A68D2075CBF01221A601E4B1A68A7
:10708000D0075CBF01221A601C4B1A68D1075CBF95
:1070900001221A601A4B1A68D2075CBF01221A60DB
:1070A000184B1A68D0075CBF01221A60164B1A6889
:1070B000D1075CBF01221A60144B1A68D2075CBF6B
:1070C00001221A60124B1A68D0075CBF01221A60B5
:1070D000104B1A68D1075CBF01221A600E4B1A6868
:1070E000D2075CBF01221A60704700BF9CE70320F3
:1070F00098E7032094E7032090E703208CE7032020
:1071000088E7032084E7032080E703207CE703204F
:1071100078E7032074E7032070E70320244B1A6804
:10712000D0075CBF01221A60224B1A68D1075CBFEE
:1071300001221A60204B1A68D2075CBF01221A6034
:107140001E4B1A68D0075CBF01221A601C4B1A68DC
:10715000D1075CBF01221A601A4B1A68D2075CBFC4
:1071600001221A60184B1A68D0075CBF01221A600E
:10717000164B1A68D1075CBF01221A60144B1A68BB
:10718000D2075CBF01221A60124B1A68D0075CBF9D
:1071900001221A60104B1A68D1075CBF01221A60E5
:1071A0000E4B1A68D2075CBF01221A60704700BFFD
:1071B000CCE70320C8E70320C4E70320C0E703208F
:1071C000BCE70320B8E70320B4E70320B0E70320BF
:1071D000ACE70320A8E70320A4E70320A0E70320EF
:1071E000184B1A68D1075CBF01221A60164B1A6847
:1071F000D2075CBF01221A60144B1A68D0075CBF2B
:1072000001221A60124B1A68D1075CBF01221A6072
:10721000104B1A68D2075CBF01221A600E4B1A6825
:10722000D0075CBF01221A600C4B1A68D1075CBF03
:1072300001221A600A4B1A68D2075CBF01221A6049
:10724000704700BFECE70320E8E70320E4E70320F2
:10725000E0E70320DCE70320D8E70320D4E703209E
:10726000D0E7032081F0004102E000BF83F000433B
:1072700030B54FEA41044FEA430594EA050F08BFD1
:1072800090EA020F1FBF54EA000C55EA020C7FEA95
:10729000645C7FEA655C00F0E2804FEA5454D4EB12
:1072A0005555B8BF6D420CDD2C4480EA020281EADC
:1072B000030382EA000083EA010180EA020281EA14
:1072C0000303362D88BF30BD11F0004F4FEA013166
:1072D0004FF4801C4CEA113102D0404261EB410175
:1072E00013F0004F4FEA03334CEA133302D05242FB
:1072F00063EB430394EA050F00F0A780A4F10104B7
:10730000D5F1200E0DDB02FA0EFC22FA05F28018F0
:1073100041F1000103FA0EF2801843FA05F35941D6
:107320000EE0A5F120050EF1200E012A03FA0EFC55
:1073300028BF4CF0020C43FA05F3C01851EBE3717F
:1073400001F0004507D54FF0000EDCF1000C7EEB9C
:1073500000006EEB0101B1F5801F1BD3B1F5001FDA
:107360000CD349085FEA30004FEA3C0C04F10104F9
:107370004FEA445212F5800F80F09A80BCF1004F22
:1073800008BF5FEA500C50F1000041EB045141EAA4
:10739000050130BD5FEA4C0C404141EB010111F4A5
:1073A000801FA4F10104E9D191F0000F04BF014650
:1073B0000020B1FA81F308BF2033A3F10B03B3F12E
:1073C00020020CDA0C3208DD02F1140CC2F10C02BE
:1073D00001FA0CF021FA02F10CE002F11402D8BF1C
:1073E000C2F1200C01FA02F120FA0CFCDCBF41EAE8
:1073F0000C019040E41AA2BF01EB0451294330BDB7
:107400006FEA04041F3C1CDA0C340EDC04F1140493
:10741000C4F1200220FA04F001FA02F340EA03006A
:1074200021FA04F345EA030130BDC4F10C04C4F1B0
:10743000200220FA02F001FA04F340EA0300294690
:1074400030BD21FA04F0294630BD94F0000F83F4DA
:10745000801306BF81F480110134013D4EE77FEABD
:10746000645C18BF7FEA655C29D094EA050F08BF09
:1074700090EA020F05D054EA000C04BF19461046EA
:1074800030BD91EA030F1EBF0021002030BD5FEA2E
:10749000545C05D14000494128BF41F0004130BD56
:1074A00014F580043CBF01F5801130BD01F00045AA
:1074B00045F0FE4141F470014FF0000030BD7FEA1D
:1074C000645C1ABF194610467FEA655C1CBF0B4618
:1074D000024650EA013406BF52EA033591EA030F2F
:1074E00041F4002130BD00BF90F0000F04BF002127
:1074F000704730B54FF4806404F132044FF000055A
:107500004FF0000150E700BF90F0000F04BF0021D2
:10751000704730B54FF4806404F1320410F0004538
:1075200048BF40424FF000013EE700BF42004FEA33
:10753000E2014FEA31014FEA02701FBF12F07F43B0
:1075400093F07F4F81F06051704792F0000F14BFAD
:1075500093F07F4F704730B54FF4607401F00045F1
:1075600021F0004120E700BF50EA010208BF704748
:1075700030B54FF000050AE050EA010208BF70473D
:1075800030B511F0004502D5404261EB41014FF4A6
:10759000806404F132045FEA915C3FF4DCAE4FF0AA
:1075A00003025FEADC0C18BF03325FEADC0C18BF91
:1075B000033202EBDC02C2F1200300FA03FC20FAE2
:1075C00002F001FA03FE40EA0E0021FA02F114442F
:1075D000C1E600BF70B54FF0FF0C4CF4E06C1CEA44
:1075E00011541DBF1CEA135594EA0C0F95EA0C0FB9
:1075F00000F0DEF82C4481EA030621EA4C5123EA2C
:107600004C5350EA013518BF52EA033541F480115A
:1076100043F4801338D0A0FB02CE4FF00005E1FB0D
:1076200002E506F00042E0FB03E54FF00006E1FB57
:1076300003569CF0000F18BF4EF0010EA4F1FF049A
:10764000B6F5007F64F5407404D25FEA4E0E6D41DA
:1076500046EB060642EAC62141EA55514FEAC520EB
:1076600040EA5E504FEACE2EB4F1FD0C88BFBCF567
:10767000E06F1ED8BEF1004F08BF5FEA500E50F118
:10768000000041EB045170BD06F0004646EA0101DE
:1076900040EA020081EA0301B4EB5C04C2BFD4EB10
:1076A0000C0541EA045170BD41F480114FF0000E09
:1076B000013C00F3AB8014F1360FDEBF002001F077
:1076C000004170BDC4F10004203C35DA0C341BDCF1
:1076D00004F11404C4F1200500FA05F320FA04F0C3
:1076E00001FA05F240EA020001F0004221F00041F7
:1076F00010EBD37021FA04F642EB06015EEA430E6A
:1077000008BF20EAD37070BDC4F10C04C4F1200599
:1077100000FA04F320FA05F001FA04F240EA02004C
:1077200001F0004110EBD37041F100015EEA430E1D
:1077300008BF20EAD37070BDC4F1200500FA05F23D
:107740004EEA020E20FA04F301FA05F243EA0203BC
:1077500021FA04F001F0004121FA04F220EA0200CB
:1077600000EBD3705EEA430E08BF20EAD37070BD11
:1077700094F0000F0FD101F00046400041EB0101F1
:1077800011F4801F08BF013CF7D041EA060195F0D3
:10779000000F18BF704703F00046520043EB03038D
:1077A00013F4801F08BF013DF7D043EA060370477A
:1077B00094EA0C0F0CEA135518BF95EA0C0F0CD085
:1077C00050EA410618BF52EA4306D1D181EA0301CB
:1077D00001F000414FF0000070BD50EA410606BFC5
:1077E0001046194652EA430619D094EA0C0F02D10A
:1077F00050EA013613D195EA0C0F05D152EA03364F
:107800001CBF104619460AD181EA030101F000416C
:1078100041F0FE4141F470014FF0000070BD41F0B5
:10782000FE4141F4780170BD70B54FF0FF0C4CF48F
:10783000E06C1CEA11541DBF1CEA135594EA0C0FAE
:1078400095EA0C0F00F0A7F8A4EB050481EA030EFB
:1078500052EA03354FEA013100F088804FEA0333E2
:107860004FF0805545EA131343EA12634FEA0222B0
:1078700045EA111545EA10654FEA00260EF0004171
:107880009D4208BF964244F1FD0404F5407402D2C3
:107890005B084FEA3202B61A65EB03055B084FEA54
:1078A00032024FF480104FF4002CB6EB020E75EB51
:1078B000030E22BFB61A754640EA0C005B084FEA79
:1078C0003202B6EB020E75EB030E22BFB61A7546F6
:1078D00040EA5C005B084FEA3202B6EB020E75EB41
:1078E000030E22BFB61A754640EA9C005B084FEAB9
:1078F0003202B6EB020E75EB030E22BFB61A7546C6
:1079000040EADC0055EA060E18D04FEA051545EAB4
:1079100016754FEA06164FEAC30343EA52734FEA5D
:10792000C2025FEA1C1CC0D111F4801F0BD141EAD6
:1079300000014FF000004FF0004CB6E711F4801F3B
:1079400004BF01430020B4F1FD0C88BFBCF5E06F1B
:107950003FF6AFAEB5EB030C04BFB6EB020C5FEA2B
:10796000500C50F1000041EB045170BD0EF0004E80
:107970004EEA113114EB5C04C2BFD4EB0C0541EAB2
:10798000045170BD41F480114FF0000E013C90E6AF
:1079900045EA060E8DE60CEA135594EA0C0F08BF73
:1079A00095EA0C0F3FF43BAF94EA0C0F0AD150EA72
:1079B00001347FF434AF95EA0C0F7FF425AF104605
:1079C00019462CE795EA0C0F06D152EA03353FF42D
:1079D000FDAE1046194622E750EA410618BF52EAAA
:1079E00043067FF4C5AE50EA41047FF40DAF52EA7E
:1079F00043057FF4EBAE12E74FEA4102B2F1E043F8
:107A000024BFB3F5001CDCF1FE5C0DD901F0004C85
:107A10004FEAC0024CEA5070B2F1004F40EB8300D5
:107A200008BF20F00100704711F0804F21D113F101
:107A30003872BCBF01F00040704741F480114FEA3A
:107A40005252C2F11802C2F1200C10FA0CF320FAC3
:107A500002F018BF40F001004FEAC1234FEAD323E0
:107A600003FA0CFC40EA0C0023FA02F34FEA43034A
:107A7000CCE77FEA625307D150EA01331EBF4FF0D3
:107A8000FE4040F44000704701F0004040F0FE40EE
:107A900040F40000704700BF10B5054C13462CB1F0
:107AA0000A4601460220AFF3008010BD204610BDFB
:107AB0000000000010B5431E0A44914204D011F8A2
:107AC000014B03F8014FF8E710BD0244034693420F
:107AD00002D003F8011BFAE77047000038B5124BDB
:107AE0001C68A36B0546D3B91820FEF765FA43F26C
:107AF0000E33A06303804AF6CD33438041F2342332
:107B000083804EF26D63C3804DF6EC6303810523E1
:107B100043810B23838101220023C0E90423A36B4B
:107B200000221D615A6138BDDCE20320034613F8D0
:107B3000012B002AFBD1181A0138704721400D0093
:107B40005D400D0089400D008D400D0000000000DB
:107B50002059454C4C4F57200000202052454420CE
:107B600020200000204D414E55414C200000202097
:107B70004155544F202000002A204D414E55414C84
:107B8000202A003C425554544F4E3E0A00202020EB
:107B90002020204D4F44450A003C59454C4C4F573E
:107BA0003E0A0020202020202000202020204D41BF
:107BB0004E55414C0A003C5245443E204155544FDD
:107BC0000A002020202020204F46460A0050524F15
:107BD0004752414D20417474696346616E436F6E34
:107BE00074726F6C6C65725F46494E414C0A00427C
:107BF0004D45323830207465737400436F756C6482
:107C0000206E6F742066696E6420612076616C69F5
:107C10006420424D453238302073656E736F722C8C
:107C200020636865636B20776972696E672C2061D9
:107C30006464726573732C2073656E736F72204970
:107C400044210053656E736F724944207761733A23
:107C50002030780020202020202020204944206F40
:107C60006620307846462070726F6261626C7920BF
:107C70006D65616E7320612062616420616464726D
:107C80006573732C206120424D5020313830206FB5
:107C90007220424D502030383500202020494420A9
:107CA0006F6620307835362D307835382072657023
:107CB000726573656E7473206120424D50203238B6
:107CC000302C0020202020202020204944206F66D6
:107CD000203078363020726570726573656E74730B
:107CE000206120424D45203238302E0020202020B7
:107CF000202020204944206F6620307836312072C1
:107D00006570726573656E7473206120424D452005
:107D10003638302E00424D453238302055702061C3
:107D20006E642052756E6E696E67002054454D502A
:107D30002048554D0A002053455454494E47530A94
:107D4000002025322E306620202025322E30660A73
:107D5000002053454E534F520A002025322E3066E4
:107D6000002A20204155544F20202A003C524544EF
:107D70003E004155544F4D6F64652054454D50456C
:107D8000524154555245203E2025322E30660A007D
:107D90004155544F4D6F64652048554D49444954F1
:107DA00059203E2025322E30660A007C2050524554
:107DB000535320207C002573007C20425554544F9F
:107DC0004E207C007C202020544F2020207C007CF2
:107DD0002052455455524E207C007C20204D4F446B
:107DE0004520207C004155544F4D6F646520203E56
:107DF0002025690A004D41494E204C4F4F503A41D1
:107E000055544F4D6F6465206973204F20462046BE
:107E1000203E2025690A004155544F4D6F6465206E
:107E20006973204F204E203E2025692065786563C8
:107E3000757465204D4C30335F434845434B5F417B
:107E400055544F5F5448524553484F4C445328298A
:107E50000A004F4C454420444953504C415920534B
:107E600057495443482043415345204552524F52AD
:107E70002D2D4D2041204E20552041204C20204DBD
:107E80004F4445004F4C454420444953504C4159C0
:107E900020535749544348204341534520455252AB
:107EA0004F522D2D4120552054204F204D4F4445F9
:107EB000004F50454E2057494445204154544943B2
:107EC00020444F4F52262057494E444F57530021CC
:107ED000212121212121212121005F5F5F5F5F5F3F
:107EE0005F5F5F5F00000000000000000000000016
:107EF00065490D0064656661756C7420004D5342E0
:107F0000004C5342003C53504953657474696E678A
:107F1000732064656661756C743E003C5350495330
:107F2000657474696E6773202573256C75202573DD
:107F3000204D4F444525643E000000000000000035
:107F400000000000C9400D0061480D00A95A0D0055
:107F5000ED630D00A5530D00A9570D002D520D0026
:107F6000B9500D0069580D00FF580D0037590D002C
:107F700053590D0000000000000000000000000048
:107F800000000000A95A0D00ED630D00A5400D0092
:107F9000A9570D00C9580D00E5580D0069580D008E
:107FA000FF580D0037590D0053590D000000000017
:107FB000003E5B4F5B3E3E6B4F6B3E1C3E7C3E1C6F
:107FC000183C7E3C181C577D571C1C5E7F5E1C00B5
:107FD000183C1800FFE7C3E7FF0018241800FFE76C
:107FE000DBE7FF30483A060E2629792926407F052F
:107FF0000507407F05253F5A3CE73C5A7F3E1C1C45
:1080000008081C1C3E7F14227F22145F5F005F5F04
:1080100006097F017F006689956A606060606094F0
:10802000A2FFA29408047E040810207E20100808F5
:108030002A1C08081C2A08081E101010100C1E0C00
:108040001E0C30383E3830060E3E0E060000000092
:108050000000005F00000007000700147F147F1479
:10806000242A7F2A122313086462364956205000BE
:1080700008070300001C2241000041221C002A1CAA
:108080007F1C2A08083E0808008070300008080895
:108090000808000060600020100804023E514945B5
:1080A0003E00427F400072494949462141494D33D3
:1080B0001814127F1027454545393C4A494931413A
:1080C000211109073649494936464949291E000008
:1080D000140000004034000000081422411414145D
:1080E0001414004122140802015909063E415D5949
:1080F0004E7C1211127C7F494949363E4141412252
:108100007F4141413E7F494949417F090909013E7B
:10811000414151737F0808087F00417F41002040A2
:10812000413F017F081422417F404040407F021CB4
:10813000027F7F0408107F3E4141413E7F090909CB
:10814000063E4151215E7F09192946264949493297
:1081500003017F01033F4040403F1F2040201F3F5D
:108160004038403F631408146303047804036159E2
:10817000494D43007F414141020408102000414124
:10818000417F0402010204404040404000030708D0
:108190000020545478407F284444383844444428CC
:1081A000384444287F385454541800087E09021873
:1081B000A4A49C787F0804047800447D40002040FB
:1081C000403D007F1028440000417F40007C04783F
:1081D00004787C080404783844444438FC18242487
:1081E0001818242418FC7C08040408485454542407
:1081F00004043F44243C4040207C1C2040201C3C84
:108200004030403C44281028444C9090907C44647A
:10821000544C44000836410000007700000041360D
:10822000080002010204023C2623263C1EA1A16193
:10823000123A4040207A38545455592155557941C5
:108240002154547841215554784020545579400C9C
:108250001E5272123955555559395454545939557D
:108260005454580000457C410002457D42000145C0
:108270007C40F0292429F0F0282528F07C5455452D
:10828000002054547C547C0A097F493249494932C0
:108290003248484832324A4848303A4141217A3AD5
:1082A00042402078009DA0A07D39444444393D409F
:1082B00040403D3C24FF2424487E4943662B2FFC4C
:1082C0002F2BFF0929F620C0887E090320545479FA
:1082D000410000447D413048484A32384040227ACB
:1082E000007A0A0A727D0D19317D2629292F282648
:1082F0002929292630484D40203808080808080850
:108300000808382F10C8ACBA2F102834FA00007BA8
:10831000000008142A142222142A1408AA00550066
:10832000AAAA55AA55AA000000FF00101010FF00CD
:10833000141414FF001010FF00FF1010F010F014C0
:108340001414FC001414F700FF0000FF00FF1414C5
:10835000F404FC141417101F10101F101F14141411
:108360001F00101010F0000000001F101010101F50
:1083700010101010F010000000FF1010101010105E
:10838000101010FF10000000FF140000FF00FF009D
:10839000001F10170000FC04F41414171017141415
:1083A000F404F40000FF00F714141414141414F768
:1083B00000F7141414171410101F101F141414F4C1
:1083C000141010F010F000001F101F0000001F1408
:1083D000000000FC140000F010F01010FF10FF145B
:1083E0001414FF141010101F00000000F010FFFF05
:1083F000FFFFFFF0F0F0F0F0FFFFFF0000000000D3
:10840000FFFF0F0F0F0F0F38444438447C2A2A3ED9
:10841000147E02020606027E027E02635549416313
:108420003844443C04407E201E2006027E0202990D
:10843000A5E7A5991C2A492A1C4C7201724C304AA6
:108440004D4D303048784830BC625A463D3E49492F
:1084500049007E0101017E2A2A2A2A2A44445F44D7
:108460004440514A444040444A51400000FF010307
:10847000E080FF000008086B6B08361236243606D1
:108480000F090F06000018180000001010003040FF
:10849000FF0101001F01011E00191D1712003C3CC5
:1084A0003C3C000000000000000000000000000054
:1084B00057600D004D600D0043600D0039600D00E8
:1084C0002D600D0021600D0015600D000D600D0088
:1084D00003600D00F95F0D00056D0D000008101818
:1084E00020283038626175640053657269616C00E0
:1084F00053657269616C31007479706500706172E6
:10850000616D00636D6400696400686E640073747B
:10851000726D0066696C74006C766C00616464480E
:10852000616E646C65720072656D6F766548616E30
:10853000646C657200656E756D48616E646C657221
:1085400073004A534F4E53747265616D4C6F6748A8
:10855000616E646C65720061707000253031307539
:1085600020005D20002564002C200028293A2000EE
:10857000205B00636F6465203D2000256900646511
:108580007461696C73203D20000D0A006C6E0066FA
:108590006E00636F64650064657461696C006E6F82
:1085A0006E6500747261636500696E666F00776165
:1085B000726E006572726F720070616E6963006145
:1085C0006C6C005A00252B3033643A25303275002C
:1085D00025592D256D2D25645425483A254D3A25DC
:1085E00053257A0061736374696D650000000000B3
:1085F00000000000B1660D00A1660D00A3660D002D
:10860000000000000000000089670D00D9670D0020
:10861000E7670D00ED630D00C5670D008B670D006A
:10862000A1670D00D3670D00B7670D0085670D00CA
:10863000000000000000000095680D00E5680D00D6
:10864000F3680D00ED630D00A9680D00CB680D0007
:10865000B7680D00DF680D0097680D009B680D007E
:10866000000000000000000099690D00E3690D00A2
:10867000BB690D009B690D00C3690D00CB690D003E
:10868000D3690D00DB690D00000000000000000050
:10869000056B0D00FB6A0D00F16A0D00E76A0D0025
:1086A000DB6A0D00CF6A0D00C36A0D00BB6A0D00C6
:1086B000B16A0D00A76A0D00056D0D0000000000F5
:1086C000000000007F6C0D00756C0D006B6C0D00E0
:1086D000216C0D005F6C0D00536C0D00476C0D009C
:1086E0003F6C0D00356C0D002B6C0D00056D0D0001
:1086F00000000000000000009D6C0D00A76C0D0044
:10870000B16C0D00BB6C0D00C56C0D00D16C0D0083
:10871000DD6C0D00E96C0D00F16C0D00FB6C0D00C3
:10872000056D0D00000000000000000000000000CA
:108730000000000000000000000000000000000039
:108740000000000000000000000000000000000029
:108750000000000000000000000000000000000019
:108760000000000000000000000000000000000009
:1087700000000000000000000000000000000000F9
:1087800000000000000000004300000071480D00E0
:10879000B3500D00A5570D005D5B0D0061600D002D
:1087A000CD620D00C5630D002D650D003D650D000A
:1087B00075650D00D16B0D00896C0D00D16D0D003C
:1087C000D56F0D0059700D001D710D00E1710D0088
:0487D00000000000A5
:1087D400000103070F1F3F7F0080C0E0F0F8FCFE9C
:1087E4000000000000000000000000000000000085
:1087F4000000000000000000000000000000000075
:108804000000000000000000000000000000000064
:1088140000000000000000000000000000000080D4
:108824008080000000000000000000000000000044
:10883400008080C0C00000000000000000000000B4
:108844000000000000000000000000000000000024
:108854000000000000000000000000000000000014
:108864000000000000000000000000000000000004
:108874000000000080C0E0F0F8FCF8E00000000018
:108884000000000000000000000000000080808064
:10889400808000808000000000808080808000FF55
:1088A400FFFF0000000080808080000080800000C6
:1088B40080FFFF8080008080008080808000808036
:1088C4000000000000808000008C8E84000080F88E
:1088D400F8F8800000000000000000000000000024
:1088E400F0F0F0F0F0F0F0F0F0F0F0F0E0E0C08044
:1088F40000E0FCFEFFFFFF7FFFFFFFFFFF00000023
:108904000000000000000000000000FEFFC701019D
:10891400010183FFFF00007CFEC70101010183FF09
:10892400FFFF0038FEC78301010183C7FFFF00007A
:1089340001FFFF010100FFFF0701010100007FFFAC
:1089440080000000FFFF7F0000FFFFFF000001FF29
:10895400FFFF010000000000000000000000000014
:10896400030F3F7F7FFFFFFFFFFFFFFFE7C7C78FB7
:108974008F9FBFFFFFC3C0F0FFFFFFFFFFFCFCFCA6
:10898400FCFCFCFCFCF8F8F0F0E0C000010303037D
:1089940003030103030000000001030303030101B7
:1089A40003010000000103030303010103030000AA
:1089B40000030300000003030000000000000001A6
:1089C400030303030301000000010301000000038B
:1089D400030100000000000000000000000000008F
:1089E40000000080C0E0F0F9FFFFFFFFFF3F1F0F12
:1089F40087C7F7FFFF1F1F3DFCF8F8F8F87C7DFFE1
:108A0400FFFFFFFFFFFFFF7F3F0F07003030000035
:108A14000000000000000000000000000000000052
:108A240000000000FEFEFC0000000000000000004A
:108A340000000000000000000000000000E0C00092
:108A440000000000000000000000303000000000C2
:108A54000000000000000000000000000000000012
:108A640000C0FEFFFFFFFFFFFFFFFFFF7F7F3F1FF1
:108A74000F071F7FFFFFF8F8FFFFFFFFFFFEF8E07F
:108A8400000000010000000000000000FEFE0000E5
:108A940000FCFEFC0C06060EFCF80000F0F81C0EB0
:108AA4000606060CFFFFFF0000FEFE00000000FCAF
:108AB400FEFC00183C7E66E6CE84000006FFFF063E
:108AC40006FCFEFC0C0606060000FEFE0000C0F8D4
:108AD400FC4E4646464E7C7840183C76E6CECC802A
:108AE4000000000000000000000000000000000082
:108AF4000000000001070F1F1F3F3F3F3F1F0F03F0
:108B04000000000000000000000000000F0F000043
:108B1400000F0F0F000000000F0F000003070E0CE2
:108B240018180C060F0F0F0000010F0E0C180C0F75
:108B3400070100040E0C180C0F070000000F0F00B3
:108B4400000F0F0F0000000000000F0F00000007CF
:108B5400070C0C181C0C060600040E0C180C0F074E
:108B64000000000000000000000000000000000001
:108B740000000000000000000000000000000000F1
:108B840000000000000000000000000000000000E1
:108B940000000000000000000000000000000000D1
:108BA40000000000000000000000000000000000C1
:108BB40000000000000000000000000000000000B1
:108BC40000000000000000000000000000000000A1
:108BD4000000000000000000000000000000000091
:108BE400E4850D000000000028870D0048870D0073
:108BF40068870D0000000000000000000000000075
:108C04000000000088870D00000000000000000044
:108C14000000000000000000000000000000000050
:108C24000000000000000000000000000000000040
:108C34000000000000000000000000000000000030
:088C4400000000007CE20320A7
:108C4C00FFFFFFFF00000102030405060708090AE5
:108C5C000B0C0D0E0F101112131415161718191AE0
:088C6C001B1C1D1E1F20280027
:048C740078563412E8
:04000003D0004020C9
:00000001FF
